:020000040800F2
:10000000D8060020010100080F460008691C0008FE
:100010000D46000821090008616500080000000085
:10002000000000000000000000000000895C0008E3
:10003000B1110008000000000D4800088D620008A2
:100040001701000817010008170100081701000830
:100050001701000817010008170100081701000820
:100060001701000817010008170100081701000810
:100070001701000817010008170100081701000800
:1000800017010008170100081701000817010008F0
:100090005D65000817010008170100081701000836
:1000A00017010008170100081701000817010008D0
:1000B000D1620008170100081701000817010008A5
:1000C00017010008170100081701000817010008B0
:1000D00017010008170100081701000817010008A0
:1000E000170100081701000817010008DFF80CD0FD
:1000F00000F014F800480047356A0008D8060020D0
:1001000005480047FEE7FEE7FEE7FEE7FEE7FEE7FD
:10011000FEE7FEE7FEE7FEE7ED000008064C074DB0
:1001200006E0E06840F0010394E8070098471034C7
:10013000AC42F6D3FFF7DEFF986F0008B86F0008F7
:1001400070B58C1810F8015B15F0070301D110F899
:10015000013B2A1106D110F8012B03E010F8016BC6
:1001600001F8016B5B1EF9D12B0705D40023521E49
:100170000DD401F8013BFAE710F8013BCB1A921CB1
:1001800003E013F8015B01F8015B521EF9D5A142AF
:10019000D8D3002070BD000030B591B0012140F2ED
:1001A000012004F08FFB0121084604F073FB4FF49B
:1001B000004004F065FB464D284600F0E5FD45484B
:1001C000009045480024CDE901042D20CDE9030429
:1001D00080200590800006908000CDE90704800013
:1001E000CDE909046946284600F04AFE0021284668
:1001F00000F0C0FD374D4C3D284600F093FA012039
:100200008DF830008DF831000B944FF46020CDE96B
:100210000D0409208DF83C000BA9284600F0B8FA1F
:10022000052301220021284600F0D6FA05230222E8
:100230000121284600F0D0FA052303220221284696
:1002400000F0CAFA052304220321284600F0C4FA6C
:1002500005231A460421284600F0BEFA052306228B
:100260001946284600F0B8FA052307220621284639
:1002700000F0B2FA052308220721284600F0ACFA64
:10028000052309220821284600F0A6FA01224FF48E
:100290000871284600F072FA0121284600F0EAF8B9
:1002A0000121284600F01DF8284600F0CFFA2C4620
:1002B000204600F05CFA0028FAD1204600F0F3FA5C
:1002C000204600F04DFA0028FAD111B030BD0000F0
:1002D000080002404C24014030030020C943016063
:1002E00070470029816802D041F0010101E021F04E
:1002F00001018160704700002DE9F05FDFF868A11F
:1003000001240AF12406594D0B274FF0B0084FF095
:100310007F0BA6F1FC09484659F82420544941F8BE
:1003200024205AF82420514659F82430921C9A422D
:1003300005D851F8242050F824309A420CD350F8B4
:10034000242051F82430921C9A420AD850F82420D4
:1003500051F824309A4204D200220CE085F803B010
:1003600016E0325D1ABB50F824201AB150F8242050
:100370007F2A1CD3012232552F7085F8018004F1A9
:100380002002AA7050F82420D2B2EA707F2AE5D267
:1003900050F8240041F8240004229101334806F06B
:1003A000E1F8012005F024FD052006F034FB641C73
:1003B000E4B2092CAFD3DAF800305146D9F8004046
:1003C000484655229B1CA34203D80B680468A342ED
:1003D0000AD303680C689B1CA3421ED8D9F80040BE
:1003E000DAF800309C4218D2002333702F7085F861
:1003F0000180AA700268D2B2EA707F2A01D385F820
:1004000003B00068086004229101184806F0AAF8B9
:10041000BDE8F05F012005F0EBBC3378002B20D164
:10042000036813B103687F2B1BD3012333702F7034
:1004300085F80180AA700268D2B2EA707F2A01D3DF
:1004400085F803B00068086004229101074806F0AF
:1004500089F8012005F0CCFCBDE8F05F052006F02E
:10046000DABABDE8F09F0000000300200000002081
:10047000980400200029816802D041F4807101E0D5
:1004800021F48071816070472DE9F04FA24A00206D
:1004900002F1B40502F1C80602F5827802F58C7902
:1004A00002F5967A02F5AA7B00EBC0019A4B52F84E
:1004B000214002EB810145F820404C6846F820407D
:1004C000DC338C6843F8204003F11404CF6844F80F
:1004D00020700F6948F820704F6949F820708F69C3
:1004E0004AF820705034CF6944F820700C6A4BF8F9
:1004F0002040401CC0B20528D6D30521A3F1280016
:1005000000F0B3F9854F844CB96FE43C01EBC101B5
:1005100044F82100052104F5D67000F0A6F9B96F62
:1005200001EBC10104EB81014860052104F5E07095
:1005300000F09BF9B96F01EBC10104EB8101886008
:10054000052104F5EA7000F090F9B96F01EBC101E3
:1005500004EB8101C860052104F5F47000F085F911
:10056000B96F01EBC10104EB81010861052104F5BC
:10057000FE7000F07AF9B96F01EBC10104EB810163
:100580004861052104F5047000F06FF9B96F01EBC3
:10059000C10104EB81018861052104F5097000F0B7
:1005A00064F9B96F01EBC10104EB8101C861052158
:1005B00004F50E7000F059F9B96F01EBC10204EBBC
:1005C00082021062042973D14146002004F5EA7EBC
:1005D0004A46D04604F509734FEA0B0500EBC00606
:1005E00054F826C04C4F04EB8606B43747F820C0B9
:1005F000D6F804C0143747F820C0D6F808C014371E
:1006000047F820C0D6F80CC04EF820C0376941F832
:100610002070776942F82070B76948F82070F76950
:1006200043F82070366A45F82060401CC0B20528A7
:10063000D4D339480521B43000F017F9384C206084
:10064000052104F5E87000F010F96060052104F55B
:10065000F27000F00AF9A060052104F5FC7000F0CA
:1006600004F9E060052104F5037000F0FEF8206154
:10067000052104F5087000F0F8F86061052104F523
:100680000D7000F0F2F8A061052104F5127000F081
:10069000ECF8E061052104F5177000F0E6F820623F
:1006A00020680021782804D320687838206001E091
:1006B0002FE021605FF0010054F820200A2A05D3C2
:1006C00054F820200A3A44F8202001E044F8201091
:1006D000401CC0B20928EFD320681F21B0FBF1F005
:1006E0002060606840096060A0684009A060E06820
:1006F0004009E0602069400920616069400960614B
:10070000A0694009A061E0694009E061206A4009F0
:100710002062BDE8F08F00003003002008000020B8
:10072000280200200D4910B5401811D04FF4806404
:10073000A04210D0B0F5C05F0FD10121CC032046FC
:1007400004F0CCF82046BDE81040002104F0C6B803
:1007500001214C02F3E70121F1E710BD00DCFEBFEF
:10076000014600208968490700D5012070470146ED
:1007700000208968090700D501207047002A4268D7
:10078000C9B201D00A4300E08A43426070470000CA
:1007900010B542680E4B0C791A400B6842EA0422ED
:1007A0001343436082680B4B1A40D1E90243234351
:1007B0004C7942EA440213438360C26A097C22F402
:1007C0007002491EC9B242EA0151C16210BD000067
:1007D000FFFEF0FFFDF7F1FF70B5072409290AD9E4
:1007E000C568A1F10A0606EB4606B440A543B3402E
:1007F0001D43C56007E0056901EB4106B440A54310
:10080000B3401D4305611F23072A09D2446B521EC2
:1008100002EB820293409C4391400C43446370BDC1
:100820000D2A09D2046BD21F02EB820293409C4333
:1008300091400C43046370BDC46A0D3A02EB82021E
:1008400093409C4391400C43C46270BD816841F069
:100850000801816070470029816802D041F4A0013D
:1008600001E021F4A00181607047F0B500234C1E27
:1008700015E00022CE1A761E0DE000EB820C50F837
:100880002250DCF80470BD4203D940F82270CCF845
:100890000450521CD2B29642EFDC5B1CDBB2A34286
:1008A000E7DB8068F0BD816841F00401816070473A
:1008B00070B5012006F0AFF8022000F04FFA164C98
:1008C0000021204600F056FA144D00212846FFF77B
:1008D00008FD11490839886820F0010088602D2042
:1008E000C860886840F0010088600121204600F05F
:1008F00041FA02212846FFF7F1FC01212846FFF7C3
:10090000F0FC01212846FFF7A6FF022000F0A8FA1C
:100910000028FAD070BD0000080002400024014009
:10092000FEE7C1B2000A40EA012070472DE9F84F06
:10093000DFF834B14BF68F7648F6BF774A4C4B4D13
:1009400040F68F7948F60F780BF1440BDFF820A1C1
:1009500032E000BF47F6FF7010600888454A10F08B
:100960000F00107032D0444901EB8001D1F8002C07
:1009700092B2009212040BD5D1F8002C02EA0902BF
:10098000C1F8002C3D4901EB800050F8040C804771
:100990000098000610D537483749007801EB8001F0
:1009A000D1F8002C02EA0802C1F8002C344901EB0E
:1009B000800050F8040C8047DBF800005A4651468E
:1009C000AAF800000004C5D4BDE8F88F2068C0F381
:1009D0000130000328802068C0F301100001688006
:1009E0002068304080F4005020602068384080F05B
:1009F000200020600888C00603D5206880B2010668
:100A000016D5206800EA0800206001F02FF920E0E8
:100A1000890401D580F4005020602068698838403E
:100A2000CA061ED4890601D580F020002060CBE7DD
:100A3000010506D5206800EA0900206005F05CFA8F
:100A400007E00004B8D5206800EA0900206003F040
:100A5000ADFE206829883040CA04D9D580F4805082
:100A6000D6E780F01000DDE7005C00409A0100202E
:100A7000A40000208801002000500040C400002095
:100A8000A8000020810008480844D0F8001C490450
:100A900008D5D0F8001C48F68F72114041F480410F
:100AA000C0F8001C7047000000500040810008485A
:100AB0000844D0F8001C490608D5D0F8001C48F6B8
:100AC0008F72114041F04001C0F8001C70470000D7
:100AD00000500040810005480844D0F8001C48F64A
:100AE0008F621140C0F8001C7047000000500040A9
:100AF000124910B50A680628117801F07F0103D168
:100B0000012901D1537913B121290AD013E090783A
:100B1000222802D0212802D00DE0094904E0094929
:100B200002E0032807D1084929B1002091615082D1
:100B30008847002010BD022010BD00008C0100205D
:100B40008D0B0008650B0008710B0008014905F0CA
:100B500093BA0000F0000020014905F08DBA0000B2
:100B6000E8000020014905F087BA000000010020DC
:100B700008B1044870470449012009680882002030
:100B800070470000E40000208C010020014905F0BE
:100B900073BA0000F800002005490968C9780429E3
:100BA00001D900207047034A02EBC10105F064BA85
:100BB0008C0100203801002009B9002800D0022053
:100BC0007047000006490968097801F07F01212972
:100BD00001D10B2801D00220704700F093B800002B
:100BE0008C01002070B53648002100688172C17206
:100BF0003449C9794172002005F048F84FF4007477
:100C00002146002005F004F91021002005F0DAF853
:100C10001821002005F062F85821002005F0B4F8F2
:100C20000020FFF757FF284890F82C10002005F00F
:100C300065F8002005F098F84FF4C06529460120BA
:100C400005F0E6F86110012005F09EF84FF482717E
:100C5000012005F043F80421012005F0A5F8042146
:100C6000012005F04BF8EE003146012005F066F852
:100C70002021012005F0A6F82946022005F0C8F839
:100C80002146022005F080F8211D022005F026F8FB
:100C90000421022005F088F80421022005F02EF836
:100CA0003146022005F04AF82021022005F08AF89A
:100CB000064901200860BDE87040002004F0EEBF46
:100CC0008C010020DC6E0008080100207C0100205F
:100CD00006480068807A002806D00549052008608B
:100CE00001210448FFF7B7BD704700008C010020C8
:100CF0007C01002000240140014904200860704765
:100D00007C010020034804490068C0780860002086
:100D1000704700008C010020E400002070477047FD
:100D200010B500F07DFF094800240068847203F0CC
:100D300091FD0748046007494FF43F40088004498B
:100D4000091F08600448046010BD00008C010020E9
:100D5000445C0040980100207C010020C10002D5C5
:100D60000249086070470249486070470404024025
:100D7000000002400029016802D041F0010101E0B9
:100D800021F0010101607047016821F0010101605B
:100D90000021016041608160C1602D4B2C49C21A65
:100DA0008039984243D018DC2A4BA0EB03029842CA
:100DB00035D00ADC284A801829D014282BD02828BE
:100DC00024D1486840F4706034E0142A2BD0282ADB
:100DD0001CD1486840F470002CE02048B2F56C7FCC
:100DE0002ED009DCB2F5627F26D0B2F5677F0DD137
:100DF000016841F0F00108E0B2F5717F24D0B2F54E
:100E0000767F03D1016841F4702101607047486822
:100E100040F00F000EE0486840F0F0000AE048683B
:100E200040F4704006E0486840F4702002E04868F2
:100E300040F0706048607047016841F00F01E4E7DE
:100E4000016841F47061E0E7016841F47041DCE75A
:100E50008000024044000240F8FFFDBF040402404D
:100E600001460020CA0001D5034A00E0034A126887
:100E70000A4200D0012070470004024000000240F6
:100E800030B5036847F6F07293430C6A8A682243D0
:100E9000D1E904452C4322438C692243CC69224387
:100EA0004C6A22438C6A22431A430260CA68426039
:100EB0000A6882604968C16030BD00002DE9F047D2
:100EC000DFF89480254F4FF03009D8F8001001F179
:100ED0001005088A0E7A08B9042E04D0AC88A04206
:100EE00015D8042614E01E480178012903D00726EE
:100EF000102038802BE01B4A002112681A4B120484
:100F000003EBD2325160A7F8009001701FE0022677
:100F1000844200D90446A9682046884782460020BA
:100F200000F070FE01462246504605F01BFB2146AC
:100F3000002004F039FF28880C49001B28806888AD
:100F400020446880A7F800904FF440500880D8F8FB
:100F500000000672BDE8F0878C0100209C01002093
:100F600084010020505C0040006000409A01002095
:100F70002DE9F047224EDFF88C803027356835F8B0
:100F8000100FA968A9B100B3AC88844200D9044607
:100F90002046884781462888001B2880688820448E
:100FA0006880002000F01EFE01462246484603F0FD
:100FB0001DFC288848B114494FF440500880002196
:100FC000084604F0F1FEA8F800702888A988884235
:100FD00001D3032001E020B1052031680872BDE88B
:100FE000F087316806200872084900200968084A1D
:100FF000090402EBD1314860A8F80070EFE7000067
:101000008C0100209C0100209A010020505C0040CF
:1010100000600040F8B55D4C5D4D09262068002752
:1010200029684278062A05D0AAB1082A4DD00A2A92
:1010300050D06BE00278520668D18078012804D045
:10104000022804D0032804D060E0C96956E0096A88
:1010500054E0496A52E04288B2BBC288022A55D1A4
:1010600002798ABB0278530601D1838833B102F03A
:101070007F02012A04D0022A0CD047E045493DE016
:101080008A69407900219047F0B92068807A002869
:10109000F4D13BE0417901F00F0001F070020B0642
:1010A0003D4901EB8001D1F8001C03D5C1F30111CA
:1010B000090102E0C1F301310903384B1B78834277
:1010C00024D90AB90029D9D120E0007840061DD1E1
:1010D000334913E0027802F07F02012A16D1827AA6
:1010E000A2B1428892B9027982B9C288012A0DD18F
:1010F0008A6940790021904740B92A4931B1206876
:101100004782816100208847002006E02968206826
:10111000096940788847032813D021680A8AA2F514
:101120007F43FF3B0BD002280ED06AB1087800063F
:1011300026D5C888009082420AD9088218E00E722B
:10114000F8BD20680672F8BD4FF008000872F8BDBF
:101150000ED22868144B90F82C00824201D21F70E6
:1011600006E0B2FBF0F400FB142008B9012018706F
:10117000286890F82C008882BDE8F840FFF79EBEF2
:1011800003200872094900030880F8BD8C01002083
:1011900090010020BD60000800500040E0000020E9
:1011A0005160000895600008840100209A01002029
:1011B000704700002DE9F0413D4CDFF8F880012137
:1011C00014F8140F207460786074A078A074E0782C
:1011D000E0742079207560796075A079A075E07958
:1011E000E075207A2076607A6076A07AA076E07A40
:1011F000E076207B2077607B6077A07BA077E07B28
:10120000E077404600F0E2FC20700221404600F00A
:10121000DDFC60701021404600F0D8FCA070202159
:10122000404600F0D3FC244EE0704FF400652946A0
:10123000304600F0CBFC20716F003946304600F09C
:10124000C5FC60710421404600F0C0FCA07108217B
:10125000404600F0BBFC194EE071A910304600F08A
:10126000B5FC20726910304600F0B0FC6072A90035
:10127000304600F0ABFCA072E900304600F0A6FC5E
:10128000E0724021404600F0A1FC207380214046DE
:1012900000F09CFC60732946304600F097FCA07378
:1012A0003946304600F092FCE073BDE8F081000062
:1012B00008000020001401400010014000200140FF
:1012C0002DE9F05F40F601040B21204605F01AFBE2
:1012D0004FF410650B21284605F014FB40F601265B
:1012E0000B21304605F00EFB0B210F02384605F0AE
:1012F00009FB40F601480B21404605F003FB4FF483
:1013000050690B21484605F0FDFA40F6016A0B21B1
:10131000504605F0F7FA4FF4706B0B21584605F074
:10132000F1FA0C21204605F0EDFA0C21284605F0D3
:10133000E9FA0C21304605F0E5FA0C21384605F0B3
:10134000E1FA0C21404605F0DDFA0C21484605F093
:10135000D9FA0C21504605F0D5FA5846BDE8F05FA1
:101360000C2105F0CFBA00002DE9F05FFFF722FF56
:10137000FE4C0E200221267D032200230125012E92
:1013800002D0AEB102D016E0677D1FB1677D012F9C
:101390001FD010E0267BFEB9257394F83D60761CC3
:1013A000F6B284F83D600E2E16D384F83D0013E0AB
:1013B000677D012F03D0677D3E430CD00CE0267B78
:1013C00056B9217394F83D6036B1761E84F83D60BD
:1013D00002E0227300E02373A67D012E02D0AEB19D
:1013E00002D016E0E77D1FB1E77D012F1FD010E08E
:1013F000667BFEB9657394F83E60761CF6B284F89D
:101400003E600E2E16D384F83E0013E0E77D012FD8
:1014100003D0E77D3E430CD00CE0667B56B9617388
:1014200094F83E6036B1761E84F83E6002E0627346
:1014300000E06373267E012E02D0AEB102D016E02A
:10144000677E1FB1677E012F1FD010E0A67BFEB91B
:10145000A57394F83F60761CF6B284F83F600E2EB8
:1014600016D384F83F0013E0677E012F03D0677E18
:101470003E430CD00CE0A67B56B9A17394F83F60B4
:1014800036B1761E84F83F6002E0A27300E0A373D9
:10149000A67E012E02D0AEB102D016E0E77E1FB1CB
:1014A000E77E012F1FD010E0E67BFEB9E57394F8CC
:1014B0004060761CF6B284F840600E2E16D384F895
:1014C000400013E0E77E012F03D0E77E3E430CD0BF
:1014D0000CE0E67B56B9E17394F8406036B1761EB5
:1014E00084F8406002E0E27300E0E373267F012E9F
:1014F00002D0AEB102D016E0677F1FB1677F012F27
:101500001FD010E0267CFEB9257494F84160761C4B
:10151000F6B284F841600E2E16D384F8410013E031
:10152000677F012F03D0677F3E430CD00CE0267C01
:1015300056B9217494F8416036B1761E84F8416042
:1015400002E0227400E02374A67F012E02D0AEB127
:1015500002D016E0E77F1FB1E77F012F1FD010E018
:10156000667CFEB9657494F84260761CF6B284F825
:1015700042600E2E16D384F8420013E0E77F012F5D
:1015800003D0E77F3E430CD00CE0667C56B9617413
:1015900094F8426036B1761E84F8426002E06274CC
:1015A00000E0637494F82060012E02D0BEB103D035
:1015B00019E094F8217027B194F82170012F21D0FF
:1015C00011E0A67CFEB9A57494F84360761CF6B2CF
:1015D00084F843600E2E18D384F8430015E094F885
:1015E0002170012F04D094F821703E430CD00CE000
:1015F000A67C46B9A17494F8436026B1761E84F89F
:10160000436002E0A27400E0A37494F82260012E0B
:1016100002D0C6B103D01AE094F8231021B194F897
:101620002300012820D012E0E17C01BBE57494F88E
:101630004410491CC9B284F844100E2917D300BFC6
:1016400084F8440013E094F82300012804D094F8AF
:10165000230006430AD00AE0E07C40B9E17494F824
:10166000440020B1401EEBE7E27400E0E37414F89C
:10167000350F4FF41069207461786174A178A174FA
:10168000E178E1742179217561796175A179A1759C
:10169000E179E175217A2170627A6270A27AA27092
:1016A000E27AE270227B2271627B6271A27BA2717C
:1016B000E27BE271353C4FF4006688421ED0312057
:1016C00003F06CF994F8350008280AD205FA00F006
:1016D000C0B240F400600B2105F014F90B2148461C
:1016E0000AE0083805FA00F0C0B240F410600B219F
:1016F00005F008F90B21304605F004F994F846008E
:1017000094F836104FF4506A4FF4406B88421ED064
:10171000322003F043F994F8360008280AD205FA7B
:1017200000F0C0B240F440600B2105F0EBF80B2153
:1017300050460AE0083805FA00F0C0B240F45060A4
:101740000B2105F0DFF80B21584605F0DBF894F883
:10175000470094F837104FF43067884222D0332086
:1017600003F01CF994F83700082801E00800002075
:101770000AD205FA00F0C0B240F420600B2105F057
:10178000C1F80B2138460BE0083805FA00F0C0B26A
:1017900040F430600B2105F0B5F80B214FF42060C8
:1017A00005F0B0F894F8480094F838104FF47068D9
:1017B00088421FD0342003F0F1F894F8380008284C
:1017C0000AD205FA00F0C0B240F460600B2105F0C7
:1017D00099F80B2140460BE0083805FA00F0C0B23A
:1017E00040F470600B2105F08DF80B214FF4606020
:1017F00005F088F894F8490094F8391088421ED012
:10180000352003F0CBF894F8390008280AD205FAFD
:1018100000F0C0B240F400600C2105F073F80C2118
:1018200048460AE0083805FA00F0C0B240F41060FB
:101830000C2105F067F80C21304605F063F894F8A8
:101840004A0094F83A1088421ED0362003F0A6F8D9
:1018500094F83A0008280AD205FA00F0C0B240F421
:1018600040600C2105F04EF80C2150460AE0083883
:1018700005FA00F0C0B240F450600C2105F042F8C7
:101880000C21584605F03EF894F84B0094F83B10B4
:1018900088421FD0372003F081F894F83B000828D5
:1018A0000AD205FA00F0C0B240F420600C2105F025
:1018B00029F80C2138460BE0083805FA00F0C0B2D0
:1018C00040F430600C2105F01DF80C214FF420602D
:1018D00005F018F894F84C0094F83C1088421FD09A
:1018E000382003F05BF894F83C00082809D28540C2
:1018F000E8B240F460600C2105F004F80C21404689
:101900000AE008388540E8B240F470600C2104F029
:10191000F9FF0C214FF46060BDE8F05F04F0F2BF06
:10192000BDE8F09F10B504224FF48271044802F024
:101930005DFFBDE810404FF44051012004F0FEB9B6
:101940000400002001490320086070477C0100204A
:101950002DE9F84F012140F2FD1002F0B3FF012103
:10196000574800F00FF94FF0FF08ADF80080002451
:101970008DF803406946534800F0B2F80120ADF8F5
:101980000000514E8DF803406946304600F0A8F83B
:101990004FF47040ADF800004FF048098DF8039007
:1019A0006946304600F09CF87820ADF8000002252A
:1019B0008DF8025010248DF803406946304600F03F
:1019C0008FF87821304600F008F94FF4C050ADF898
:1019D0000000DFF8F8A004268DF803606946504641
:1019E00000F07EF8A701ADF800708DF8034069465D
:1019F000504600F075F83946504600F0EEF8ADF864
:101A00000080DFF8CC808DF803606946404600F026
:101A100067F8E002ADF800008DF8034069464046E3
:101A200000F05EF83946504600F0D9F84FF4FF4711
:101A3000ADF80070DFF89C808DF802508DF80340FF
:101A40006946404600F04CF83946404600F0C5F87B
:101A5000A002ADF80000DFF880808DF803906946A1
:101A6000404600F03DF84FF42047ADF800708DF887
:101A700002508DF803406946404600F031F839467F
:101A8000404600F0AAF84FF4FC40ADF800008DF895
:101A90000360124E6946304600F022F80320ADF88C
:101AA00000008DF802508DF803406946304600F082
:101AB00017F80321304600F090F8BDE8F88F0000D9
:101AC0000002300000080140000C014000100140FD
:101AD0000014014000180140001C0140002001409A
:101AE000F0B5CA78002502F00F03D20601D58A7836
:101AF00013430A784FF00F0E12F0FF0F4FF0010260
:101B00001CD004680F8802FA05F63740B74211D19D
:101B10004FEA850C0EFA0CF724EA070703FA0CF4D7
:101B20003C43CF78282F02D0482F02D002E04661F4
:101B300000E006616D1C082DE4D304600C88FF2CC6
:101B40001ED944685FF0000606F1080702FA07F59F
:101B50000F882F40AF420FD14FEA860C0EFA0CF7D8
:101B6000BC4303FA0CF73C43CF78282F00D14561E2
:101B7000CF78482F00D10561761C082EE4D344604D
:101B8000F0BD0000F0B5104D6A68440D260184B226
:101B9000C0F30157B440C0F30343032F05D0C00284
:101BA0000AD503209840824307E0686822F07063FA
:101BB00020F07060686002E0A24342F0706301B1FF
:101BC00023436B60F0BD000000000140024600208E
:101BD00092680A4200D0012070474161704701615C
:101BE000704700000549096889B201EBC00004494B
:101BF00001EB4000008980B270470000505C00405B
:101C0000006000400449096889B201EBC000034943
:101C100031F8100080B27047505C00400060004016
:101C20000F4810B50168001D0368001D00290268F7
:101C300015D00C480C0A817004710C0C8471090ECB
:101C400001728372190A0173190C8173190E0174E0
:101C50008274110A0175110C8175110E017610BD87
:101C6000E8F7FF1F88000020FEE7000010B5134CC6
:101C70002068017A022904D0042902D0062905D05F
:101C800015E0FFF71BF92068007A11E0417805297B
:101C900009D10178490606D1C07803F0FFFF084852
:101CA0000068006A8047074800688068804708200D
:101CB00021680872BDE8104002F0AABD8C01002026
:101CC000940100209001002070B5224D00200646AE
:101CD0006870082E1CD2DFE806F004070A0D101306
:101CE00016194FF4006413E04FF4106410E04FF441
:101CF00020640DE04FF430640AE04FF4406407E0E4
:101D00004FF4506404E04FF4606401E04FF47064F9
:101D1000697844EA0100022104F0F4FD697844EA9C
:101D20000100042104F0EEFD697844EA0100062177
:101D300004F0E8FD697844EA0100082104F0E2FDBE
:101D400068780A21204304F0DDFD761CF6B2082EE7
:101D5000BFD370BD0800002010B5012004F09CFC2A
:101D60002E4CA070032004F097FCE070052004F0D6
:101D700093FC2071072004F08FFC6071092004F0AF
:101D80008BFCA07194F8531084F85410A2780221AF
:101D9000AAB1E278F2B122793AB3627982B300282B
:101DA0003AD1A17109203B3404F046FDE0770146A9
:101DB00020760920A076BDE8104002F013BEA17085
:101DC0000120373404F038FDE07701462077012008
:101DD000A077F0E7E1700320383404F02DFDE077C0
:101DE0000146E07603206077E5E72171052039346C
:101DF00004F022FDE0770146A07605202077DAE79F
:101E0000FFE7617107203A3404F016FDE0770146E0
:101E100060760720E076CEE710BD000008000020C5
:101E20002DE9F04F00260627052503220223012471
:101E3000FC494FF020094FF01F0A4FF01E0B4FF0E6
:101E40001D0E4FF0070C402875D2DFE800F0202768
:101E50002E353C434A51585F666D7580878E959C40
:101E6000A3AAB1B8BFEFF6FDEBEAE9E8E7E6E5E4DF
:101E7000E3E2E1E0DFDEDDDCDBDAD9D8D7D6D5D4AA
:101E8000D3D2D1D0CFCECDCCCBCAC9C8C7C691F89A
:101E9000600081F8610081F86040EBE191F860003A
:101EA00081F8610081F86040EFE191F8600081F80D
:101EB000610081F86040F3E191F8600081F8610011
:101EC00081F86040F7E191F8600081F8610081F8E5
:101ED000604037E091F8600081F8610081F860406F
:101EE000FBE191F8600081F8610081F86040FFE15A
:101EF00091F8600081F8610081F8604003E291F898
:101F0000600081F8610081F86030B3E191F8600011
:101F100081F8610081F86030B7E191F8600081F8E4
:101F2000610081F86030BBE191F8600081F86100E8
:101F300081F86030BFE13BE191F8600081F8610019
:101F400081F8603011F85C0FC87004202FE191F81F
:101F5000600081F8610081F86030BEE191F86000B6
:101F600081F8610081F86030C2E191F8600081F889
:101F7000610081F86030C6E191F8600081F861008D
:101F800081F8603097E091F8600081F8610081F895
:101F900060309BE091F8600081F8610081F860306A
:101FA0009FE091F8600081F8610081F86030A3E063
:101FB00091F8600081F8610081F86030A7E091F845
:101FC000600081F8610081F86030ABE091F860005A
:101FD00081F8610081F86030AFE08EE182E176E166
:101FE0006EE162E156E14AE13EE135E12CE123E1B7
:101FF0001AE10FE106E1FDE0F4E0EBE0E2E0D9E018
:10200000CBE0C2E0B9E0B0E0A7E09BE08FE083E086
:1020100077E06BE05FE053E047E03FE037E02FE040
:1020200027E01FE017E00FE007E0FFE791F860000E
:1020300081F8610081F860308AE091F8600081F8F1
:10204000610081F8602015E191F8600081F861007D
:1020500081F8602019E191F8600081F8610081F851
:1020600060201DE191F8600081F8610081F8602036
:1020700021E191F8600081F8610081F8602061E75A
:1020800091F8600081F8610081F8602025E191F805
:10209000600081F8610081F8602029E191F860001A
:1020A00081F8610081F860202DE191F8600081F8ED
:1020B000610081F8602011F85C0FC870192076E08B
:1020C00091F8600081F8610081F8602011F85C0FE0
:1020D000C8701A206BE091F8600081F8610081F807
:1020E000602011F85C0FC8701B2060E091F8600060
:1020F00081F8610081F8602011F85C0FC8701C2025
:1021000055E091F8600081F8610081F8602011F8D5
:102110005C0FC87070464AE091F8600081F8610079
:1021200081F8602011F85C0FC87058463FE091F8C4
:10213000600081F8610081F8602011F85C0FC870C0
:10214000504634E091F8600081F8610081F8602029
:1021500011F85C0FC870484629E091F8600081F8DA
:102160006100042081F8600084E091F8600081F84B
:102170006100042081F8600087E091F8600081F838
:102180006100042081F860008AE091F8600081F825
:102190006100042081F860008DE091F8600081F812
:1021A0006100042081F8600011F85C2FCA7008708B
:1021B000BDE8F08F91F8600081F86100042081F89B
:1021C00060008AE091F8600081F86100042081F8E5
:1021D00060008DE091F8600081F86100042081F8D2
:1021E000600090E091F8600081F86100042081F8BF
:1021F000600060E791F8600081F86100042081F8D8
:10220000600063E791F8600081F86100042081F8C4
:10221000600066E791F8600081F86100042081F8B1
:10222000600069E70800002091F8600081F8610013
:10223000042081F860006AE791F8600081F861008D
:10224000042081F860006DE791F8600081F861007A
:10225000042081F8600070E791F8600081F8610067
:10226000042081F8600073E791F8600081F8610054
:1022700081F8605011F85C0FC8700E7098E791F803
:10228000600081F8610081F8605011F85C0FC8703F
:102290000C708DE791F8600081F8610081F8605062
:1022A00011F85C0FC8700B7082E791F8600081F83C
:1022B000610081F8605011F85C0FC8700A7077E710
:1022C00091F8600081F8610081F860503AE691F879
:1022D000600081F8610081F8605011F85C0FC870EF
:1022E0000D7065E791F8600081F8610081F8605039
:1022F00011F85C0FC8700F705AE791F8600081F810
:10230000610081F8605011F85C0FC87081F800C05E
:102310004EE700002DE9F04F0B2706220523042489
:1023200003264FF0250A4FF0240B4FF0230E4FF0F9
:102330000A0902254FF0010CFC49402877D2DFE85A
:1023400000F020272E353C434A55606B77828994F4
:102350009BA8B3BAC1F5FCF2F1F0EFEEEDECEBEABD
:10236000E9E8E7E6E5E4E3E2E1E0DFDEDDDCDBDA55
:10237000D9D8D7D6D5D4D3D2D1D0CFCECDCCCBCA45
:10238000C9C891F8600081F8610081F860C03EE042
:1023900091F8600081F8610081F860C042E091F836
:1023A000600081F8610081F860C047E091F860004A
:1023B00081F8610081F860C015E291F8600081F851
:1023C000610081F860C04BE091F8600081F8610025
:1023D00081F8603010E091F8600081F8610081F8C8
:1023E000602011F85C0FC870002024E291F86000B2
:1023F00081F8610081F8602011F85C0FC870192025
:1024000019E291F8600081F8610081F8605011F8DC
:102410005C0FC87008200EE291F8600081F861003E
:1024200081F8605011F85C0FC870092003E22EE0BB
:1024300091F8600081F8610081F8605011F85C0F3C
:10244000C8704846F7E191F8600081F8610081F8B2
:102450006050C8E191F8600081F8610081F8605037
:1024600011F85C0FC8700C20E5E191F8600081F86C
:10247000610081F8603012E091F8600081F861003D
:1024800081F8602011F85C0FC87081F800C0BDE8C9
:10249000F08F91F8600081F8610081F8602011F8F8
:1024A0005C0FC8701A20C6E191F8600081F86100E5
:1024B00081F86050ABE091F8600081F8610081F82C
:1024C0006050AFE091F8600081F8610081F86050E1
:1024D000B3E0A6E19AE192E18AE17EE176E16EE184
:1024E00066E15AE14EE146E13EE136E12EE126E1C8
:1024F0001EE10FE103E1FBE0F3E0EBE0E3E0DBE012
:10250000D3E0C7E0BBE0B3E0A7E09BE08FE083E06F
:1025100077E06BE05FE057E04FE047E03FE037E017
:102520002FE023E017E00FE007E0FFE791F86000FD
:1025300081F8610081F860508AE091F8600081F8CC
:10254000610081F860508EE091F8600081F86100D0
:1025500081F8603010E091F8600081F8610081F846
:10256000602011F85C0FC8700D7090E791F8600062
:1025700081F8610081F8602011F85C0FC8701B20A1
:1025800059E191F8600081F8610081F860603EE7F0
:1025900091F8600081F8610081F8606042E791F88D
:1025A000600081F8610081F8606047E791F86000A1
:1025B00081F8610081F8606015E191F8600081F8B0
:1025C000610081F860604BE791F8600081F861007C
:1025D00081F8603010E091F8600081F8610081F8C6
:1025E000602011F85C0FC8700E7050E791F8600021
:1025F00081F8610081F8602011F85C0FC8701C2020
:1026000019E191F8600081F8610081F8606011F8CB
:102610005C0FC87021200EE191F8600081F8610024
:1026200081F8606011F85C0FC870222003E191F816
:10263000600081F8610081F8606011F85C0FC8707B
:102640007046F8E091F8600081F8610081F8606000
:1026500011F85C0FC8705846EDE091F8600081F801
:10266000610081F8606011F85C0FC8705046E2E0CC
:1026700091F8600081F8610081F8603010E091F815
:10268000600081F8610081F8602011F85C0FC8706B
:102690000C70FCE691F8600081F8610081F8602020
:1026A00011F85C0FC8701D20C5E091F8600081F83A
:1026B000610081F86040AAE691F8600081F861004D
:1026C00081F86040AEE691F8600081F8610081F821
:1026D0006040B3E691F8600081F8610081F86040E5
:1026E00081E091F8600081F8610081F86040B7E610
:1026F00091F8600081F8610081F8603010E091F895
:10270000600081F8610081F8602011F85C0FC870EA
:102710000B70BCE691F8600081F8610081F86020E0
:1027200011F85C0FC8701E2085E000000800002032
:1027300091F8600081F8610081F8604067E791F8E6
:10274000600081F8610081F860406BE791F86000FB
:1027500081F8610081F860406FE791F8600081F8CE
:10276000610081F8604073E791F8600081F86100D2
:1027700081F8604077E791F8600081F8610081F8A6
:10278000603010E091F8600081F8610081F860200D
:1027900011F85C0FC8700A7079E691F8600081F852
:1027A000610081F8602011F85C0FC8701F2042E0C2
:1027B00091F8600081F8610081F8603027E691F8B7
:1027C000600081F8610081F860302BE691F86000CC
:1027D00081F8610081F8603030E691F8600081F89E
:1027E000610081F8603011F85C0FC8700F704EE620
:1027F00091F8600081F8610081F8603030E691F86E
:10280000600081F8610081F8603010E091F86000AC
:1028100081F8610081F8602011F85C0FC870072012
:1028200009E091F8600081F8610081F8602011F8FA
:102830005C0FC8702020087029E600002DE9F04FD9
:10284000112706260525042203230224FF494FF001
:102850002A0E4FF010094FF00F0A4FF00E0B4FF0F9
:10286000010C40286FD2DFE800F0202732394047C2
:102870004E555C636F7A85909BA2ADB4BFF2F9EFC1
:10288000EEEDECEBEAE9E8E7E6E5E4E3E2E1E0DFE0
:10289000DEDDDCDBDAD9D8D7D6D5D4D3D2D1D0CFD0
:1028A000CECDCC6ECBCAC9C8C7C691F8600081F83E
:1028B000610081F8605092E091F8600081F8610059
:1028C00081F8606011F85C0FC8700B20FFE191F88F
:1028D000600081F8610081F860C03BE091F8600021
:1028E00081F8610081F860C03FE091F8600081F8F4
:1028F000610081F860C043E091F8600081F86100F8
:1029000081F860C047E091F8600081F8610081F8CB
:1029100060C001E291F8600081F8610081F860C058
:102920004BE091F8600081F8610081F86050BEE0F2
:1029300091F8600081F8610081F8606011F85C0F27
:10294000C8700C20C3E1C3E191F8600081F8610018
:1029500081F8604011F85C0FC8700D20B7E191F864
:10296000600081F8610081F8604011F85C0FC87068
:102970005846ACE191F8600081F8610081F8604050
:1029800011F85C0FC8705046A1E191F8600081F821
:10299000610081F8604011F85C0FC870484696E10C
:1029A00091F8600081F8610081F86040B4E191F82D
:1029B000600081F8610081F8604011F85C0FC87018
:1029C000122084E191F8600081F8610081F8605084
:1029D000A9E091F8600081F8610081F8606011F869
:1029E0005C0FC870212072E191F8600081F86100ED
:1029F00081F86040A2E094E188E180E178E170E153
:102A000068E15AE152E14AE142E13AE132E12AE188
:102A10001EE10FE107E1FFE0F7E0EFE0E7E0DFE0D4
:102A2000D3E0C7E0BBE0AFE0A3E097E08BE07FE05E
:102A300073E06BE063E05BE053E04BE043E03BE0DE
:102A40002FE027E01FE017E00FE007E0FFE791F835
:102A5000600081F8610081F860407AE091F86000E0
:102A600081F8610081F860407EE091F8600081F8B3
:102A7000610081F8604082E091F8600081F86100B7
:102A800081F8604086E091F8600081F8610081F88B
:102A900060408AE091F8600081F8610081F8605040
:102AA00099E091F8600081F8610081F8606011F8A8
:102AB0005C0FC87022200AE191F8600081F8610083
:102AC00081F8603046E791F8600081F8610081F894
:102AD00060304AE791F8600081F8610081F8603069
:102AE0004EE791F8600081F8610081F8603052E7AC
:102AF00091F8600081F8610081F860300CE191F894
:102B0000600081F8610081F8603056E791F860005C
:102B100081F8610081F86050A0E091F8600081F8D0
:102B2000610081F8606011F85C0FC8702320CEE06E
:102B300091F8600081F8610081F8603011F85C0F55
:102B4000C8702620C3E091F8600081F8610081F828
:102B5000603011F85C0FC8702720B8E091F8600071
:102B600081F8610081F8603011F85C0FC87028208E
:102B7000ADE091F8600081F8610081F8603011F8F3
:102B80005C0FC8702920A2E091F8600081F8610014
:102B900081F8603011F85C0FC870704697E091F8CA
:102BA000600081F8610081F8603011F85C0FC87036
:102BB0002B208CE091F8600081F8610081F8606062
:102BC00011F85C0FC870082081E091F8600081F86E
:102BD000610081F8606011F85C0FC870242076E015
:102BE00091F8600081F8610081F86020B2E691F808
:102BF000600081F8610081F86020B6E691F860001D
:102C000081F8610081F86020BAE691F8600081F8EF
:102C1000610081F86020BEE691F8600081F86100F3
:102C200081F8602078E091F8600081F8610081F817
:102C30006020C2E691F8600081F8610081F8606070
:102C400011F85C0FC870092041E000000800002066
:102C500091F8600081F8610081F8606011F85C0F04
:102C6000C870252033E091F8600081F8610081F898
:102C7000602063E791F8600081F8610081F86020CE
:102C800067E791F8600081F8610081F860206BE7E8
:102C900091F8600081F8610081F860206FE791F899
:102CA000600081F8610081F8602073E791F86000AE
:102CB00081F8610081F8602077E791F8600081F881
:102CC000610081F8606011F85C0FC8700A2008701C
:102CD000BDE8F08F91F8600081F8610081F86050E4
:102CE00038E691F8600081F8610081F860503CE6B8
:102CF00091F8600081F8610081F8605040E691F839
:102D0000600081F8610081F8605044E691F860004D
:102D100081F8610081F8605011F85C0FC8700F7085
:102D2000D6E791F8600081F8610081F8605044E6D0
:102D30002DE9F04F17270626052204230324022538
:102D4000FC494FF016094FF0150A4FF0140B4FF0E5
:102D5000130E4FF0010C40286FD2DFE800F020275F
:102D60002E353C434A5158636F7A858C97A2ADB497
:102D7000BBEFF6FDEBEAE9E8E7E6E5E4E3E2E1E0F4
:102D8000DFDEDDDCDBDAD9D8D7D6D5D4D3D2D1D0CB
:102D9000CFCECDCCCBCAC9C8C7C6C5C4C3C291F8B3
:102DA000600081F8610081F860C036E091F8600051
:102DB00081F8610081F860C03AE091F8600081F824
:102DC000610081F860C03FE091F8600081F8610027
:102DD00081F860C043E091F8600081F8610081F8FB
:102DE00060C00BE291F8600081F8610081F860C07A
:102DF00047E091F8600081F8610081F86020B8E058
:102E000091F8600081F8610081F86020BCE091F8E1
:102E1000600081F8610081F8605011F85C0FC870A3
:102E200070460DE291F8600081F8610081F8605011
:102E300011F85C0FC870584602E2E3E191F86000B7
:102E400081F8610081F8605011F85C0FC87050463D
:102E5000F6E191F8600081F8610081F8605011F8A6
:102E60005C0FC8704846EBE191F8600081F86100A2
:102E700081F86050C2E191F8600081F8610081F84A
:102E8000605011F85C0FC8701820D9E191F860000B
:102E900081F8610081F8606011F85C0FC8700D2046
:102EA000CEE191F8600081F8610081F8606011F86E
:102EB0005C0FC8700E20C3E191F8600081F86100DA
:102EC00081F86050A3E091F8600081F8610081F81A
:102ED0006050A7E091F8600081F8610081F86050CF
:102EE000ABE0A3E197E18FE182E17AE172E16AE18F
:102EF00062E156E14AE142E13AE132E12AE122E1CE
:102F00001AE10BE1FFE0F7E0EFE0E7E0DFE0D7E018
:102F1000CFE0C3E0B7E0ABE09FE093E087E07BE089
:102F20006FE067E05FE057E04FE047E03FE037E009
:102F30002FE023E017E00FE007E0FFE791F86000E3
:102F400081F8610081F8605082E091F8600081F8BA
:102F5000610081F8605086E091F8600081F86100BE
:102F600081F860508AE091F8600081F8610081F892
:102F7000606011F85C0FC870262061E191F8600074
:102F800081F8610081F8606011F85C0FC87027203B
:102F900056E191F8600081F8610081F860403CE7FB
:102FA00091F8600081F8610081F8604040E791F895
:102FB000600081F8610081F8604045E791F86000A9
:102FC00081F8610081F8604049E791F8600081F87C
:102FD000610081F8604011E191F8600081F86100C2
:102FE00081F860404DE791F8600081F8610081F858
:102FF00060208EE091F8600081F8610081F8602027
:1030000092E091F8600081F8610081F8604011F869
:103010005C0FC8702C2013E191F8600081F861000A
:1030200081F8604011F85C0FC8702D2008E191F81C
:10303000600081F8610081F8604011F85C0FC87091
:103040002E20FDE091F8600081F8610081F8604079
:1030500011F85C0FC8702F20F2E091F8600081F841
:10306000610081F8604011F85C0FC8703020E7E023
:1030700091F8600081F8610081F8604011F85C0F00
:10308000C8703120DCE091F8600081F8610081F8BF
:10309000606011F85C0FC8700F20D1E091F86000FB
:1030A00081F8610081F8606011F85C0FC870102031
:1030B000C6E091F8600081F8610081F86030ACE60C
:1030C00091F8600081F8610081F86030B0E691F815
:1030D000600081F8610081F86030B5E691F8600029
:1030E00081F8610081F86030B9E691F8600081F8FC
:1030F000610081F8603081E091F8600081F8610042
:1031000081F86030BDE691F8600081F8610081F8D7
:10311000606011F85C0FC870282091E091F86000A1
:1031200081F8610081F8606011F85C0FC870292097
:1031300086E000000800002091F8600081F861003E
:1031400081F8603063E791F8600081F8610081F8F0
:10315000603067E791F8600081F8610081F86030C5
:103160006BE791F8600081F8610081F860306FE7EB
:1031700091F8600081F8610081F8603073E791F8A0
:10318000600081F8610081F8603077E791F86000B5
:1031900081F8610081F8602011F85C0FC8702A2066
:1031A0004EE091F8600081F8610081F8602011F82C
:1031B0005C0FC8702B2043E091F8600081F861003B
:1031C00081F8602029E691F8600081F8610081F8BB
:1031D00060202DE691F8600081F8610081F86020A0
:1031E00032E691F8600081F8610081F8602036E6EF
:1031F00091F8600081F8610081F8602011F85C0F9F
:10320000C8700F70BDE8F08F91F8600081F8610020
:1032100081F8602035E691F8600081F8610081F85E
:10322000606011F85C0FC870112009E091F860002F
:1032300081F8610081F8606011F85C0FC87012209D
:103240000870DFE72DE9F04F30252D262C270822C6
:103250000524FC4906234FF0310C4FF015094FF0BF
:10326000140A4FF0130B4FF02E0E3E2876D2DFE8F3
:1032700000F01F262D343F4A8080555C636A7682B9
:1032800080808D98A3AEB9C48080CFEFF6FDEBEAC5
:103290008080E9E880E7E6E58080E4E380E2E1E041
:1032A0008080DFDE80DDDCDB8080DAD980D8D7D695
:1032B00091F8600081F8610081F860406CE091F85D
:1032C000600081F8610081F8604070E091F8600072
:1032D00081F8610081F8604074E091F8600081F845
:1032E000610081F8602011F85C0FC8700020B5E122
:1032F00091F8600081F8610081F8602011F85C0F9E
:10330000C8700120AAE191F8600081F8610081F89D
:10331000602011F85C0FC87002209FE191F86000F6
:1033200081F8610081F860305AE191F8600081F81D
:10333000610081F860300AE191F8600081F8610075
:1033400081F860300EE191F8600081F8610081F849
:10335000602011F85C0FC87004207FE109E091F84B
:10336000600081F8610081F8602011F85C0FC8707E
:103370000C70BDE8F08F91F8600081F8610081F871
:10338000602011F85C0FC8700B70F2E791F86000D4
:1033900081F8610081F8603011F85C0FC8700F701F
:1033A000E7E791F8600081F8610081F8603011F87A
:1033B0005C0FC8700E70DCE791F8600081F8610066
:1033C00081F8603011F85C0FC870704646E191F8E2
:1033D000600081F8610081F8602011F85C0FC8700E
:1033E0000A70C6E791F8600081F8610081F86020FA
:1033F00011F85C0FC870092030E191F8600081F885
:10340000610081F8602011F85C0FC8700A2025E186
:1034100091F8600081F8610081F86040BFE013E13D
:1034200004E1F8E0ECE0E0E0D4E0C8E0BCE0B0E0CB
:10343000A4E09CE090E084E077E06BE05FE053E0A4
:1034400047E03BE033E027E01BE00FE007E0FFE769
:1034500091F8600081F8610081F8604060E091F8C7
:10346000600081F8610081F8604064E091F86000DC
:1034700081F8610081F8602011F85C0FC8700C20A1
:10348000ECE091F8600081F8610081F8602011F8AB
:103490005C0FC8700D20E1E091F8600081F86100D8
:1034A00081F8602011F85C0FC8700E20D6E091F80A
:1034B000600081F8610081F86030CBE091F8600035
:1034C00081F8610081F8603011F85C0FC870182035
:1034D000C4E091F8600081F8610081F8602011F883
:1034E0005C0FC8701020B9E091F8600081F86100AD
:1034F00081F8602011F85C0FC8701120AEE091F8DF
:10350000600081F8610081F8602011F85C0FC870DC
:103510001220A3E091F8600081F8610081F860302A
:1035200011F85C0FC8700D7023E791F8600081F806
:10353000610081F8603011F85C0FC87081F800C03C
:1035400017E791F8600081F8610081F8602011F8B8
:103550005C0FC870504681E091F8600081F861000E
:1035600081F8602011F85C0FC870484676E091F849
:10357000600081F8610081F8602005E091F860004A
:1035800081F8610081F8603011F85C0FC870162076
:1035900064E091F8600081F8610081F8603011F812
:1035A0005C0FC8702F2059E091F8600081F861002D
:1035B00081F8602011F85C0FC87003204EE091F88C
:1035C000600081F8610081F8602011F85C0FC8701C
:1035D0000B2043E091F8600081F8610081F86020E1
:1035E00011F85C0FC870584638E091F8600081F817
:1035F000610081F8603011F85C0FC8702A202DE05E
:1036000091F8600081F8610081F8603011F85C0F7A
:10361000C8702B2022E091F8600081F8610081F8E9
:10362000602011F85C0FC870072017E091F8600067
:1036300081F8610081F8602011F85C0FC8700F20DC
:103640000CE000000800002091F8600081F86100A3
:1036500081F8602011F85C0FC8701720087088E6A8
:103660002DE9F04FDFF8FC8B0123A8F12A02022498
:1036700004250826102702F11C014FF0200C4FF002
:1036800040094FF0800A4FF0030B00287AD0012840
:1036900070D002286FD003286ED004286DD0052882
:1036A0006CD006286BD007286AD04FF0050E08288A
:1036B00067D009287DD00A287CD00B287BD00C2825
:1036C0007AD04FF0070B0D2877D00E2876D00F2830
:1036D00075D0102874D0112873D0122872D01328F6
:1036E00071D0142870D015286FD016286ED01728E6
:1036F0006DD018286CD1DE4688F800B04FF4506BBE
:10370000A2F800B00B7088F801E0A2F802B04C708B
:1037100088F802E0A2F804B08D7088F803E0A2F8FF
:1037200006B0CE7088F804E0A2F808B00F7188F8EF
:1037300005E0A2F80AB081F805C088F806E0A2F812
:103740000CB081F8069088F807E0A2F80EB081F876
:1037500007A0092088F808004FF4206313820E7236
:1037600088F80900030253824F7288F80A00938296
:10377000DAE207E04DE080E0BDE0F3E028E161E15E
:103780009DE1D5E188F800304FF4006010800B70A7
:1037900088F8013050804C7088F8023090808D702D
:1037A00088F80330D080CE7088F8043010810F7113
:1037B0000FE0FDE13BE27AE2B9E2F7E22AE366E3F9
:1037C00099E3D1E3FEE3FEE3FEE3FEE3FEE3FEE383
:1037D00073E188F80530508181F805C088F806301B
:1037E000908181F8069088F80730D08181F807A091
:1037F00088F808B04FF4506414820B7288F809B04E
:103800004FF4606454824B7288F80AB04FF47060D1
:103810008BE188F800304FF4106010800B7088F84E
:10382000013050804C7088F8023090808D7088F89C
:103830000330D080CE7088F8043010810F7188F882
:103840000530508181F805C088F80630908181F8F4
:10385000069088F80730D08181F807A088F808B072
:103860004FF4506313820C7288F809B04FF4606310
:1038700053824C7288F80AB01BE188F800304FF48C
:10388000206EA2F800E00B7088F80130A2F802E088
:103890004C7088F80230A2F804E08D7088F803308C
:1038A000A2F806E0CE7088F80430A2F808E00F71A4
:1038B00088F80530A2F80AE081F805C088F80630DB
:1038C000A2F80CE081F8069088F80730A2F80EE024
:1038D00081F807A088F808B04FF4506313820D7286
:1038E00088F809B04FF4606353824D7288F80AB0CB
:1038F0004FF4706059E188F800304FF43060108068
:103900000B7088F8013050804C7088F8023090803D
:103910008D7088F80330D080CE7088F80430108124
:103920000F7188F80530508181F805C088F806309D
:10393000908181F8069088F80730D08181F807A03F
:1039400088F808B04FF4506313820E7288F809B0FB
:103950004FF4606353824E7288F80AB04FF470607F
:10396000908262E188F800304FF4406010800B7064
:1039700088F8013050804C7088F8023090808D704B
:1039800088F80330D080CE7088F8043010810F7131
:1039900088F80530508181F805C088F8063090819C
:1039A00081F8069088F80730D08181F807A088F860
:1039B00008B04FF4506313820F7288F809B04FF4C7
:1039C000606353824F7288F80AB04FF470606BE105
:1039D000404688F800304FF45068A2F800800B7021
:1039E0004370A2F802804C708370A2F804808D703E
:1039F000C370A2F80680CE700371A2F808800F7120
:103A00004371A2F80A8081F805C08371A2F80C8086
:103A100081F80690C371A2F80E8081F807A080F8A3
:103A200008B0A2F8108081F808C080F809B04FF4FF
:103A30006064548281F809C080F80AB04FF4706065
:103A4000908271E1404688F800304FF46068A2F837
:103A500000800B704370A2F802804C708370A2F853
:103A600004808D70C370A2F80680CE700371A2F836
:103A700008800F714371A2F80A8081F805C0837134
:103A8000A2F80C8081F80690C371A2F80E8081F82C
:103A900007A080F808B04FF45065158281F80890AF
:103AA00080F809B0A2F8128081F809904C4680F89D
:103AB0000AB04FF4706090828C72BDE8F08F88F885
:103AC00000304FF4706010800B7088F80130508027
:103AD0004C7088F8023090808D7088F80330D08068
:103AE000CE7088F8043010810F7188F8053050814D
:103AF00081F805C088F80630908181F8069088F832
:103B00000730D08181F807A088F808B04FF45065DD
:103B1000158281F808A088F809B04FF460655582D5
:103B200081F809A0534688F80AB090828B72C4E7E6
:103B3000032088F800004FF4006BA2F800B00B706F
:103B400088F80100A2F802B04C7088F80200A2F8D0
:103B500004B08D7088F80300A2F806B0CE7088F823
:103B60000400A2F808B00F7188F80500A2F80AB0A6
:103B700081F805C088F80600A2F80CB081F806901C
:103B800088F80700A2F80EB081F807A088F808E0CE
:103B9000A2F810B00B7288F809E0A2F812B081F810
:103BA00009C088F80AE04FF4106090828D7284E7B3
:103BB000032088F800004FF4106BA2F800B00B70DF
:103BC00088F80100A2F802B04C7088F80200A2F850
:103BD00004B08D7088F80300A2F806B0CE7088F8A3
:103BE0000400A2F808B00F7188F80500A2F80AB026
:103BF00081F805C088F80600A2F80CB081F806909C
:103C000088F80700A2F80EB081F807A088F808E04D
:103C10004FF4006515820C7288F809E0558281F82E
:103C2000099088F80AE0A2F814B08E7245E70320E4
:103C300088F800004FF4206BA2F800B00B7088F8F1
:103C40000100A2F802B04C7088F80200A2F804B09B
:103C50008D7088F80300A2F806B0CE7088F80400D2
:103C6000A2F808B00F7188F80500A2F80AB081F830
:103C700005C088F80600A2F80CB081F8069088F814
:103C80000700A2F80EB081F807A088F808E04FF40A
:103C9000006414820D7288F809E0548281F809A04A
:103CA00088F80AE04FF4106090828F7205E70320D5
:103CB00088F800004FF4306BA2F800B00B7088F861
:103CC0000100A2F802B04C7088F80200A2F804B01B
:103CD0008D7088F80300A2F806B0CE7088F8040052
:103CE000A2F808B00F7188F80500A2F80AB081F8B0
:103CF00005C088F80600A2F80CB081F8069088F894
:103D00000700A2F80EB081F807A088F808E04FF489
:103D1000006414820E7288F809E04FF41064548233
:103D20004B7288F80AE0948281F80AC0C5E6032045
:103D300088F800004FF4406BA2F800B00B7088F8D0
:103D40000100A2F802B04C7088F80200A2F804B09A
:103D50008D7088F80300A2F806B0CE7088F80400D1
:103D6000A2F808B00F7188F80500A2F80AB081F82F
:103D700005C088F80600A2F80CB081F8069088F813
:103D80000700A2F80EB081F807A088F808E04FF409
:103D9000006515820F7288F809E04FF410655582AE
:103DA0004C7288F80AE04B469582BFE6052088F8F9
:103DB00000004FF4206EA2F800E00B7088F80100BC
:103DC000A2F802E04C7088F80200A2F804E08D70BE
:103DD00088F80300A2F806E0CE7088F80400A2F884
:103DE00008E00F7188F80500A2F80AE081F805C024
:103DF00088F80600A2F80CE081F8069088F8070021
:103E0000A2F80EE081F807A0584688F808B04FF4F1
:103E1000606632E0052088F800004FF4306EA2F8AA
:103E200000E00B7088F80100A2F802E04C7088F8FE
:103E30000200A2F804E08D7088F80300A2F806E002
:103E4000CE7088F80400A2F808E00F7188F8050029
:103E5000A2F80AE081F805C088F80600A2F80CE094
:103E600081F8069088F80700A2F80EE081F807A014
:103E7000584688F808B04FF4706616820B7288F8BE
:103E8000090056824C7288F80A0096828EE6052058
:103E900088F800004FF4406EA2F800E00B7088F83C
:103EA0000100A2F802E04C7088F80200A2F804E0D9
:103EB0008D7088F80300A2F806E0CE7088F8040040
:103EC000A2F808E00F7188F80500A2F80AE081F86E
:103ED00005C088F80600A2F80CE081F8069088F882
:103EE0000700A2F80EE081F807A0584688F808B04D
:103EF0004FF4606332E0052088F800004FF4506E04
:103F0000A2F800E00B7088F80100A2F802E04C7003
:103F100088F80200A2F804E08D7088F80300A2F887
:103F200006E0CE7088F80400A2F808E00F7188F867
:103F30000500A2F80AE081F805C088F80600A2F89A
:103F40000CE081F8069088F80700A2F80EE081F8EE
:103F500007A0584688F808B04FF4706313820E72B9
:103F600088F80900FFF7FFBB052088F800004FF430
:103F7000606EA2F800E00B7088F80100A2F802E081
:103F80004C7088F80200A2F804E08D7088F80300F5
:103F9000A2F806E0CE7088F80400A2F808E00F71DD
:103FA00088F80500A2F80AE081F805C088F8060044
:103FB000A2F80CE081F8069088F80700A2F80EE05D
:103FC000504605E018E057E05CE099E0D1E010E1F0
:103FD00081F807A088F808B0A2F810E081F80890EE
:103FE00088F809B0A2F812E081F809A0092388F83E
:103FF0000A304FF400633CE0052088F800004FF4DD
:10400000706EA2F800E00B7088F80100A2F802E0E0
:104010004C7088F80200A2F804E08D7088F8030064
:10402000A2F806E0CE7088F80400A2F808E00F714C
:1040300088F80500A2F80AE081F805C088F80600B3
:10404000A2F80CE081F8069088F80700A2F80EE0CC
:1040500081F807A088F808B0A2F810E081F808906D
:1040600088F809B0A2F812E0504681F809A00923A7
:10407000BAE09382887220E5DE4688F800B04FF4FB
:10408000006B04E0DE4688F800B04FF4106BA2F835
:1040900000B00B7088F801E0A2F802B04C7088F80C
:1040A00002E0A2F804B08D7088F803E0A2F806B030
:1040B000CE7088F804E0A2F808B00F7188F805E027
:1040C000A2F80AB081F805C088F806E0A2F80CB0A2
:1040D00081F8069088F807E0A2F80EB081F807A0F2
:1040E000092088F80800A2F810B00B7288F80900BF
:1040F000A2F812B04C7288F80A00A2F814B055E584
:1041000088F800B04FF42060DE4610800B7088F80D
:1041100001E050804C7088F802E090808D7088F843
:1041200003E0D080CE7088F804E010810F7188F829
:1041300005E05081934681F805C088F806E0ABF8A9
:104140000C0081F8069088F807E0ABF80E0081F8C3
:1041500007A0092288F80820ABF810000B7288F835
:104160000920ABF812004C7288F80A20ABF8140052
:104170001CE5DE4688F800B04FF4306BA2F800B0C2
:104180000B7088F801E0A2F802B04C7088F802E0E9
:10419000A2F804B08D7088F803E0A2F806B0CE70E3
:1041A00088F804E0A2F808B00F7188F805E0A2F8DA
:1041B0000AB081F805C088F806E0A2F80CB081F8D2
:1041C000069088F807E0A2F80EB081F807A009234E
:1041D00088F808304FF4006414820E7288F80930B1
:1041E0005482484681F8099088F80A304FF41063E9
:1041F0003FE7DE4688F800B04FF4406BA2F800B00D
:104200000B7088F801E0A2F802B04C7088F802E068
:10421000A2F804B08D7088F803E0A2F806B0CE7062
:1042200088F804E0A2F808B00F7188F805E0A2F859
:104230000AB081F805C088F806E0A2F80CB081F851
:10424000069088F807E0A2F80EB0092081F807A0D0
:1042500088F80800030213820E7288F809004FF4F0
:1042600000637FE6CA01002010B57D4C0221207852
:1042700040F4006002F046FB6078022140F41060D8
:1042800002F040FBA078022140F4206002F03AFBEB
:10429000E078022140F4306002F034FB2079022102
:1042A00040F4406002F02EFB6079022140F450603F
:1042B00002F028FBA079022140F4606002F022FBAA
:1042C000E079022140F4706002F01CFB207A0421A6
:1042D00040F4006002F016FB607A042140F41060A4
:1042E00002F010FBA07A042140F4206002F00AFBE7
:1042F000E07A042140F4306002F004FB207B0421CA
:1043000040F4406002F0FEFA607B042140F450600B
:1043100002F0F8FAA07B042140F4606002F0F2FAA7
:10432000E07B042140F4706002F0ECFA207C06216E
:1043300040F4006002F0E6FA607C062140F4106070
:1043400002F0E0FAA07C062140F4206002F0DAFAE4
:10435000E07C062140F4306002F0D4FA207D062192
:1043600040F4406002F0CEFA607D062140F45060D7
:1043700002F0C8FAA07D062140F4606002F0C2FAA3
:10438000E07D062140F4706002F0BCFA207E082136
:1043900040F4006002F0B6FA607E082140F410603C
:1043A00002F0B0FAA07E082140F4206002F0AAFAE0
:1043B000E07E082140F4306002F0A4FA207F08215A
:1043C00040F4406002F09EFA607F082140F45060A3
:1043D00002F098FAA07F082140F4606002F092FA9F
:1043E000E07F082140F4706002F08CFA94F820001D
:1043F0000A2140F4006002F085FA94F821000A21B5
:1044000040F4106002F07EFA94F822000A2140F491
:10441000206002F077FA94F823000A2140F430601B
:1044200002F070FA94F824000A2140F4406002F08F
:1044300069FA94F825000A2140F4506002F062FA0B
:1044400094F826000A2140F4606002F05BFA94F8C8
:104450002700BDE8104040F470600A2102F052BA13
:10446000D801002010B5614C0221207840F4006092
:1044700002F048FA6078022140F4106002F042FA3B
:10448000A078022140F4206002F03CFAE07802219A
:1044900040F4306002F036FA2079022140F44060A6
:1044A00002F030FA6079022140F4506002F02AFAFA
:1044B000A079022140F4606002F024FAE079022140
:1044C00040F4706002F01EFA207A042140F400608B
:1044D00002F018FA607A042140F4106002F012FA37
:1044E000A07A042140F4206002F00CFAE07A042162
:1044F00040F4306002F006FA207B042140F4406072
:1045000002F000FA607B042140F4506002F0FAF9F6
:10451000A07B042140F4606002F0F4F9E07B042108
:1045200040F4706002F0EEF9207C062140F4006057
:1045300002F0E8F9607C062140F4106002F0E2F934
:10454000A07C062140F4206002F0DCF9E07C06212A
:1045500040F4306002F0D6F9207D062140F440603E
:1045600002F0D0F9607D062140F4506002F0CAF9F3
:10457000A07D062140F4606002F0C4F9E07D0621D0
:1045800040F4706002F0BEF9207E082140F4006023
:1045900002F0B8F9607E082140F4106002F0B2F930
:1045A000A07E082140F4206002F0ACF9E07E0821F2
:1045B00040F4306002F0A6F9207F082140F440600A
:1045C00002F0A0F9607F082140F4506002F09AF9EF
:1045D000A07F082140F4606002F094F9E07FBDE81C
:1045E000104040F47060082102F08CB9D80100201E
:1045F0000448817A044809B1052100E001210160E5
:1046000070470000BC0400207C010020FEE77047DA
:10461000704708B500214FF0006000F051F84FF4EA
:10462000C06000F043F81C208DF8000000208DF8D9
:10463000010003208DF8020001208DF80300684678
:1046400000F002F808BD000070B50F23C4780178AF
:104650000122F4B1144C2468457804F4E064C4F5F4
:10466000E064240AC4F10406E3408478B5401C40A9
:104670002C4301F1E021230181F80034007800F09F
:104680001F018A404009800000F1E020C0F80021AD
:1046900070BD01F01F0082404809800000F1E02059
:1046A000C0F8802170BD00000CED00E00249084315
:1046B00002490860704700000000FA050CED00E0B8
:1046C000024A1140014302480160704780FFFF1F0A
:1046D00008ED00E070B5304D2868017844784A064E
:1046E00006D001F07F0001282BD002282ED038E020
:1046F000092C06D0052C07D0032C0ED0012C17D086
:104700002FE001F021FD2BE0C1787F2931D881789D
:1047100079BB818869BB807A2AE0C178012920D1E0
:104720008188F1B9407A80061BD501F029FD17E098
:10473000C178012915D1818899B9407A80060AD4B7
:104740000FE00B2C0DD101F06DFD09E0012C02D022
:10475000032C03D005E001F003FC01E001F022FD91
:1047600058B10E492046096849698847032802D094
:1047700018B108200DE009200BE0094A06200021AD
:104780001268084B120403EBD2325160064A302102
:1047900011802968087270BD8C01002090010020F2
:1047A000505C0040006000409C01002010B50D4CA2
:1047B0002068007A032804D0052802D0072805D0F5
:1047C00008E0FCF7D5FB2068007A04E006480068A2
:1047D000C0688047082021680872BDE8104000F0DA
:1047E00017B800008C01002090010020064B521CDD
:1047F000520803EB410105D031F8043B20F8023B9D
:10480000521EF9D170470000006000407047000060
:104810000C4810B590F82C10002001F06FFA0A48EF
:104820000068007A082802D0092809D006E0074964
:104830004FF480500880064910200880002010BDE9
:10484000012010BD080100208C0100209A010020E9
:104850009C01002010B5012001F0F2FD0648012165
:1048600001600021054A0160031D19604FF4E05109
:1048700011800160002010BD405C004098010020C4
:10488000034A516821F440410143516070470000E0
:1048900000100240044A0029516901D0014300E0A0
:1048A000814351617047000000100240044A002912
:1048B000D16901D0014300E08143D161704700001C
:1048C00000100240044A0029916901D0014300E030
:1048D000814391617047000000100240044A0029A2
:1048E000D16801D0014300E08143D16070470000EE
:1048F000001002400149C1F8D80070470000424250
:1049000070B51C4C072800D020702178062604259D
:10491000194806292CD2DFE801F00306090E1620FB
:1049200000F02CF824E000F029F80AE00220607082
:104930000320207070BD6078401E60706078002891
:10494000F8D1257070BD016889B241F01001016095
:10495000052020700A20607070BD6178491E61706A
:1049600061780029F8D1016889B221F01001016055
:10497000267070BD81010020405C004010B5064CDF
:10498000206880B220F004002060FFF731FE4FF471
:104990003F40206010BD0000405C00400F4B10B550
:1049A000012283F834200E4A0B2330301370B323D6
:1049B0005370907001EB81004006000ED0707F288C
:1049C00001D37F20D07004229101054801F0CAFD77
:1049D000BDE81040012001F00BBA000008000020E3
:1049E000000000202DE9F35F074648080190012FE1
:1049F00008D0032F09D0052F0AD0072F0BD0092F7D
:104A00000CD00DE0FDF70CFA0AE0FDF783FC07E09F
:104A1000FDF714FF04E0FEF78BF901E0FEF712FC4E
:104A2000FC4E96F8620086F8630096F85C10192038
:104A3000B1FBF0F196F8602096F86000104408444D
:104A400086F8620096F8620002280AD096F85C00A8
:104A500018B996F86200102803D396F85C0019285C
:104A600008D196F85B00012804D196F85B000A3063
:104A700086F85B0096F86100E74C012540F6FF3AA6
:104A800040F6FF4B4FF002094FF00008062841D1D5
:104A900096F85F0019283DD196F86000082839D1B2
:104AA00096F85C00142835D196F85B0030B10128E7
:104AB00006D0022808D003280AD107E0484600E0C3
:104AC000032086F85B0003E04046FAE786F85B5077
:104AD00096F85B00022803D096F85B00032808D103
:104AE000CD49002028390A5C2254401CC0B2282835
:104AF000F9D396F85B0001280CD10A21504601F049
:104B000001FF0A21584601F0FDFE0A2140F6FF5040
:104B100001F0F8FE96F86100062826D196F85F00AD
:104B2000192822D196F8600008281ED196F85C005A
:104B300015281AD196F85B0010B1012815D110E0A4
:104B400086F85B50F5710A21504601F0DBFE0A2120
:104B5000584601F0D7FE0A2140F6FF5001F0D2FE80
:104B600003E086F85B8086F8078096F85B000A28E9
:104B700009D316F85B1F0A20B1FBF0F200FB1210FC
:104B80003070BDE8FC9F96F85B00032825D096F8AE
:104B90005B0002282BD096F85B009F4C4FF0040A74
:104BA000443C4FF0080B01282ED096F85B000028FB
:104BB000E7D196F8530000F0F0017172C0F34200A3
:104BC0003072052001F027FF307A082877D2DFE81D
:104BD00000F0F0EFEEEDECEBEAE98F490020283928
:104BE000225C0A54401CC0B22828F9D308E08A4944
:104BF00000202839225C0A54401CC0B22828F9D36E
:104C0000BDE8FC5FFFF730BB824E707AF072307AFD
:104C1000B07296F8530000F0F0017172C0F34200D8
:104C20003072052001F0F7FE96F86200042825D0C6
:104C3000304690F86210062920D090F862100829BA
:104C40001CD090F862100A2918D090F862100C2934
:104C500014D090F86210052963D090F862100729EB
:104C60005FD090F8621009295BD090F862100B2990
:104C700057D090F862100D2953D0AAE0654890F8FB
:104C8000621080F8641080F8517080F850500199DB
:104C900080F85D10017A08290CD2DFE801F00407E2
:104CA0001114171A1D204FF4006101E04FF4106138
:104CB000A0F86A10427A12F00F0F13D089E0F1E3E6
:104CC0004FF42061F4E74FF43061F1E74FF44061B5
:104CD000EEE74FF45061EBE74FF46061E8E74FF423
:104CE0007061E5E71111082973D2DFE801F00407CC
:104CF0000A0D1012141680F84D506AE080F84D909D
:104D000067E080F84DA064E080F84DB061E01021CC
:104D100004E0202102E0402100E0802180F84D10D5
:104D200057E090F8621080F8651080F8527080F8B3
:104D30005080019980F85E10017A08290CD2DFE8D2
:104D400001F00407101316191C1F4FF4006101E055
:104D50004FF41061A0F86C10417A11F00F0F12D0CF
:104D600037E04FF42061F5E74FF43061F2E74FF49C
:104D70004061EFE74FF45061ECE74FF46061E9E721
:104D80004FF47061E6E70911082922D2DFE801F04B
:104D900004071215181A1C1E80F84E5019E080F8EE
:104DA0004E9016E0F4E3F4E3F4E3F4E3F4E3F4E325
:104DB000F4E3F4E380F84EA00BE080F84EB008E096
:104DC000102104E0202102E0402100E0802180F851
:104DD0004E10114B0020363BA3F12A0603F8008049
:104DE00026F8108004F80080401CC0B22828F5D3B3
:104DF00009480021B0F1280000F80180491CC9B21F
:104E00002829F9D3034991F86420921E0F2A1AD257
:104E100004E000000800002000020020DFE802F0AB
:104E2000089E14202C3945525F6C78859E9E920016
:104E300081F8668091F851201A70B1F86A203280AA
:104E400091F84D20227089E081F8665091F8512048
:104E50005A70B1F86A20728091F84D2062707DE03E
:104E600081F8669091F851209A70B1F86A20B2806A
:104E700091F84D20A27071E0032281F8662091F82C
:104E80005120DA70B1F86A20F28091F84D20E2707A
:104E900064E081F866A091F851201A71B1F86A2097
:104EA000328191F84D20227158E0052281F8662068
:104EB00091F851205A71B1F86A20728191F84D2011
:104EC00062714BE0062281F8662091F851209A71B8
:104ED000B1F86A20B28191F84D20A2713EE007221C
:104EE00081F8662091F85120DA71B1F86A20F281D8
:104EF00091F84D20E27131E081F866B091F85120CF
:104F00001A72B1F86A20328291F84D20227225E09F
:104F1000092281F8662091F851205A72B1F86A206E
:104F2000728291F84D20627218E00A2281F86620A0
:104F300091F851209A72B1F86A20B28291F84D200E
:104F4000A2720BE00B2281F8662091F85120DA72F0
:104F5000B1F86A20F28291F84D20E27200229F5C43
:104F6000012F08D0032F59D0052F72D0072F71D0F1
:104F7000092F70D0B0E136F81270B7F5006F15D078
:104F8000B7F5106F19D0B7F5206F1DD0B7F5306F9A
:104F900021D0B7F5406F25D0B7F5506F29D0B7F5C0
:104FA000606F2DD0B7F5706F31D095E1077814F8A8
:104FB00002C047EA0C0707708EE1477814F802C078
:104FC00047EA0C07477087E1877814F802C047EA80
:104FD0000C07877080E1C77814F802C047EA0C0715
:104FE000C77079E1077914F802C047EA0C07077126
:104FF00072E1477914F802C047EA0C0747716BE188
:10500000877914F802C047EA0C07877164E1C77911
:1050100014F802C047EA0C07C7715DE136F8127058
:10502000B7F5006F18D0B7F5106F1CD0B7F5206F2B
:1050300020D0B7F5306F24D0B7F5406F28D0B7F542
:10504000506F2CD0B7F5606F30D0B7F5706F34D09B
:1050500042E139E08BE0DDE0077A14F802C047EA6C
:105060000C07077238E1477A14F802C047EA0C07C8
:10507000477231E1877A14F802C047EA0C07877259
:105080002AE1C77A14F802C047EA0C07C77223E185
:10509000077B14F802C047EA0C0707731CE1477B43
:1050A00014F802C047EA0C07477315E1877B14F830
:1050B00002C047EA0C0787730EE1C77B14F802C0F1
:1050C00047EA0C07C77307E136F81270B7F5006FAF
:1050D00015D0B7F5106F19D0B7F5206F1DD0B7F503
:1050E000306F21D0B7F5406F25D0B7F5506F29D07C
:1050F000B7F5606F2DD0B7F5706F31D0ECE0077C5D
:1051000014F802C047EA0C070774E5E0477C14F87E
:1051100002C047EA0C074774DEE0877C14F802C03F
:1051200047EA0C078774D7E0C77C14F802C047EA47
:105130000C07C774D0E0077D14F802C047EA0C07DB
:105140000775C9E0477D14F802C047EA0C074775A8
:10515000C2E0877D14F802C047EA0C078775BBE000
:10516000C77D14F802C047EA0C07C775B4E036F8EB
:105170001270B7F5006F15D0B7F5106F19D0B7F5ED
:10518000206F1DD0B7F5306F21D0B7F5406F25D017
:10519000B7F5506F29D0B7F5606F2DD0B7F5706FA8
:1051A00031D099E0077E14F802C047EA0C07077671
:1051B00092E0477E14F802C047EA0C0747768BE07E
:1051C000877E14F802C047EA0C07877684E0C77E22
:1051D00014F802C047EA0C07C7767DE0077F14F891
:1051E00002C047EA0C07077776E0477F14F802C051
:1051F00047EA0C0747776FE0877F14F802C047EA59
:105200000C07877768E0C77F14F802C047EA0C07ED
:10521000C77761E036F81270B7F5006F15D0B7F5B3
:10522000106F1BD0B7F5206F21D0B7F5306F27D0A6
:10523000B7F5406F2DD0B7F5506F33D0B7F5606F2D
:1052400039D0B7F5706F3FD046E090F8207014F871
:1052500002C047EA0C0780F820703DE090F821700A
:1052600014F802C047EA0C0780F8217034E090F887
:10527000227014F802C047EA0C0780F822702BE075
:1052800090F8237014F802C047EA0C0780F82370E6
:1052900022E090F8247014F802C047EA0C0780F866
:1052A000247019E090F8257014F802C047EA0C0742
:1052B00080F8257010E090F8267014F802C047EAD4
:1052C0000C0780F8267007E090F8277014F802C0E9
:1052D00047EA0C0780F82770521CD2B20C2AFFF460
:1052E0003EAE91F86520921E0F2A14D2DFE802F03C
:1052F000089E14202C3945525F6C78859E9E920042
:1053000081F8668091F852201A70B1F86C5035809F
:1053100091F84E50257089E081F8665091F852203E
:105320005A70B1F86C50758091F84E5065707DE000
:1053300081F8669091F852209A70B1F86C50B5805F
:1053400091F84E50A57071E0032281F8662091F823
:105350005220DA70B1F86C50F58091F84E50E5703B
:1053600064E081F866A091F852201A71B1F86C508F
:10537000358191F84E50257158E0052281F866205C
:1053800091F852205A71B1F86C50758191F84E50D5
:1053900065714BE0062281F8662091F852209A71DF
:1053A000B1F86C50B58191F84E50A5713EE00722DE
:1053B00081F8662091F85220DA71B1F86C50F581CD
:1053C00091F84E50E57131E081F866B091F85220C5
:1053D0001A72B1F86C50358291F84E50257225E062
:1053E000092281F8662091F852205A72B1F86C5067
:1053F000758291F84E50657218E00A2281F8662095
:1054000091F852209A72B1F86C50B58291F84E50D2
:10541000A5720BE00B2281F8662091F85220DA7217
:10542000B1F86C50F58291F84E50E57200229D5C07
:10543000012D08D0032D4AD0052D72D0072D71D033
:10544000092D70D069E136F81250B5F5006F15D00E
:10545000B5F5106F17D0B5F5206F19D0B5F5306FD1
:105460001BD0B5F5406F1ED0B5F5506F20D0B5F507
:10547000606F22D0B5F5706F24D04EE10578A75C3F
:105480003D43057049E14578A75C3D43457044E1E3
:105490008578A75C3D4385703FE1C578A75C3D43B7
:1054A000C5703AE15CE10579A75C3D43057134E1E3
:1054B0004579A75C3D4345712FE18579A75C3D4364
:1054C00085712AE1C579A75C3D43C57125E136F8B0
:1054D0001250B5F5006F15D0B5F5106F17D0B5F5B2
:1054E000206F19D0B5F5306F1ED0B5F5406F20D0C4
:1054F000B5F5506F22D0B5F5606F24D0B5F5706F5B
:1055000026D00AE1057AA75C3D43057205E1457A9C
:10551000A75C3D43457200E1857AA75C3D438572F7
:10552000FBE01AE064E0A6E0C57AA75C3D43C572E3
:10553000F3E0057BA75C3D430573EEE0457BA75C8C
:105540003D434573E9E0857BA75C3D438573E4E01B
:10555000C57BA75C3D43C573DFE036F81250B5F557
:10556000006F1DD0B5F5106F1FD0B5F5206F21D09D
:10557000B5F5306F23D0B5F5406F25D0B5F5506F38
:1055800027D0B5F5606F29D0B5F5706F2BD0C4E08A
:10559000FAE0F6E0F2E0EEE0EAE0E6E0DCE0D8E0B7
:1055A000057CA75C3D430574B7E0457CA75C3D43A3
:1055B0004574B2E0857CA75C3D438574ADE0C57C55
:1055C000A75C3D43C574A8E0057DA75C3D43057518
:1055D000A3E0457DA75C3D4345759EE0857DA75CC6
:1055E0003D43857599E0C57DA75C3D43C57594E055
:1055F00036F81250B5F5006F15D0B5F5106F17D00D
:10560000B5F5206F19D0B5F5306F1BD0B5F5406FEB
:105610001DD0B5F5506F1FD0B5F5606F21D0B5F531
:10562000706F23D079E0057EA75C3D43057674E07A
:10563000457EA75C3D4345766FE0857EA75C3D4394
:1056400085766AE0C57EA75C3D43C57665E0057F4B
:10565000A75C3D43057760E0457FA75C3D43457708
:105660005BE0857FA75C3D43857756E0C57FA75CFF
:105670003D43C57751E036F81250B5F5006F15D0AF
:10568000B5F5106F19D0B5F5206F1DD0B5F5306F99
:1056900021D0B5F5406F25D0B5F5506F29D0B5F5BF
:1056A000606F2DD0B5F5706F31D036E090F8205096
:1056B000A75C3D4380F820502FE090F82150A75C74
:1056C0003D4380F8215028E090F82250A75C3D43EC
:1056D00080F8225021E090F82350A75C3D4380F8E9
:1056E00023501AE090F82450A75C3D4380F82450E2
:1056F00013E090F82550A75C3D4380F825500CE05E
:1057000090F82650A75C3D4380F8265005E090F8BD
:105710002750A75C3D4380F82750521CD2B20C2A78
:10572000FFF485AEF9480922027091F860209032AA
:10573000427091F85C1081707F21C1700422910148
:1057400000F010FF012000F053FBBDE8FC5FFEF706
:1057500089BE4FF4006001E04FF41060A6F86E00BF
:10576000707A10F00F0F12D02BE04FF42060F5E7A5
:105770004FF43060F2E74FF44060EFE74FF45060D1
:10578000ECE74FF46060E9E74FF47060E6E7001182
:10579000082816D2DFE800F004070A0D10122426AC
:1057A00086F84F500DE086F84F900AE086F84FA03B
:1057B00007E086F84FB004E0102000E0202086F8D3
:1057C0004F0096F86200801E0F2819D2DFE800F023
:1057D0000CAE192633414E5C6A788593AEAEA100BB
:1057E0004020ECE78020EAE786F86680C848C84990
:1057F00007702A39B6F86E00088096F84F002070BE
:1058000094E086F86650C248C14947702A39B6F814
:105810006E00488096F84F00607087E086F86690CA
:10582000BB48BB4987702A39B6F86E00888096F865
:105830004F00A0707AE0032086F86600B448B449AF
:10584000C7702A39B6F86E00C88096F84F00E0702D
:105850006CE086F866A0AE48AD4907712A39B6F803
:105860006E00088196F84F0020715FE0052086F8F1
:105870006600A748A64947712A39B6F86E004881E4
:1058800096F84F00607151E0062086F86600A04847
:105890009F4987712A39B6F86E00888196F84F00C3
:1058A000A07143E0072086F8660099489849C771BF
:1058B0002A39B6F86E00C88196F84F00E07135E0DD
:1058C00086F866B09248924907722A39B6F86E0097
:1058D000088296F84F00207228E0092086F86600BA
:1058E0008B488B4947722A39B6F86E00488296F881
:1058F0004F0060721AE00A2086F8660084488449E6
:1059000087722A39B6F86E00888296F84F00A07226
:105910000CE00B2086F866007D487D49C7722A3965
:10592000B6F86E00C88296F84F00E07296F86000F4
:10593000012806D196F85C0018B196F85C00FDF7D6
:105940008FFE7348002142460E304254491CC9B2B2
:105950002829FAD36E4B00215A5C012A08D0032A69
:105960004BD0052A70D0072A6FD0092A6ED06DE17E
:10597000674A2A3A32F81120B2F5006F15D0B2F515
:10598000106F17D0B2F5206F19D0B2F5306F1BD061
:10599000B2F5406F1DD0B2F5506F1FD0B2F5606FF9
:1059A00021D0B2F5706F23D050E10278655C2A43B4
:1059B00002704BE14278655C2A43427046E182788E
:1059C000655C2A43827041E1C278655C2A43C270FB
:1059D0003CE10279655C2A43027137E14279655CFA
:1059E0002A43427132E18279655C2A4382712DE15A
:1059F000C279655C2A43C27128E1454A2A3A32F8E5
:105A00001120B2F5006F15D0B2F5106F17D0B2F5B6
:105A1000206F1CD0B2F5306F1ED0B2F5406F20D091
:105A2000B2F5506F22D0B2F5606F24D0B2F5706F2E
:105A300026D00BE1027A655C2A43027206E1427AC3
:105A4000655C2A43427201E11FE068E0ABE0827AC4
:105A5000655C2A438272F9E0C27A655C2A43C272AD
:105A6000F4E0027B655C2A430273EFE0427B655CF5
:105A70002A434273EAE0827B655C2A438273E5E055
:105A8000C27B655C2A43C273E0E0214A2A3A32F8BD
:105A90001120B2F5006F15D0B2F5106F17D0B2F526
:105AA000206F19D0B2F5306F1BD0B2F5406F1DD00A
:105AB000B2F5506F1FD0B2F5606F21D0B2F5706FA4
:105AC00028D0C3E0027C655C2A430274BEE0427CBD
:105AD000655C2A434274B9E0827C655C2A43827427
