:020000040800F2
:10000000D8060020010100084F4600087D1C0008AA
:100010004D46000821090008A16500080000000005
:10002000000000000000000000000000C95C0008A3
:10003000B1110008000000004D480008CD62000822
:100040001701000817010008170100081701000830
:100050001701000817010008170100081701000820
:100060001701000817010008170100081701000810
:100070001701000817010008170100081701000800
:1000800017010008170100081701000817010008F0
:100090009D650008170100081701000817010008F6
:1000A00017010008170100081701000817010008D0
:1000B0001163000817010008170100081701000864
:1000C00017010008170100081701000817010008B0
:1000D00017010008170100081701000817010008A0
:1000E000170100081701000817010008DFF80CD0FD
:1000F00000F014F800480047756A0008D806002090
:1001000005480047FEE7FEE7FEE7FEE7FEE7FEE7FD
:10011000FEE7FEE7FEE7FEE7ED000008064C074DB0
:1001200006E0E06840F0010394E8070098471034C7
:10013000AC42F6D3FFF7DEFF107000083070000805
:1001400070B58C1810F8015B15F0070301D110F899
:10015000013B2A1106D110F8012B03E010F8016BC6
:1001600001F8016B5B1EF9D12B0705D40023521E49
:100170000DD401F8013BFAE710F8013BCB1A921CB1
:1001800003E013F8015B01F8015B521EF9D5A142AF
:10019000D8D3002070BD000030B591B0012140F2ED
:1001A000012004F0AFFB0121084604F093FB4FF45B
:1001B000004004F085FB464D284600F0E5FD45482B
:1001C000009045480024CDE901042D20CDE9030429
:1001D00080200590800006908000CDE90704800013
:1001E000CDE909046946284600F04AFE0021284668
:1001F00000F0C0FD374D4C3D284600F093FA012039
:100200008DF830008DF831000B944FF46020CDE96B
:100210000D0409208DF83C000BA9284600F0B8FA1F
:10022000052301220021284600F0D6FA05230222E8
:100230000121284600F0D0FA052303220221284696
:1002400000F0CAFA052304220321284600F0C4FA6C
:1002500005231A460421284600F0BEFA052306228B
:100260001946284600F0B8FA052307220621284639
:1002700000F0B2FA052308220721284600F0ACFA64
:10028000052309220821284600F0A6FA01224FF48E
:100290000871284600F072FA0121284600F0EAF8B9
:1002A0000121284600F01DF8284600F0CFFA2C4620
:1002B000204600F05CFA0028FAD1204600F0F3FA5C
:1002C000204600F04DFA0028FAD111B030BD0000F0
:1002D000080002404C24014030030020C943016063
:1002E00070470029816802D041F0010101E021F04E
:1002F00001018160704700002DE9F05FDFF868A11F
:1003000001240AF12406594D0B274FF0B0084FF095
:100310007F0BA6F1FC09484659F82420544941F8BE
:1003200024205AF82420514659F82430921C9A422D
:1003300005D851F8242050F824309A420CD350F8B4
:10034000242051F82430921C9A420AD850F82420D4
:1003500051F824309A4204D200220CE085F803B010
:1003600016E0325D1ABB50F824201AB150F8242050
:100370007F2A1CD3012232552F7085F8018004F1A9
:100380002002AA7050F82420D2B2EA707F2AE5D267
:1003900050F8240041F8240004229101334806F06B
:1003A00001F9012005F044FD052006F054FB641C12
:1003B000E4B2092CAFD3DAF800305146D9F8004046
:1003C000484655229B1CA34203D80B680468A342ED
:1003D0000AD303680C689B1CA3421ED8D9F80040BE
:1003E000DAF800309C4218D2002333702F7085F861
:1003F0000180AA700268D2B2EA707F2A01D385F820
:1004000003B00068086004229101184806F0CAF899
:10041000BDE8F05F012005F00BBD3378002B20D143
:10042000036813B103687F2B1BD3012333702F7034
:1004300085F80180AA700268D2B2EA707F2A01D3DF
:1004400085F803B00068086004229101074806F0AF
:10045000A9F8012005F0ECFCBDE8F05F052006F0EE
:10046000FABABDE8F09F0000000300200000002061
:10047000980400200029816802D041F4807101E0D5
:1004800021F48071816070472DE9F04FA24A00206D
:1004900002F1B40502F1C80602F5827802F58C7902
:1004A00002F5967A02F5AA7B00EBC0019A4B52F84E
:1004B000214002EB810145F820404C6846F820407D
:1004C000DC338C6843F8204003F11404CF6844F80F
:1004D00020700F6948F820704F6949F820708F69C3
:1004E0004AF820705034CF6944F820700C6A4BF8F9
:1004F0002040401CC0B20528D6D30521A3F1280016
:1005000000F0B3F9854F844CB96FE43C01EBC101B5
:1005100044F82100052104F5D67000F0A6F9B96F62
:1005200001EBC10104EB81014860052104F5E07095
:1005300000F09BF9B96F01EBC10104EB8101886008
:10054000052104F5EA7000F090F9B96F01EBC101E3
:1005500004EB8101C860052104F5F47000F085F911
:10056000B96F01EBC10104EB81010861052104F5BC
:10057000FE7000F07AF9B96F01EBC10104EB810163
:100580004861052104F5047000F06FF9B96F01EBC3
:10059000C10104EB81018861052104F5097000F0B7
:1005A00064F9B96F01EBC10104EB8101C861052158
:1005B00004F50E7000F059F9B96F01EBC10204EBBC
:1005C00082021062042973D14146002004F5EA7EBC
:1005D0004A46D04604F509734FEA0B0500EBC00606
:1005E00054F826C04C4F04EB8606B43747F820C0B9
:1005F000D6F804C0143747F820C0D6F808C014371E
:1006000047F820C0D6F80CC04EF820C0376941F832
:100610002070776942F82070B76948F82070F76950
:1006200043F82070366A45F82060401CC0B20528A7
:10063000D4D339480521B43000F017F9384C206084
:10064000052104F5E87000F010F96060052104F55B
:10065000F27000F00AF9A060052104F5FC7000F0CA
:1006600004F9E060052104F5037000F0FEF8206154
:10067000052104F5087000F0F8F86061052104F523
:100680000D7000F0F2F8A061052104F5127000F081
:10069000ECF8E061052104F5177000F0E6F820623F
:1006A00020680021782804D320687838206001E091
:1006B0002FE021605FF0010054F820200A2A05D3C2
:1006C00054F820200A3A44F8202001E044F8201091
:1006D000401CC0B20928EFD320681F21B0FBF1F005
:1006E0002060606840096060A0684009A060E06820
:1006F0004009E0602069400920616069400960614B
:10070000A0694009A061E0694009E061206A4009F0
:100710002062BDE8F08F00003003002008000020B8
:10072000280200200D4910B5401811D04FF4806404
:10073000A04210D0B0F5C05F0FD10121CC032046FC
:1007400004F0ECF82046BDE81040002104F0E6B8C3
:1007500001214C02F3E70121F1E710BD00DCFEBFEF
:10076000014600208968490700D5012070470146ED
:1007700000208968090700D501207047002A4268D7
:10078000C9B201D00A4300E08A43426070470000CA
:1007900010B542680E4B0C791A400B6842EA0422ED
:1007A0001343436082680B4B1A40D1E90243234351
:1007B0004C7942EA440213438360C26A097C22F402
:1007C0007002491EC9B242EA0151C16210BD000067
:1007D000FFFEF0FFFDF7F1FF70B5072409290AD9E4
:1007E000C568A1F10A0606EB4606B440A543B3402E
:1007F0001D43C56007E0056901EB4106B440A54310
:10080000B3401D4305611F23072A09D2446B521EC2
:1008100002EB820293409C4391400C43446370BDC1
:100820000D2A09D2046BD21F02EB820293409C4333
:1008300091400C43046370BDC46A0D3A02EB82021E
:1008400093409C4391400C43C46270BD816841F069
:100850000801816070470029816802D041F4A0013D
:1008600001E021F4A00181607047F0B500234C1E27
:1008700015E00022CE1A761E0DE000EB820C50F837
:100880002250DCF80470BD4203D940F82270CCF845
:100890000450521CD2B29642EFDC5B1CDBB2A34286
:1008A000E7DB8068F0BD816841F00401816070473A
:1008B00070B5012006F0CFF8022000F04FFA164C78
:1008C0000021204600F056FA144D00212846FFF77B
:1008D00008FD11490839886820F0010088602D2042
:1008E000C860886840F0010088600121204600F05F
:1008F00041FA02212846FFF7F1FC01212846FFF7C3
:10090000F0FC01212846FFF7A6FF022000F0A8FA1C
:100910000028FAD070BD0000080002400024014009
:10092000FEE7C1B2000A40EA012070472DE9F84F06
:10093000DFF834B14BF68F7648F6BF774A4C4B4D13
:1009400040F68F7948F60F780BF1440BDFF820A1C1
:1009500032E000BF47F6FF7010600888454A10F08B
:100960000F00107032D0444901EB8001D1F8002C07
:1009700092B2009212040BD5D1F8002C02EA0902BF
:10098000C1F8002C3D4901EB800050F8040C804771
:100990000098000610D537483749007801EB8001F0
:1009A000D1F8002C02EA0802C1F8002C344901EB0E
:1009B000800050F8040C8047DBF800005A4651468E
:1009C000AAF800000004C5D4BDE8F88F2068C0F381
:1009D0000130000328802068C0F301100001688006
:1009E0002068304080F4005020602068384080F05B
:1009F000200020600888C00603D5206880B2010668
:100A000016D5206800EA0800206001F039F920E0DE
:100A1000890401D580F4005020602068698838403E
:100A2000CA061ED4890601D580F020002060CBE7DD
:100A3000010506D5206800EA0900206005F07CFA6F
:100A400007E00004B8D5206800EA0900206003F040
:100A5000CDFE206829883040CA04D9D580F4805062
:100A6000D6E780F01000DDE7005C00409A0100202E
:100A7000A40000208801002000500040C400002095
:100A8000A8000020810008480844D0F8001C490450
:100A900008D5D0F8001C48F68F72114041F480410F
:100AA000C0F8001C7047000000500040810008485A
:100AB0000844D0F8001C490608D5D0F8001C48F6B8
:100AC0008F72114041F04001C0F8001C70470000D7
:100AD00000500040810005480844D0F8001C48F64A
:100AE0008F621140C0F8001C7047000000500040A9
:100AF000124910B50A680628117801F07F0103D168
:100B0000012901D1537913B121290AD013E090783A
:100B1000222802D0212802D00DE0094904E0094929
:100B200002E0032807D1084929B1002091615082D1
:100B30008847002010BD022010BD00008C0100205D
:100B40008D0B0008650B0008710B0008014905F0CA
:100B5000B3BA0000F0000020014905F0ADBA000072
:100B6000E8000020014905F0A7BA000000010020BC
:100B700008B1044870470449012009680882002030
:100B800070470000E40000208C010020014905F0BE
:100B900093BA0000F800002005490968C9780429C3
:100BA00001D900207047034A02EBC10105F084BA65
:100BB0008C0100203801002009B9002800D0022053
:100BC0007047000006490968097801F07F01212972
:100BD00001D10B2801D00220704700F093B800002B
:100BE0008C01002070B53648002100688172C17206
:100BF0003449C9794172002005F068F84FF4007457
:100C00002146002005F024F91021002005F0FAF813
:100C10001821002005F082F85821002005F0D4F8B2
:100C20000020FFF757FF284890F82C10002005F00F
:100C300085F8002005F0B8F84FF4C065294601207A
:100C400005F006F96110012005F0BEF84FF482713D
:100C5000012005F063F80421012005F0C5F8042106
:100C6000012005F06BF8EE003146012005F086F812
:100C70002021012005F0C6F82946022005F0E8F8F9
:100C80002146022005F0A0F8211D022005F046F8BB
:100C90000421022005F0A8F80421022005F04EF8F6
:100CA0003146022005F06AF82021022005F0AAF85A
:100CB000064901200860BDE87040002005F00EB82C
:100CC0008C010020566F0008080100207C010020E4
:100CD00006480068807A002806D00549052008608B
:100CE00001210448FFF7B7BD704700008C010020C8
:100CF0007C01002000240140014904200860704765
:100D00007C010020034804490068C0780860002086
:100D1000704700008C010020E400002070477047FD
:100D200010B500F087FF094800240068847203F0C2
:100D3000B1FD0748046007494FF43F40088004496B
:100D4000091F08600448046010BD00008C010020E9
:100D5000445C0040980100207C010020C10002D5C5
:100D60000249086070470249486070470404024025
:100D7000000002400029016802D041F0010101E0B9
:100D800021F0010101607047016821F0010101605B
:100D90000021016041608160C1602D4B2C49C21A65
:100DA0008039984243D018DC2A4BA0EB03029842CA
:100DB00035D00ADC284A801829D014282BD02828BE
:100DC00024D1486840F4706034E0142A2BD0282ADB
:100DD0001CD1486840F470002CE02048B2F56C7FCC
:100DE0002ED009DCB2F5627F26D0B2F5677F0DD137
:100DF000016841F0F00108E0B2F5717F24D0B2F54E
:100E0000767F03D1016841F4702101607047486822
:100E100040F00F000EE0486840F0F0000AE048683B
:100E200040F4704006E0486840F4702002E04868F2
:100E300040F0706048607047016841F00F01E4E7DE
:100E4000016841F47061E0E7016841F47041DCE75A
:100E50008000024044000240F8FFFDBF040402404D
:100E600001460020CA0001D5034A00E0034A126887
:100E70000A4200D0012070470004024000000240F6
:100E800030B5036847F6F07293430C6A8A682243D0
:100E9000D1E904452C4322438C692243CC69224387
:100EA0004C6A22438C6A22431A430260CA68426039
:100EB0000A6882604968C16030BD00002DE9F047D2
:100EC000DFF89480254F4FF03009D8F8001001F179
:100ED0001005088A0E7A08B9042E04D0AC88A04206
:100EE00015D8042614E01E480178012903D00726EE
:100EF000102038802BE01B4A002112681A4B120484
:100F000003EBD2325160A7F8009001701FE0022677
:100F1000844200D90446A9682046884782460020BA
:100F200000F07AFE01462246504605F03BFB214682
:100F3000002004F059FF28880C49001B288068888D
:100F400020446880A7F800904FF440500880D8F8FB
:100F500000000672BDE8F0878C0100209C01002093
:100F600084010020505C0040006000409A01002095
:100F70002DE9F047224EDFF88C803027356835F8B0
:100F8000100FA968A9B100B3AC88844200D9044607
:100F90002046884781462888001B2880688820448E
:100FA0006880002000F028FE01462246484603F0F3
:100FB0003DFC288848B114494FF440500880002176
:100FC000084604F011FFA8F800702888A988884214
:100FD00001D3032001E020B1052031680872BDE88B
:100FE000F087316806200872084900200968084A1D
:100FF000090402EBD1314860A8F80070EFE7000067
:101000008C0100209C0100209A010020505C0040CF
:1010100000600040F8B55D4C5D4D09262068002752
:1010200029684278062A05D0AAB1082A4DD00A2A92
:1010300050D06BE00278520668D18078012804D045
:10104000022804D0032804D060E0C96956E0096A88
:1010500054E0496A52E04288B2BBC288022A55D1A4
:1010600002798ABB0278530601D1838833B102F03A
:101070007F02012A04D0022A0CD047E045493DE016
:101080008A69407900219047F0B92068807A002869
:10109000F4D13BE0417901F00F0001F070020B0642
:1010A0003D4901EB8001D1F8001C03D5C1F30111CA
:1010B000090102E0C1F301310903384B1B78834277
:1010C00024D90AB90029D9D120E0007840061DD1E1
:1010D000334913E0027802F07F02012A16D1827AA6
:1010E000A2B1428892B9027982B9C288012A0DD18F
:1010F0008A6940790021904740B92A4931B1206876
:101100004782816100208847002006E02968206826
:10111000096940788847032813D021680A8AA2F514
:101120007F43FF3B0BD002280ED06AB1087800063F
:1011300026D5C888009082420AD9088218E00E722B
:10114000F8BD20680672F8BD4FF008000872F8BDBF
:101150000ED22868144B90F82C00824201D21F70E6
:1011600006E0B2FBF0F400FB142008B9012018706F
:10117000286890F82C008882BDE8F840FFF79EBEF2
:1011800003200872094900030880F8BD8C01002083
:1011900090010020FD60000800500040E0000020A9
:1011A00091600008D5600008840100209A010020A9
:1011B000704700002DE9F0413D4CDFF8F880012137
:1011C00014F8150F207460786074A078A074E0782B
:1011D000E0742079207560796075A079A075E07958
:1011E000E075207A2076607A6076A07AA076E07A40
:1011F000E076207B2077607B6077A07BA077E07B28
:10120000E077404600F0ECFC20700221404600F000
:10121000E7FC60701021404600F0E2FCA070202145
:10122000404600F0DDFC244EE0704FF40065294696
:10123000304600F0D5FC20716F003946304600F092
:10124000CFFC60710421404600F0CAFCA071082167
:10125000404600F0C5FC194EE071A910304600F080
:10126000BFFC20726910304600F0BAFC6072A90021
:10127000304600F0B5FCA072E900304600F0B0FC4A
:10128000E0724021404600F0ABFC207380214046D4
:1012900000F0A6FC60732946304600F0A1FCA07364
:1012A0003946304600F09CFCE073BDE8F081000058
:1012B00008000020001401400010014000200140FF
:1012C0002DE9F05F40F601040B21204605F03AFBC2
:1012D0004FF410650B21284605F034FB40F601263B
:1012E0000B21304605F02EFB0B210F02384605F08E
:1012F00029FB40F601480B21404605F023FB4FF443
:1013000050690B21484605F01DFB40F6016A0B2190
:10131000504605F017FB4FF4706B0B21584605F053
:1013200011FB0C21204605F00DFB0C21284605F091
:1013300009FB0C21304605F005FB0C21384605F071
:1013400001FB0C21404605F0FDFA0C21484605F052
:10135000F9FA0C21504605F0F5FA5846BDE8F05F61
:101360000C2105F0EFBA00002DE9F05FFFF722FF36
:10137000FE4C0E200221667D032200230125012E52
:1013800002D0AEB102D016E0A77D1FB1A77D012F1C
:101390001FD010E0667BFEB9657394F83E60761C42
:1013A000F6B284F83E600E2E16D384F83E0013E0A9
:1013B000A77D012F03D0A77D3E430CD00CE0667BB8
:1013C00056B9617394F83E6036B1761E84F83E607B
:1013D00002E0627300E06373E67D012E02D0AEB1DD
:1013E00002D016E0277E1FB1277E012F1FD010E00C
:1013F000A67BFEB9A57394F83F60761CF6B284F81C
:101400003F600E2E16D384F83F0013E0277E012F95
:1014100003D0277E3E430CD00CE0A67B56B9A173C7
:1014200094F83F6036B1761E84F83F6002E0A27304
:1014300000E0A373667E012E02D0AEB102D016E0AA
:10144000A77E1FB1A77E012F1FD010E0E67BFEB95B
:10145000E57394F84060761CF6B284F840600E2E76
:1014600016D384F8400013E0A77E012F03D0A77E97
:101470003E430CD00CE0E67B56B9E17394F8406033
:1014800036B1761E84F8406002E0E27300E0E37358
:10149000E67E012E02D0AEB102D016E0277F1FB14A
:1014A000277F012F1FD010E0267CFEB9257494F809
:1014B0004160761CF6B284F841600E2E16D384F893
:1014C000410013E0277F012F03D0277F3E430CD03C
:1014D0000CE0267C56B9217494F8416036B1761E32
:1014E00084F8416002E0227400E02374667F012EDC
:1014F00002D0AEB102D016E0A77F1FB1A77F012FA7
:101500001FD010E0667CFEB9657494F84260761CCA
:10151000F6B284F842600E2E16D384F8420013E02F
:10152000A77F012F03D0A77F3E430CD00CE0667C41
:1015300056B9617494F8426036B1761E84F8426000
:1015400002E0627400E06374E67F012E02D0BEB157
:1015500003D019E094F8207027B194F82070012F7F
:1015600021D011E0A67CFEB9A57494F84360761CE6
:10157000F6B284F843600E2E18D384F8430015E0C9
:1015800094F82070012F04D094F820703E430CD0C2
:101590000CE0A67C46B9A17494F8436026B1761E8F
:1015A00084F8436002E0A27400E0A37494F8216020
:1015B000012E02D0BEB103D019E094F8227027B1F9
:1015C00094F82270012F21D011E0E67CFEB9E57479
:1015D00094F84460761CF6B284F844600E2E18D35A
:1015E00084F8440015E094F82270012F04D094F898
:1015F00022703E430CD00CE0E67C46B9E17494F8CE
:10160000446026B1761E84F8446002E0E27400E093
:10161000E37494F82360012E02D0C6B103D01AE01F
:1016200094F8241021B194F82400012820D012E06D
:10163000217D01BB257594F84510491CC9B284F879
:1016400045100E2917D300BF84F8450013E094F825
:101650002400012804D094F8240006430AD00AE0AC
:10166000207D40B9217594F8450020B1401EEBE77C
:10167000227500E0237514F8360F4FF410692074BA
:1016800061786174A178A174E178E17421792175A0
:1016900061796175A179A175E179E175217A21708E
:1016A000627A6270A27AA270E27AE270227B227180
:1016B000627B6271A27BA271E27BE271363C4FF4E5
:1016C000006688421ED0312003F088F994F8360075
:1016D00008280AD205FA00F0C0B240F400600B21DD
:1016E00005F030F90B2148460AE0083805FA00F009
:1016F000C0B240F410600B2105F024F90B213046F4
:1017000005F020F994F8470094F837104FF4506A28
:101710004FF4406B88421ED0322003F05FF994F8FA
:10172000370008280AD205FA00F0C0B240F4406041
:101730000B2105F007F90B2150460AE0083805FA9D
:1017400000F0C0B240F450600B2105F0FBF80B2113
:10175000584605F0F7F894F8480094F838104FF41C
:101760003067884223D0332002E0000008000020C8
:1017700003F034F994F8380008280AD205FA00F08A
:10178000C0B240F420600B2105F0DCF80B21384694
:101790000BE0083805FA00F0C0B240F430600B21CD
:1017A00005F0D0F80B214FF4206005F0CBF894F849
:1017B000490094F839104FF4706888421FD03420E3
:1017C00003F00CF994F8390008280AD205FA00F061
:1017D000C0B240F460600B2105F0B4F80B21404624
:1017E0000BE0083805FA00F0C0B240F470600B213D
:1017F00005F0A8F80B214FF4606005F0A3F894F809
:101800004A0094F83A1088421ED0352003F0E6F8DA
:1018100094F83A0008280AD205FA00F0C0B240F461
:1018200000600C2105F08EF80C2148460AE00838CB
:1018300005FA00F0C0B240F410600C2105F082F807
:101840000C21304605F07EF894F84B0094F83B10DC
:1018500088421ED0362003F0C1F894F83B000828D7
:101860000AD205FA00F0C0B240F440600C2105F045
:1018700069F80C2150460AE0083805FA00F0C0B2B9
:1018800040F450600C2105F05DF80C21584605F03D
:1018900059F894F84C0094F83C1088421FD0372037
:1018A00003F09CF894F83C0008280AD205FA00F0EE
:1018B000C0B240F420600C2105F044F80C213846F9
:1018C0000BE0083805FA00F0C0B240F430600C219B
:1018D00005F038F80C214FF4206005F033F894F847
:1018E0004D0094F83D1088421FD0382003F076F860
:1018F00094F83D00082809D28540E8B240F46060C1
:101900000C2105F01FF80C2140460AE008388540FC
:10191000E8B240F470600C2105F014F80C214FF48B
:101920006060BDE8F05F05F00DB8BDE8F09F000015
:1019300010B504224FF48271054802F077FF4FF48E
:101940004051012004F01AFA02490120087010BD2C
:10195000040000200F0000200149032008607047A8
:101960007C0100202DE9F84F012140F2FD1002F02A
:10197000C9FF0121574800F00FF94FF0FF08ADF8FB
:10198000008000248DF803406946534800F0B2F807
:101990000120ADF80000514E8DF8034069463046F5
:1019A00000F0A8F84FF47040ADF800004FF048097F
:1019B0008DF803906946304600F09CF87820ADF829
:1019C000000002258DF8025010248DF8034069466E
:1019D000304600F08FF87821304600F008F94FF4D7
:1019E000C050ADF80000DFF8F8A004268DF80360C1
:1019F0006946504600F07EF8A701ADF800708DF8FA
:101A000003406946504600F075F83946504600F0EC
:101A1000EEF8ADF80080DFF8CC808DF80360694601
:101A2000404600F067F8E002ADF800008DF8034092
:101A30006946404600F05EF83946504600F0D9F855
:101A40004FF4FF47ADF80070DFF89C808DF802502E
:101A50008DF803406946404600F04CF83946404650
:101A600000F0C5F8A002ADF80000DFF880808DF826
:101A700003906946404600F03DF84FF42047ADF82A
:101A800000708DF802508DF803406946404600F022
:101A900031F83946404600F0AAF84FF4FC40ADF862
:101AA00000008DF80360124E6946304600F022F8BF
:101AB0000320ADF800008DF802508DF80340694610
:101AC000304600F017F80321304600F090F8BDE8EA
:101AD000F88F00000002300000080140000C0140B7
:101AE000001001400014014000180140001C01409A
:101AF00000200140F0B5CA78002502F00F03D2069D
:101B000001D58A7813430A784FF00F0E12F0FF0FB9
:101B10004FF001021CD004680F8802FA05F6374026
:101B2000B74211D14FEA850C0EFA0CF724EA0707E9
:101B300003FA0CF43C43CF78282F02D0482F02D070
:101B400002E0466100E006616D1C082DE4D30460EC
:101B50000C88FF2C1ED944685FF0000606F10807C8
:101B600002FA07F50F882F40AF420FD14FEA860CDB
:101B70000EFA0CF7BC4303FA0CF73C43CF78282F3E
:101B800000D14561CF78482F00D10561761C082E21
:101B9000E4D34460F0BD0000F0B5104D6A68440D18
:101BA000260184B2C0F30157B440C0F30343032FAE
:101BB00005D0C0020AD503209840824307E0686838
:101BC00022F0706320F07060686002E0A24342F08F
:101BD000706301B123436B60F0BD00000000014061
:101BE0000246002092680A4200D0012070474161FD
:101BF00070470161704700000549096889B201EB2F
:101C0000C000044901EB4000008980B27047000029
:101C1000505C0040006000400449096889B201EB53
:101C2000C000034931F8100080B27047505C00409A
:101C3000006000400F4810B50168001D0368001DDA
:101C40000029026815D00C480C0A817004710C0C34
:101C50008471090E01728372190A0173190C817360
:101C6000190E01748274110A0175110C8175110E1F
:101C7000017610BDE8F7FF1F88000020FEE7000096
:101C800010B5134C2068017A022904D0042902D02F
:101C9000062905D015E0FFF711F92068007A11E058
:101CA0004178052909D10178490606D1C07804F0A8
:101CB00015F808480068006A80470748006880688F
:101CC0008047082021680872BDE8104002F0C0BDBE
:101CD0008C010020940100209001002070B5224D5D
:101CE000002006466870082E1CD2DFE806F00407C4
:101CF0000A0D101316194FF4006413E04FF410642A
:101D000010E04FF420640DE04FF430640AE04FF42B
:101D1000406407E04FF4506404E04FF4606401E075
:101D20004FF47064697844EA0100022104F00AFE6D
:101D3000697844EA0100042104F004FE697844EA69
:101D40000100062104F0FEFD697844EA0100082143
:101D500004F0F8FD68780A21204304F0F3FD761CB6
:101D6000F6B2082EBFD370BD0800002010B50120C8
:101D700004F0B2FC2E4CA070032004F0ADFCE07027
:101D8000052004F0A9FC2071072004F0A5FC607177
:101D9000092004F0A1FCA07194F8541084F85510A7
:101DA000A2780221AAB1E278F2B122793AB362793B
:101DB00082B300283AD1A17109203C3404F05CFDC3
:101DC000E077014620760920A076BDE8104002F0B9
:101DD00029BEA1700120383404F04EFDE0770146A1
:101DE00020770120A077F0E7E1700320393404F078
:101DF00043FDE0770146E07603206077E5E7217157
:101E000005203A3404F038FDE0770146A07605203D
:101E10002077DAE7FFE7617107203B3404F02CFDFF
:101E2000E077014660760720E076CEE710BD00003F
:101E3000080000202DE9F04F002606270525032283
:101E400002230124FC494FF020094FF01F0A4FF0F4
:101E50001E0B4FF01D0E4FF0070C402875D2DFE827
:101E600000F020272E353C434A51585F666D75803F
:101E7000878E959CA3AAB1B8BFEFF6FDEBEAE9E81F
:101E8000E7E6E5E4E3E2E1E0DFDEDDDCDBDAD9D85A
:101E9000D7D6D5D4D3D2D1D0CFCECDCCCBCAC9C84A
:101EA000C7C691F8610081F8620081F86140EBE1FA
:101EB00091F8610081F8620081F86140EFE191F8EA
:101EC000610081F8620081F86140F3E191F86100FE
:101ED00081F8620081F86140F7E191F8610081F8D2
:101EE000620081F8614037E091F8610081F862009A
:101EF00081F86140FBE191F8610081F8620081F8AE
:101F00006140FFE191F8610081F8620081F8614071
:101F100003E291F8610081F8620081F86130B3E179
:101F200091F8610081F8620081F86130B7E191F8C1
:101F3000610081F8620081F86130BBE191F86100D5
:101F400081F8620081F86130BFE13BE191F8610006
:101F500081F8620081F8613011F85D0FC8700420CB
:101F60002FE191F8610081F8620081F86130BEE1F3
:101F700091F8610081F8620081F86130C2E191F866
:101F8000610081F8620081F86130C6E191F861007A
:101F900081F8620081F8613097E091F8610081F882
:101FA000620081F861309BE091F8610081F8620085
:101FB00081F861309FE091F8610081F8620081F85A
:101FC0006130A3E091F8610081F8620081F861302E
:101FD000A7E091F8610081F8620081F86130ABE020
:101FE00091F8610081F8620081F86130AFE08EE124
:101FF00082E176E16EE162E156E14AE13EE135E1FE
:102000002CE123E11AE10FE106E1FDE0F4E0EBE071
:10201000E2E0D9E0CBE0C2E0B9E0B0E0A7E09BE0CD
:102020008FE083E077E06BE05FE053E047E03FE084
:1020300037E02FE027E01FE017E00FE007E0FFE7C1
:1020400091F8610081F8620081F861308AE091F8CE
:10205000610081F8620081F8612015E191F861006A
:1020600081F8620081F8612019E191F8610081F83E
:10207000620081F861201DE191F8610081F8620041
:1020800081F8612021E191F8610081F8620081F816
:10209000612061E791F8610081F8620081F86120B8
:1020A00025E191F8610081F8620081F8612029E161
:1020B00091F8610081F8620081F861202DE191F8CA
:1020C000610081F8620081F8612011F85D0FC8702D
:1020D000192076E091F8610081F8620081F86120B2
:1020E00011F85D0FC8701A206BE091F8610081F85B
:1020F000620081F8612011F85D0FC8701B2060E05C
:1021000091F8610081F8620081F8612011F85D0F9B
:10211000C8701C2055E091F8610081F8620081F8D8
:10212000612011F85D0FC87070464AE091F86100B7
:1021300081F8620081F8612011F85D0FC87058467F
:102140003FE091F8610081F8620081F8612011F8A8
:102150005D0FC870504634E091F8610081F862006C
:1021600081F8612011F85D0FC870484629E091F8A8
:10217000610081F86200042081F8610084E091F838
:10218000610081F86200042081F8610087E091F825
:10219000610081F86200042081F861008AE091F812
:1021A000610081F86200042081F861008DE091F8FF
:1021B000610081F86200042081F8610011F85D2F50
:1021C000CA700870BDE8F08F91F8610081F8620074
:1021D000042081F861008AE091F8610081F86200D2
:1021E000042081F861008DE091F8610081F86200BF
:1021F000042081F8610090E091F8610081F86200AC
:10220000042081F8610060E791F8610081F86200C4
:10221000042081F8610063E791F8610081F86200B1
:10222000042081F8610066E791F8610081F862009E
:10223000042081F8610069E70800002091F861003E
:1022400081F86200042081F861006AE791F861007A
:1022500081F86200042081F861006DE791F8610067
:1022600081F86200042081F8610070E791F8610054
:1022700081F86200042081F8610073E791F8610041
:1022800081F8620081F8615011F85D0FC8700E701E
:1022900098E791F8610081F8620081F8615011F8C7
:1022A0005D0FC8700C708DE791F8610081F86200D5
:1022B00081F8615011F85D0FC8700B7082E791F8DA
:1022C000610081F8620081F8615011F85D0FC870FB
:1022D0000A7077E791F8610081F8620081F8615037
:1022E0003AE691F8610081F8620081F8615011F8D6
:1022F0005D0FC8700D7065E791F8610081F86200AC
:1023000081F8615011F85D0FC8700F705AE791F8AD
:10231000610081F8620081F8615011F85D0FC870AA
:1023200081F800C04EE700002DE9F04F0B27062290
:102330000523042403264FF0250A4FF0240B4FF009
:10234000230E4FF00A0902254FF0010CFC494028EA
:1023500077D2DFE800F020272E353C434A55606BEA
:10236000778289949BA8B3BAC1F5FCF2F1F0EFEE45
:10237000EDECEBEAE9E8E7E6E5E4E3E2E1E0DFDE05
:10238000DDDCDBDAD9D8D7D6D5D4D3D2D1D0CFCEF5
:10239000CDCCCBCAC9C891F8610081F8620081F840
:1023A00061C03EE091F8610081F8620081F861C08F
:1023B00042E091F8610081F8620081F861C047E075
:1023C00091F8610081F8620081F861C015E291F82E
:1023D000610081F8620081F861C04BE091F8610012
:1023E00081F8620081F8613010E091F8610081F8B5
:1023F000620081F8612011F85D0FC870002024E2AE
:1024000091F8610081F8620081F8612011F85D0F98
:10241000C870192019E291F8610081F8620081F812
:10242000615011F85D0FC87008200EE291F861004C
:1024300081F8620081F8615011F85D0FC8700920C1
:1024400003E22EE091F8610081F8620081F86150AA
:1024500011F85D0FC8704846F7E191F8610081F806
:10246000620081F86150C8E191F8610081F8620072
:1024700081F8615011F85D0FC8700C20E5E191F80A
:10248000610081F8620081F8613012E091F861002A
:1024900081F8620081F8612011F85D0FC87081F841
:1024A00000C0BDE8F08F91F8610081F8620081F80A
:1024B000612011F85D0FC8701A20C6E191F8610023
:1024C00081F8620081F86150ABE091F8610081F819
:1024D000620081F86150AFE091F8610081F862001C
:1024E00081F86150B3E0A6E19AE192E18AE17EE1F0
:1024F00076E16EE166E15AE14EE146E13EE136E128
:102500002EE126E11EE10FE103E1FBE0F3E0EBE069
:10251000E3E0DBE0D3E0C7E0BBE0B3E0A7E09BE0B3
:102520008FE083E077E06BE05FE057E04FE047E06B
:102530003FE037E02FE023E017E00FE007E0FFE7A0
:1025400091F8610081F8620081F861508AE091F8A9
:10255000610081F8620081F861508EE091F86100BD
:1025600081F8620081F8613010E091F8610081F833
:10257000620081F8612011F85D0FC8700D7090E75E
:1025800091F8610081F8620081F8612011F85D0F17
:10259000C8701B2059E191F8610081F8620081F850
:1025A00061603EE791F8610081F8620081F8616046
:1025B00042E791F8610081F8620081F8616047E7C5
:1025C00091F8610081F8620081F8616015E191F88D
:1025D000610081F8620081F861604BE791F8610069
:1025E00081F8620081F8613010E091F8610081F8B3
:1025F000620081F8612011F85D0FC8700E7050E71D
:1026000091F8610081F8620081F8612011F85D0F96
:10261000C8701C2019E191F8610081F8620081F80E
:10262000616011F85D0FC87021200EE191F8610022
:1026300081F8620081F8616011F85D0FC870222096
:1026400003E191F8610081F8620081F8616011F89E
:102650005D0FC8707046F8E091F8610081F8620083
:1026600081F8616011F85D0FC8705846EDE091F88F
:10267000610081F8620081F8616011F85D0FC87037
:102680005046E2E091F8610081F8620081F8613023
:1026900010E091F8610081F8620081F8612011F882
:1026A0005D0FC8700C70FCE691F8610081F8620063
:1026B00081F8612011F85D0FC8701D20C5E091F808
:1026C000610081F8620081F86140AAE691F861003A
:1026D00081F8620081F86140AEE691F8610081F80E
:1026E000620081F86140B3E691F8610081F8620010
:1026F00081F8614081E091F8610081F8620081F821
:102700006140B7E691F8610081F8620081F86130BC
:1027100010E091F8610081F8620081F8612011F801
:102720005D0FC8700B70BCE691F8610081F8620023
:1027300081F8612011F85D0FC8701E2085E000004F
:102740000800002091F8610081F8620081F8614082
:1027500067E791F8610081F8620081F861406BE7FA
:1027600091F8610081F8620081F861406FE791F8AB
:10277000610081F8620081F8614073E791F86100BF
:1027800081F8620081F8614077E791F8610081F893
:10279000620081F8613010E091F8610081F8620018
:1027A00081F8612011F85D0FC8700A7079E691F820
:1027B000610081F8620081F8612011F85D0FC87036
:1027C0001F2042E091F8610081F8620081F86130D9
:1027D00027E691F8610081F8620081F861302BE60C
:1027E00091F8610081F8620081F8613030E691F87B
:1027F000610081F8620081F8613011F85D0FC870E6
:102800000F704EE691F8610081F8620081F8613046
:1028100030E691F8610081F8620081F8613010E0E3
:1028200091F8610081F8620081F8612011F85D0F74
:10283000C870072009E091F8610081F8620081F812
:10284000612011F85D0FC8702020087029E6000093
:102850002DE9F04F11270626052504220323022423
:10286000FF494FF02A0E4FF010094FF00F0A4FF0BA
:102870000E0B4FF0010C40286FD2DFE800F020274C
:10288000323940474E555C636F7A85909BA2ADB458
:10289000BFF2F9EFEEEDECEBEAE9E8E7E6E5E4E3B9
:1028A000E2E1E0DFDEDDDCDBDAD9D8D7D6D5D4D380
:1028B000D2D1D0CFCECDCC6ECBCAC9C8C7C691F8C5
:1028C000610081F8620081F8615092E091F8610046
:1028D00081F8620081F8616011F85D0FC8700B200B
:1028E000FFE191F8610081F8620081F861C03BE08E
:1028F00091F8610081F8620081F861C03FE091F8D1
:10290000610081F8620081F861C043E091F86100E4
:1029100081F8620081F861C047E091F8610081F8B8
:10292000620081F861C001E291F8610081F8620003
:1029300081F861C04BE091F8610081F8620081F894
:102940006150BEE091F8610081F8620081F8616039
:1029500011F85D0FC8700C20C3E1C3E191F861006C
:1029600081F8620081F8614011F85D0FC8700D2098
:10297000B7E191F8610081F8620081F8614011F8D7
:102980005D0FC8705846ACE191F8610081F86200B3
:1029900081F8614011F85D0FC8705046A1E191F8CF
:1029A000610081F8620081F8614011F85D0FC87024
:1029B000484696E191F8610081F8620081F8614033
:1029C000B4E191F8610081F8620081F8614011F88A
:1029D0005D0FC870122084E191F8610081F86200F7
:1029E00081F86150A9E091F8610081F8620081F8F6
:1029F000616011F85D0FC870212072E191F86100EB
:102A000081F8620081F86140A2E094E188E180E110
:102A100078E170E168E15AE152E14AE142E13AE1EC
:102A200032E12AE11EE10FE107E1FFE0F7E0EFE02C
:102A3000E7E0DFE0D3E0C7E0BBE0AFE0A3E097E092
:102A40008BE07FE073E06BE063E05BE053E04BE042
:102A500043E03BE02FE027E01FE017E00FE007E056
:102A6000FFE791F8610081F8620081F861407AE047
:102A700091F8610081F8620081F861407EE091F890
:102A8000610081F8620081F8614082E091F86100A4
:102A900081F8620081F8614086E091F8610081F878
:102AA000620081F861408AE091F8610081F862007B
:102AB00081F8615099E091F8610081F8620081F835
:102AC000616011F85D0FC87022200AE191F8610081
:102AD00081F8620081F8613046E791F8610081F881
:102AE000620081F861304AE791F8610081F8620084
:102AF00081F861304EE791F8610081F8620081F859
:102B0000613052E791F8610081F8620081F861302C
:102B10000CE191F8610081F8620081F8613056E7BC
:102B200091F8610081F8620081F86150A0E091F8AD
:102B3000610081F8620081F8616011F85D0FC87072
:102B40002320CEE091F8610081F8620081F86130C5
:102B500011F85D0FC8702620C3E091F8610081F87C
:102B6000620081F8613011F85D0FC8702720B8E06D
:102B700091F8610081F8620081F8613011F85D0F11
:102B8000C8702820ADE091F8610081F8620081F8FA
:102B9000613011F85D0FC8702920A2E091F8610042
:102BA00081F8620081F8613011F85D0FC8707046DD
:102BB00097E091F8610081F8620081F8613011F8C6
:102BC0005D0FC8702B208CE091F8610081F86200E5
:102BD00081F8616011F85D0FC870082081E091F8FC
:102BE000610081F8620081F8616011F85D0FC870C2
:102BF000242076E091F8610081F8620081F861207C
:102C0000B2E691F8610081F8620081F86120B6E6D1
:102C100091F8610081F8620081F86120BAE691F8CC
:102C2000610081F8620081F86120BEE691F86100E0
:102C300081F8620081F8612078E091F8610081F804
:102C4000620081F86120C2E691F8610081F86200BB
:102C500081F8616011F85D0FC870092041E0000043
:102C60000800002091F8610081F8620081F861603D
:102C700011F85D0FC870252033E091F8610081F8EC
:102C8000620081F8612063E791F8610081F86200D9
:102C900081F8612067E791F8610081F8620081F8AE
:102CA00061206BE791F8610081F8620081F8612092
:102CB0006FE791F8610081F8620081F8612073E7A5
:102CC00091F8610081F8620081F8612077E791F85E
:102CD000610081F8620081F8616011F85D0FC870D1
:102CE0000A200870BDE8F08F91F8610081F8620059
:102CF00081F8615038E691F8610081F8620081F84E
:102D000061503CE691F8610081F8620081F8615001
:102D100040E691F8610081F8620081F8615044E674
:102D200091F8610081F8620081F8615011F85D0F3F
:102D3000C8700F70D6E791F8610081F8620081F8E1
:102D4000615044E62DE9F04F17270626052204239B
:102D500003240225FC494FF016094FF0150A4FF0E5
:102D6000140B4FF0130E4FF0010C40286FD2DFE828
:102D700000F020272E353C434A5158636F7A858CEA
:102D800097A2ADB4BBEFF6FDEBEAE9E8E7E6E5E4D0
:102D9000E3E2E1E0DFDEDDDCDBDAD9D8D7D6D5D47B
:102DA000D3D2D1D0CFCECDCCCBCAC9C8C7C6C5C46B
:102DB000C3C291F8610081F8620081F861C036E019
:102DC00091F8610081F8620081F861C03AE091F801
:102DD000610081F8620081F861C03FE091F8610014
:102DE00081F8620081F861C043E091F8610081F8E8
:102DF000620081F861C00BE291F8610081F8620025
:102E000081F861C047E091F8610081F8620081F8C3
:102E10006120B8E091F8610081F8620081F86120DA
:102E2000BCE091F8610081F8620081F8615011F80E
:102E30005D0FC87070460DE291F8610081F8620084
:102E400081F8615011F85D0FC870584602E2E3E165
:102E500091F8610081F8620081F8615011F85D0F0E
:102E6000C8705046F6E191F8610081F8620081F87F
:102E7000615011F85D0FC8704846EBE191F86100B0
:102E800081F8620081F86150C2E191F8610081F837
:102E9000620081F8615011F85D0FC8701820D9E107
:102EA00091F8610081F8620081F8616011F85D0FAE
:102EB000C8700D20CEE191F8610081F8620081F8C0
:102EC000616011F85D0FC8700E20C3E191F86100D8
:102ED00081F8620081F86150A3E091F8610081F807
:102EE000620081F86150A7E091F8610081F862000A
:102EF00081F86150ABE0A3E197E18FE182E17AE1F3
:102F000072E16AE162E156E14AE142E13AE132E12D
:102F10002AE122E11AE10BE1FFE0F7E0EFE0E7E070
:102F2000DFE0D7E0CFE0C3E0B7E0ABE09FE093E0C5
:102F300087E07BE06FE067E05FE057E04FE047E06D
:102F40003FE037E02FE023E017E00FE007E0FFE786
:102F500091F8610081F8620081F8615082E091F897
:102F6000610081F8620081F8615086E091F86100AB
:102F700081F8620081F861508AE091F8610081F87F
:102F8000620081F8616011F85D0FC870262061E170
:102F900091F8610081F8620081F8616011F85D0FBD
:102FA000C870272056E191F8610081F8620081F82D
:102FB00061403CE791F8610081F8620081F861406E
:102FC00040E791F8610081F8620081F8614045E7CF
:102FD00091F8610081F8620081F8614049E791F859
:102FE000610081F8620081F8614011E191F86100AF
:102FF00081F8620081F861404DE791F8610081F845
:10300000620081F861208EE091F8610081F8620031
:1030100081F8612092E091F8610081F8620081F806
:10302000614011F85D0FC8702C2013E191F8610028
:1030300081F8620081F8614011F85D0FC8702D20A1
:1030400008E191F8610081F8620081F8614011F8AF
:103050005D0FC8702E20FDE091F8610081F86200DC
:1030600081F8614011F85D0FC8702F20F2E091F8EF
:10307000610081F8620081F8614011F85D0FC8704D
:103080003020E7E091F8610081F8620081F861404A
:1030900011F85D0FC8703120DCE091F8610081F813
:1030A000620081F8616011F85D0FC8700F20D1E0F7
:1030B00091F8610081F8620081F8616011F85D0F9C
:1030C000C8701020C6E091F8610081F8620081F8B4
:1030D0006130ACE691F8610081F8620081F86130FE
:1030E000B0E691F8610081F8620081F86130B5E6E0
:1030F00091F8610081F8620081F86130B9E691F8D9
:10310000610081F8620081F8613081E091F861002E
:1031100081F8620081F86130BDE691F8610081F8C4
:10312000620081F8616011F85D0FC870282091E09D
:1031300091F8610081F8620081F8616011F85D0F1B
:10314000C870292086E000000800002091F8610086
:1031500081F8620081F8613063E791F8610081F8DD
:10316000620081F8613067E791F8610081F86200E0
:1031700081F861306BE791F8610081F8620081F8B5
:1031800061306FE791F8610081F8620081F8613089
:1031900073E791F8610081F8620081F8613077E7A8
:1031A00091F8610081F8620081F8612011F85D0FEB
:1031B000C8702A204EE091F8610081F8620081F821
:1031C000612011F85D0FC8702B2043E091F8610079
:1031D00081F8620081F8612029E691F8610081F8A8
:1031E000620081F861202DE691F8610081F86200AB
:1031F00081F8612032E691F8610081F8620081F87F
:10320000612036E691F8610081F8620081F8612062
:1032100011F85D0FC8700F70BDE8F08F91F8610074
:1032200081F8620081F8612035E691F8610081F84B
:10323000620081F8616011F85D0FC870112009E02B
:1032400091F8610081F8620081F8616011F85D0F0A
:10325000C87012200870DFE72DE9F04F30252D26C9
:103260002C2708220524FC4906234FF0310C4FF08F
:1032700015094FF0140A4FF0130B4FF02E0E3E2895
:1032800076D2DFE800F01F262D343F4A8080555C5F
:10329000636A768280808D98A3AEB9C48080CFEFB8
:1032A000F6FDEBEA8080E9E880E7E6E58080E4E38C
:1032B00080E2E1E08080DFDE80DDDCDB8080DAD967
:1032C00080D8D7D691F8610081F8620081F861401A
:1032D0006CE091F8610081F8620081F8614070E073
:1032E00091F8610081F8620081F8614074E091F822
:1032F000610081F8620081F8612011F85D0FC870EB
:103300000020B5E191F8610081F8620081F8612048
:1033100011F85D0FC8700120AAE191F8610081F8F1
:10332000620081F8612011F85D0FC87002209FE1F2
:1033300091F8610081F8620081F861305AE191F8FA
:10334000610081F8620081F861300AE191F8610062
:1033500081F8620081F861300EE191F8610081F836
:10336000620081F8612011F85D0FC87004207FE1D0
:1033700009E091F8610081F8620081F8612011F89C
:103380005D0FC8700C70BDE8F08F91F8610081F896
:10339000620081F8612011F85D0FC8700B70F2E7D0
:1033A00091F8610081F8620081F8613011F85D0FD9
:1033B000C8700F70E7E791F8610081F8620081F84A
:1033C000613011F85D0FC8700E70DCE791F8610094
:1033D00081F8620081F8613011F85D0FC8707046A5
:1033E00046E191F8610081F8620081F8612011F8EE
:1033F0005D0FC8700A70C6E791F8610081F862003D
:1034000081F8612011F85D0FC870092030E191F852
:10341000610081F8620081F8612011F85D0FC870C9
:103420000A2025E191F8610081F8620081F861408D
:10343000BFE013E104E1F8E0ECE0E0E0D4E0C8E054
:10344000BCE0B0E0A4E09CE090E084E077E06BE0DA
:103450005FE053E047E03BE033E027E01BE00FE0B4
:1034600007E0FFE791F8610081F8620081F86140B0
:1034700060E091F8610081F8620081F8614064E0E9
:1034800091F8610081F8620081F8612011F85D0F08
:10349000C8700C20ECE091F8610081F8620081F8BE
:1034A000612011F85D0FC8700D20E1E091F8610016
:1034B00081F8620081F8612011F85D0FC8700E205C
:1034C000D6E091F8610081F8620081F86130CBE0CC
:1034D00091F8610081F8620081F8613011F85D0FA8
:1034E000C8701820C4E091F8610081F8620081F88A
:1034F000612011F85D0FC8701020B9E091F86100EB
:1035000081F8620081F8612011F85D0FC870112008
:10351000AEE091F8610081F8620081F8612011F855
:103520005D0FC8701220A3E091F8610081F862007D
:1035300081F8613011F85D0FC8700D7023E791F8C4
:10354000610081F8620081F8613011F85D0FC87088
:1035500081F800C017E791F8610081F8620081F8F6
:10356000612011F85D0FC870504681E091F861004C
:1035700081F8620081F8612011F85D0FC87048463B
:1035800076E091F8610081F8620081F8612005E041
:1035900091F8610081F8620081F8613011F85D0FE7
:1035A000C870162064E091F8610081F8620081F82B
:1035B000613011F85D0FC8702F2059E091F861005B
:1035C00081F8620081F8612011F85D0FC870032056
:1035D0004EE091F8610081F8620081F8612011F8F5
:1035E0005D0FC8700B2043E091F8610081F8620024
:1035F00081F8612011F85D0FC870584638E091F8E5
:10360000610081F8620081F8613011F85D0FC870C7
:103610002A202DE091F8610081F8620081F8613084
:1036200011F85D0FC8702B2022E091F8610081F83D
:10363000620081F8612011F85D0FC870072017E063
:1036400091F8610081F8620081F8612011F85D0F46
:10365000C8700F200CE000000800002091F8610005
:1036600081F8620081F8612011F85D0FC8701720A1
:10367000087088E62DE9F04FDFF8FC8B0123A8F1F4
:103680002A02022404250826102702F11C014FF00B
:10369000200C4FF040094FF0800A4FF0030B002838
:1036A0007AD0012870D002286FD003286ED0042869
:1036B0006DD005286CD006286BD007286AD04FF053
:1036C000050E082867D009287DD00A287CD00B2851
:1036D0007BD00C287AD04FF0070B0D2877D00E281E
:1036E00076D00F2875D0102874D0112873D01228E6
:1036F00072D0132871D0142870D015286FD01628D6
:103700006ED017286DD018286CD1DE4688F800B02E
:103710004FF4506BA2F800B00B7088F801E0A2F8EB
:1037200002B04C7088F802E0A2F804B08D7088F8FE
:1037300003E0A2F806B0CE7088F804E0A2F808B062
:103740000F7188F805E0A2F80AB081F805C088F882
:1037500006E0A2F80CB081F8069088F807E0A2F81D
:103760000EB081F807A0092088F808004FF4206304
:1037700013820E7288F80900030253824F7288F890
:103780000A009382DAE207E04DE080E0BDE0F3E07A
:1037900028E161E19DE1D5E188F800304FF4006057
:1037A00010800B7088F8013050804C7088F802301F
:1037B00090808D7088F80330D080CE7088F8043007
:1037C00010810F710FE0FDE13BE27AE2B9E2F7E22E
:1037D0002AE366E399E3D1E3FEE3FEE3FEE3FEE3DF
:1037E000FEE3FEE373E188F80530508181F805C0FF
:1037F00088F80630908181F8069088F80730D081EB
:1038000081F807A088F808B04FF4506414820B7256
:1038100088F809B04FF4606454824B7288F80AB09B
:103820004FF470608BE188F800304FF41060108026
:103830000B7088F8013050804C7088F8023090800E
:103840008D7088F80330D080CE7088F804301081F5
:103850000F7188F80530508181F805C088F806306E
:10386000908181F8069088F80730D08181F807A010
:1038700088F808B04FF4506313820C7288F809B0CE
:103880004FF4606353824C7288F80AB01BE188F8E9
:1038900000304FF4206EA2F800E00B7088F8013081
:1038A000A2F802E04C7088F80230A2F804E08D70B3
:1038B00088F80330A2F806E0CE7088F80430A2F849
:1038C00008E00F7188F80530A2F80AE081F805C019
:1038D00088F80630A2F80CE081F8069088F80730E6
:1038E000A2F80EE081F807A088F808B04FF4506302
:1038F00013820D7288F809B04FF4606353824D72E1
:1039000088F80AB04FF4706059E188F800304FF43D
:10391000306010800B7088F8013050804C7088F84F
:10392000023090808D7088F80330D080CE7088F897
:10393000043010810F7188F80530508181F805C07E
:1039400088F80630908181F8069088F80730D08199
:1039500081F807A088F808B04FF4506313820E7204
:1039600088F809B04FF4606353824E7288F80AB049
:103970004FF47060908262E188F800304FF440604C
:1039800010800B7088F8013050804C7088F802303D
:1039900090808D7088F80330D080CE7088F8043025
:1039A00010810F7188F80530508181F805C088F8C2
:1039B0000630908181F8069088F80730D08181F830
:1039C00007A088F808B04FF4506313820F7288F88C
:1039D00009B04FF4606353824F7288F80AB04FF415
:1039E00070606BE1404688F800304FF45068A2F8F0
:1039F00000800B704370A2F802804C708370A2F8B4
:103A000004808D70C370A2F80680CE700371A2F896
:103A100008800F714371A2F80A8081F805C0837194
:103A2000A2F80C8081F80690C371A2F80E8081F88C
:103A300007A080F808B0A2F8108081F808C080F8CC
:103A400009B04FF46064548281F809C080F80AB06C
:103A50004FF47060908271E1404688F800304FF476
:103A60006068A2F800800B704370A2F802804C706E
:103A70008370A2F804808D70C370A2F80680CE70A7
:103A80000371A2F808800F714371A2F80A8081F8CF
:103A900005C08371A2F80C8081F80690C371A2F86A
:103AA0000E8081F807A080F808B04FF450651582A9
:103AB00081F8089080F809B0A2F8128081F8099086
:103AC0004C4680F80AB04FF4706090828C72BDE86A
:103AD000F08F88F800304FF4706010800B7088F819
:103AE000013050804C7088F8023090808D7088F8DA
:103AF0000330D080CE7088F8043010810F7188F8C0
:103B00000530508181F805C088F80630908181F831
:103B1000069088F80730D08181F807A088F808B0AF
:103B20004FF45065158281F808A088F809B04FF469
:103B30006065558281F809A0534688F80AB09082E2
:103B40008B72C4E7032088F800004FF4006BA2F8E2
:103B500000B00B7088F80100A2F802B04C7088F831
:103B60000200A2F804B08D7088F80300A2F806B035
:103B7000CE7088F80400A2F808B00F7188F805002C
:103B8000A2F80AB081F805C088F80600A2F80CB0C7
:103B900081F8069088F80700A2F80EB081F807A017
:103BA00088F808E0A2F810B00B7288F809E0A2F8D3
:103BB00012B081F809C088F80AE04FF410609082D2
:103BC0008D7284E7032088F800004FF4106BA2F890
:103BD00000B00B7088F80100A2F802B04C7088F8B1
:103BE0000200A2F804B08D7088F80300A2F806B0B5
:103BF000CE7088F80400A2F808B00F7188F80500AC
:103C0000A2F80AB081F805C088F80600A2F80CB046
:103C100081F8069088F80700A2F80EB081F807A096
:103C200088F808E04FF4006515820C7288F809E006
:103C3000558281F8099088F80AE0A2F814B08E72D3
:103C400045E7032088F800004FF4206BA2F800B08D
:103C50000B7088F80100A2F802B04C7088F80200DE
:103C6000A2F804B08D7088F80300A2F806B0CE70F8
:103C700088F80400A2F808B00F7188F80500A2F8CF
:103C80000AB081F805C088F80600A2F80CB081F8E7
:103C9000069088F80700A2F80EB081F807A088F80F
:103CA00008E04FF4006414820D7288F809E0548231
:103CB00081F809A088F80AE04FF4106090828F72B2
:103CC00005E7032088F800004FF4306BA2F800B03D
:103CD0000B7088F80100A2F802B04C7088F802005E
:103CE000A2F804B08D7088F80300A2F806B0CE7078
:103CF00088F80400A2F808B00F7188F80500A2F84F
:103D00000AB081F805C088F80600A2F80CB081F866
:103D1000069088F80700A2F80EB081F807A088F88E
:103D200008E04FF4006414820E7288F809E04FF442
:103D3000106454824B7288F80AE0948281F80AC0B9
:103D4000C5E6032088F800004FF4406BA2F800B0ED
:103D50000B7088F80100A2F802B04C7088F80200DD
:103D6000A2F804B08D7088F80300A2F806B0CE70F7
:103D700088F80400A2F808B00F7188F80500A2F8CE
:103D80000AB081F805C088F80600A2F80CB081F8E6
:103D9000069088F80700A2F80EB081F807A088F80E
:103DA00008E04FF4006515820F7288F809E04FF4BF
:103DB000106555824C7288F80AE04B469582BFE642
:103DC000052088F800004FF4206EA2F800E00B7088
:103DD00088F80100A2F802E04C7088F80200A2F80E
:103DE00004E08D7088F80300A2F806E0CE7088F831
:103DF0000400A2F808E00F7188F80500A2F80AE0B4
:103E000081F805C088F80600A2F80CE081F8069059
:103E100088F80700A2F80EE081F807A0584688F855
:103E200008B04FF4606632E0052088F800004FF4D7
:103E3000306EA2F800E00B7088F80100A2F802E0F2
:103E40004C7088F80200A2F804E08D7088F8030036
:103E5000A2F806E0CE7088F80400A2F808E00F711E
:103E600088F80500A2F80AE081F805C088F8060085
:103E7000A2F80CE081F8069088F80700A2F80EE09E
:103E800081F807A0584688F808B04FF4706616828B
:103E90000B7288F8090056824C7288F80A009682E4
:103EA0008EE6052088F800004FF4406EA2F800E08E
:103EB0000B7088F80100A2F802E04C7088F802004C
:103EC000A2F804E08D7088F80300A2F806E0CE7036
:103ED00088F80400A2F808E00F7188F80500A2F83D
:103EE0000AE081F805C088F80600A2F80CE081F825
:103EF000069088F80700A2F80EE081F807A058465F
:103F000088F808B04FF4606332E0052088F80000BC
:103F10004FF4506EA2F800E00B7088F80100A2F890
:103F200002E04C7088F80200A2F804E08D7088F876
:103F30000300A2F806E0CE7088F80400A2F808E0BA
:103F40000F7188F80500A2F80AE081F805C088F82A
:103F50000600A2F80CE081F8069088F80700A2F8A5
:103F60000EE081F807A0584688F808B04FF4706357
:103F700013820E7288F80900FFF7FFBB052088F84E
:103F800000004FF4606EA2F800E00B7088F80100AA
:103F9000A2F802E04C7088F80200A2F804E08D70EC
:103FA00088F80300A2F806E0CE7088F80400A2F8B2
:103FB00008E00F7188F80500A2F80AE081F805C052
:103FC00088F80600A2F80CE081F8069088F807004F
:103FD000A2F80EE0504605E018E057E05CE099E0FA
:103FE000D1E010E181F807A088F808B0A2F810E04D
:103FF00081F8089088F809B0A2F812E081F809A0C9
:10400000092388F80A304FF400633CE0052088F863
:1040100000004FF4706EA2F800E00B7088F8010009
:10402000A2F802E04C7088F80200A2F804E08D705B
:1040300088F80300A2F806E0CE7088F80400A2F821
:1040400008E00F7188F80500A2F80AE081F805C0C1
:1040500088F80600A2F80CE081F8069088F80700BE
:10406000A2F80EE081F807A088F808B0A2F810E0E6
:1040700081F8089088F809B0A2F812E0504681F85B
:1040800009A00923BAE09382887220E5DE4688F809
:1040900000B04FF4006B04E0DE4688F800B04FF447
:1040A000106BA2F800B00B7088F801E0A2F802B023
:1040B0004C7088F802E0A2F804B08D7088F803E034
:1040C000A2F806B0CE7088F804E0A2F808B00F712C
:1040D00088F805E0A2F80AB081F805C088F806E083
:1040E000A2F80CB081F8069088F807E0A2F80EB0AC
:1040F00081F807A0092088F80800A2F810B00B7218
:1041000088F80900A2F812B04C7288F80A00A2F8E8
:1041100014B055E588F800B04FF42060DE461080FA
:104120000B7088F801E050804C7088F802E09080B5
:104130008D7088F803E0D080CE7088F804E010819C
:104140000F7188F805E05081934681F805C088F822
:1041500006E0ABF80C0081F8069088F807E0ABF8B1
:104160000E0081F807A0092288F80820ABF810009B
:104170000B7288F80920ABF812004C7288F80A20FC
:10418000ABF814001CE5DE4688F800B04FF4306B45
:10419000A2F800B00B7088F801E0A2F802B04C70F1
:1041A00088F802E0A2F804B08D7088F803E0A2F865
:1041B00006B0CE7088F804E0A2F808B00F7188F855
:1041C00005E0A2F80AB081F805C088F806E0A2F878
:1041D0000CB081F8069088F807E0A2F80EB081F8DC
:1041E00007A0092388F808304FF4006414820E7287
:1041F00088F809305482484681F8099088F80A30D6
:104200004FF410633FE7DE4688F800B04FF4406B90
:10421000A2F800B00B7088F801E0A2F802B04C7070
:1042200088F802E0A2F804B08D7088F803E0A2F8E4
:1042300006B0CE7088F804E0A2F808B00F7188F8D4
:1042400005E0A2F80AB081F805C088F806E0A2F8F7
:104250000CB081F8069088F807E0A2F80EB00920AB
:1042600081F807A088F80800030213820E7288F80C
:1042700009004FF400637FE6CA01002010B57D4CB1
:104280000221207840F4006002F05CFB607802219B
:1042900040F4106002F056FBA078022140F4206048
:1042A00002F050FBE078022140F4306002F04AFB5B
:1042B0002079022140F4406002F044FB6079022141
:1042C00040F4506002F03EFBA079022140F46060AF
:1042D00002F038FBE079022140F4706002F032FB1A
:1042E000207A042140F4006002F02CFB607A042163
:1042F00040F4106002F026FBA07A042140F4206014
:1043000002F020FBE07A042140F4306002F01AFB56
:10431000207B042140F4406002F014FB607B042108
:1043200040F4506002F00EFBA07B042140F460607A
:1043300002F008FBE07B042140F4706002F002FB15
:10434000207C062140F4006002F0FCFA607C06212B
:1043500040F4106002F0F6FAA07C062140F42060E0
:1043600002F0F0FAE07C062140F4306002F0EAFA54
:10437000207D062140F4406002F0E4FA607D0621D1
:1043800040F4506002F0DEFAA07D062140F4606047
:1043900002F0D8FAE07D062140F4706002F0D2FA13
:1043A000207E082140F4006002F0CCFA607E0821F3
:1043B00040F4106002F0C6FAA07E082140F42060AC
:1043C00002F0C0FAE07E082140F4306002F0BAFA50
:1043D000207F082140F4406002F0B4FA607F082199
:1043E00040F4506002F0AEFAA07F082140F4606013
:1043F00002F0A8FAE07F082140F4706002F0A2FA0F
:1044000094F820000A2140F4006002F09BFA94F82E
:1044100021000A2140F4106002F094FA94F822007E
:104420000A2140F4206002F08DFA94F823000A215A
:1044300040F4306002F086FA94F824000A2140F437
:10444000406002F07FFA94F825000A2140F45060A1
:1044500002F078FA94F826000A2140F4606002F035
:1044600071FA94F82700BDE8104040F470600A210A
:1044700002F068BAD801002010B56C4C02212078F7
:1044800040F4006002F05EFA6078022140F41060AF
:1044900002F058FAA078022140F4206002F052FAAB
:1044A000E078022140F4306002F04CFA20790221D9
:1044B00040F4406002F046FA6079022140F4506016
:1044C00002F040FAA079022140F4606002F03AFA6A
:1044D000E079022140F4706002F034FA207A04217D
:1044E00040F4006002F02EFA607A042140F410607B
:1044F00002F028FAA07A042140F4206002F022FAA7
:10450000E07A042140F4306002F01CFA207B0421A0
:1045100040F4406002F016FA607B042140F45060E1
:1045200002F010FAA07B042140F4606002F00AFA65
:10453000E07B042140F4706002F004FA207C062144
:1045400040F4006002F0FEF9607C062140F4106047
:1045500002F0F8F9A07C062140F4206002F0F2F9A4
:10456000E07C062140F4306002F0ECF9207D062169
:1045700040F4406002F0E6F9607D062140F45060AE
:1045800002F0E0F9A07D062140F4606002F0DAF963
:10459000E07D062140F4706002F0D4F9207E08210D
:1045A00040F4006002F0CEF9607E082140F4106013
:1045B00002F0C8F9A07E082140F4206002F0C2F9A0
:1045C000E07E082140F4306002F0BCF9207F082131
:1045D00040F4406002F0B6F9607F082140F450607A
:1045E00002F0B0F9A07F082140F4606002F0AAF95F
:1045F000E07F082140F4706002F0A4F994F82000F4
:104600000A2140F4006002F09DF994F821000A218B
:1046100040F4106002F096F994F82200BDE81040D2
:1046200040F420600A2102F08DB90000D80100207A
:104630000448817A044809B1052100E001210160A4
:1046400070470000BC0400207C010020FEE770479A
:10465000704708B500214FF0006000F051F84FF4AA
:10466000C06000F043F81C208DF8000000208DF899
:10467000010003208DF8020001208DF80300684638
:1046800000F002F808BD000070B50F23C47801786F
:104690000122F4B1144C2468457804F4E064C4F5B4
:1046A000E064240AC4F10406E3408478B5401C4069
:1046B0002C4301F1E021230181F80034007800F05F
:1046C0001F018A404009800000F1E020C0F800216D
:1046D00070BD01F01F0082404809800000F1E02019
:1046E000C0F8802170BD00000CED00E002490843D5
:1046F00002490860704700000000FA050CED00E078
:10470000024A1140014302480160704780FFFF1FC9
:1047100008ED00E070B5304D2868017844784A060D
:1047200006D001F07F0001282BD002282ED038E0DF
:10473000092C06D0052C07D0032C0ED0012C17D045
:104740002FE001F021FD2BE0C1787F2931D881785D
:1047500079BB818869BB807A2AE0C178012920D1A0
:104760008188F1B9407A80061BD501F029FD17E058
:10477000C178012915D1818899B9407A80060AD477
:104780000FE00B2C0DD101F06DFD09E0012C02D0E2
:10479000032C03D005E001F003FC01E001F022FD51
:1047A00058B10E492046096849698847032802D054
:1047B00018B108200DE009200BE0094A062000216D
:1047C0001268084B120403EBD2325160064A3021C2
:1047D00011802968087270BD8C01002090010020B2
:1047E000505C0040006000409C01002010B50D4C62
:1047F0002068007A032804D0052802D0072805D0B5
:1048000008E0FCF7B5FB2068007A04E00648006881
:10481000C0688047082021680872BDE8104000F099
:1048200017B800008C01002090010020064B521C9C
:10483000520803EB410105D031F8043B20F8023B5C
:10484000521EF9D170470000006000407047000020
:104850000C4810B590F82C10002001F06FFA0A48AF
:104860000068007A082802D0092809D006E0074924
:104870004FF480500880064910200880002010BDA9
:10488000012010BD080100208C0100209A010020A9
:104890009C01002010B5012001F0F2FD0648012125
:1048A00001600021054A0160031D19604FF4E051C9
:1048B00011800160002010BD405C00409801002084
:1048C000034A516821F440410143516070470000A0
:1048D00000100240044A0029516901D0014300E060
:1048E000814351617047000000100240044A0029D2
:1048F000D16901D0014300E08143D16170470000DC
:1049000000100240044A0029916901D0014300E0EF
:10491000814391617047000000100240044A002961
:10492000D16801D0014300E08143D16070470000AD
:10493000001002400149C1F8D8007047000042420F
:1049400070B51C4C072800D020702178062604255D
:10495000194806292CD2DFE801F00306090E1620BB
:1049600000F02CF824E000F029F80AE00220607042
:104970000320207070BD6078401E60706078002851
:10498000F8D1257070BD016889B241F01001016055
:10499000052020700A20607070BD6178491E61702A
:1049A00061780029F8D1016889B221F01001016015
:1049B000267070BD81010020405C004010B5064C9F
:1049C000206880B220F004002060FFF731FE4FF431
:1049D0003F40206010BD0000405C00400F4B10B510
:1049E000012283F835200E4A0B2330301370B32395
:1049F0005370907001EB81004006000ED0707F284C
:104A000001D37F20D07004229101054801F0CAFD36
:104A1000BDE81040012001F00BBA000008000020A2
:104A2000000000202DE9F35F074648080190012FA0
:104A300008D0032F09D0052F0AD0072F0BD0092F3C
:104A40000CD00DE0FDF7F6F90AE0FDF76DFC07E08C
:104A5000FDF7FEFE04E0FEF775F901E0FEF7FCFB52
:104A6000FC4E96F8630086F8640096F85D101920F5
:104A7000B1FBF0F196F8612096F86100104408440B
:104A800086F8630096F8630002280AD096F85D0065
:104A900018B996F86300102803D396F85D0019281A
:104AA00008D196F85C00012804D196F85C000A3021
:104AB00086F85C0096F86200E74C012540F6FF3A64
:104AC00040F6FF4B4FF002094FF00008062841D195
:104AD00096F8600019283DD196F86100082839D170
:104AE00096F85D00142835D196F85C0030B10128A5
:104AF00006D0022808D003280AD107E0484600E083
:104B0000032086F85C0003E04046FAE786F85C5034
:104B100096F85C00022803D096F85C00032808D1C0
:104B2000CD49002028390A5C2254401CC0B22828F4
:104B3000F9D396F85C0001280CD10A21504601F007
:104B400001FF0A21584601F0FDFE0A2140F6FF5000
:104B500001F0F8FE96F86200062826D196F860006B
:104B6000192822D196F8610008281ED196F85D0018
:104B700015281AD196F85C0010B1012815D110E063
:104B800086F85C5035720A21504601F0DBFE0A219E
:104B9000584601F0D7FE0A2140F6FF5001F0D2FE40
:104BA00003E086F85C8086F8088096F85C000A28A6
:104BB00009D316F85C1F0A20B1FBF0F200FB1210BB
:104BC0003070BDE8FC9F96F85C00032825D096F86D
:104BD0005C0002282BD096F85C009F4C4FF0040A32
:104BE000443C4FF0080B01282ED096F85C000028BA
:104BF000E7D196F8540000F0F001B172C0F3420022
:104C00007072052001F027FF707A082877D2DFE85C
:104C100000F0F0EFEEEDECEBEAE98F4900202839E7
:104C2000225C0A54401CC0B22828F9D308E08A4903
:104C300000202839225C0A54401CC0B22828F9D32D
:104C4000BDE8FC5FFFF71ABB824EB07A3073707A12
:104C5000F07296F8540000F0F001B172C0F3420017
:104C60007072052001F0F7FE96F86300042825D045
:104C7000304690F86310062920D090F86310082978
:104C80001CD090F863100A2918D090F863100C29F2
:104C900014D090F86310052963D090F863100729A9
:104CA0005FD090F8631009295BD090F863100B294E
:104CB00057D090F863100D2953D0AAE0654890F8BA
:104CC000631080F8651080F8527080F85150019997
:104CD00080F85E10417A08290CD2DFE801F0040761
:104CE0001114171A1D204FF4006101E04FF41061F8
:104CF000A0F86A10827A12F00F0F13D089E0F1E366
:104D00004FF42061F4E74FF43061F1E74FF4406174
:104D1000EEE74FF45061EBE74FF46061E8E74FF4E2
:104D20007061E5E71111082973D2DFE801F004078B
:104D30000A0D1012141680F84E506AE080F84E905A
:104D400067E080F84EA064E080F84EB061E010218A
:104D500004E0202102E0402100E0802180F84E1094
:104D600057E090F8631080F8661080F8537080F870
:104D70005180019980F85F10417A08290CD2DFE850
:104D800001F00407101316191C1F4FF4006101E015
:104D90004FF41061A0F86C10817A11F00F0F12D04F
:104DA00037E04FF42061F5E74FF43061F2E74FF45C
:104DB0004061EFE74FF45061ECE74FF46061E9E7E1
:104DC0004FF47061E6E70911082922D2DFE801F00B
:104DD00004071215181A1C1E80F84F5019E080F8AD
:104DE0004F9016E0F4E3F4E3F4E3F4E3F4E3F4E3E4
:104DF000F4E3F4E380F84FA00BE080F84FB008E054
:104E0000102104E0202102E0402100E0802180F810
:104E10004F10114B0020363BA3F12A0603F8008007
:104E200026F8108004F80080401CC0B22828F5D372
:104E300009480021B0F1280000F80180491CC9B2DE
:104E40002829F9D3034991F86520921E0F2A1AD216
:104E500004E000000800002000020020DFE802F06B
:104E6000089E14202C3945525F6C78859E9E9200D6
:104E700081F8678091F852201A70B1F86A20328068
:104E800091F84E20227089E081F8675091F8522005
:104E90005A70B1F86A20728091F84E2062707DE0FD
:104EA00081F8679091F852209A70B1F86A20B28028
:104EB00091F84E20A27071E0032281F8672091F8EA
:104EC0005220DA70B1F86A20F28091F84E20E27038
:104ED00064E081F867A091F852201A71B1F86A2055
:104EE000328191F84E20227158E0052281F8672026
:104EF00091F852205A71B1F86A20728191F84E20CF
:104F000062714BE0062281F8672091F852209A7175
:104F1000B1F86A20B28191F84E20A2713EE00722DA
:104F200081F8672091F85220DA71B1F86A20F28195
:104F300091F84E20E27131E081F867B091F852208B
:104F40001A72B1F86A20328291F84E20227225E05E
:104F5000092281F8672091F852205A72B1F86A202C
:104F6000728291F84E20627218E00A2281F867205E
:104F700091F852209A72B1F86A20B28291F84E20CC
:104F8000A2720BE00B2281F8672091F85220DA72AE
:104F9000B1F86A20F28291F84E20E27200229F5C02
:104FA000012F08D0032F59D0052F72D0072F71D0B1
:104FB000092F70D0B0E136F81270B7F5006F15D038
:104FC000B7F5106F19D0B7F5206F1DD0B7F5306F5A
:104FD00021D0B7F5406F25D0B7F5506F29D0B7F580
:104FE000606F2DD0B7F5706F31D095E1077814F868
:104FF00002C047EA0C0707708EE1477814F802C038
:1050000047EA0C07477087E1877814F802C047EA3F
:105010000C07877080E1C77814F802C047EA0C07D4
:10502000C77079E1077914F802C047EA0C070771E5
:1050300072E1477914F802C047EA0C0747716BE147
:10504000877914F802C047EA0C07877164E1C779D1
:1050500014F802C047EA0C07C7715DE136F8127018
:10506000B7F5006F18D0B7F5106F1CD0B7F5206FEB
:1050700020D0B7F5306F24D0B7F5406F28D0B7F502
:10508000506F2CD0B7F5606F30D0B7F5706F34D05B
:1050900042E139E08BE0DDE0077A14F802C047EA2C
:1050A0000C07077238E1477A14F802C047EA0C0788
:1050B000477231E1877A14F802C047EA0C07877219
:1050C0002AE1C77A14F802C047EA0C07C77223E145
:1050D000077B14F802C047EA0C0707731CE1477B03
:1050E00014F802C047EA0C07477315E1877B14F8F0
:1050F00002C047EA0C0787730EE1C77B14F802C0B1
:1051000047EA0C07C77307E136F81270B7F5006F6E
:1051100015D0B7F5106F19D0B7F5206F1DD0B7F5C2
:10512000306F21D0B7F5406F25D0B7F5506F29D03B
:10513000B7F5606F2DD0B7F5706F31D0ECE0077C1C
:1051400014F802C047EA0C070774E5E0477C14F83E
:1051500002C047EA0C074774DEE0877C14F802C0FF
:1051600047EA0C078774D7E0C77C14F802C047EA07
:105170000C07C774D0E0077D14F802C047EA0C079B
:105180000775C9E0477D14F802C047EA0C07477568
:10519000C2E0877D14F802C047EA0C078775BBE0C0
:1051A000C77D14F802C047EA0C07C775B4E036F8AB
:1051B0001270B7F5006F15D0B7F5106F19D0B7F5AD
:1051C000206F1DD0B7F5306F21D0B7F5406F25D0D7
:1051D000B7F5506F29D0B7F5606F2DD0B7F5706F68
:1051E00031D099E0077E14F802C047EA0C07077631
:1051F00092E0477E14F802C047EA0C0747768BE03E
:10520000877E14F802C047EA0C07877684E0C77EE1
:1052100014F802C047EA0C07C7767DE0077F14F850
:1052200002C047EA0C07077776E0477F14F802C010
:1052300047EA0C0747776FE0877F14F802C047EA18
:105240000C07877768E0C77F14F802C047EA0C07AD
:10525000C77761E036F81270B7F5006F15D0B7F573
:10526000106F1BD0B7F5206F21D0B7F5306F27D066
:10527000B7F5406F2DD0B7F5506F33D0B7F5606FED
:1052800039D0B7F5706F3FD046E090F8207014F831
:1052900002C047EA0C0780F820703DE090F82170CA
:1052A00014F802C047EA0C0780F8217034E090F847
:1052B000227014F802C047EA0C0780F822702BE035
:1052C00090F8237014F802C047EA0C0780F82370A6
:1052D00022E090F8247014F802C047EA0C0780F826
:1052E000247019E090F8257014F802C047EA0C0702
:1052F00080F8257010E090F8267014F802C047EA94
:105300000C0780F8267007E090F8277014F802C0A8
:1053100047EA0C0780F82770521CD2B20C2AFFF41F
:105320003EAE91F86620921E0F2A14D2DFE802F0FA
:10533000089E14202C3945525F6C78859E9E920001
:1053400081F8678091F853201A70B1F86C5035805D
:1053500091F84F50257089E081F8675091F85320FB
:105360005A70B1F86C50758091F84F5065707DE0BF
:1053700081F8679091F853209A70B1F86C50B5801D
:1053800091F84F50A57071E0032281F8672091F8E1
:105390005320DA70B1F86C50F58091F84F50E570F9
:1053A00064E081F867A091F853201A71B1F86C504D
:1053B000358191F84F50257158E0052281F867201A
:1053C00091F853205A71B1F86C50758191F84F5093
:1053D00065714BE0062281F8672091F853209A719D
:1053E000B1F86C50B58191F84F50A5713EE007229D
:1053F00081F8672091F85320DA71B1F86C50F5818B
:1054000091F84F50E57131E081F867B091F8532081
:105410001A72B1F86C50358291F84F50257225E020
:10542000092281F8672091F853205A72B1F86C5024
:10543000758291F84F50657218E00A2281F8672052
:1054400091F853209A72B1F86C50B58291F84F5090
:10545000A5720BE00B2281F8672091F85320DA72D5
:10546000B1F86C50F58291F84F50E57200229D5CC6
:10547000012D08D0032D4AD0052D72D0072D71D0F3
:10548000092D70D069E136F81250B5F5006F15D0CE
:10549000B5F5106F17D0B5F5206F19D0B5F5306F91
:1054A0001BD0B5F5406F1ED0B5F5506F20D0B5F5C7
:1054B000606F22D0B5F5706F24D04EE10578A75CFF
:1054C0003D43057049E14578A75C3D43457044E1A3
:1054D0008578A75C3D4385703FE1C578A75C3D4377
:1054E000C5703AE15CE10579A75C3D43057134E1A3
:1054F0004579A75C3D4345712FE18579A75C3D4324
:1055000085712AE1C579A75C3D43C57125E136F86F
:105510001250B5F5006F15D0B5F5106F17D0B5F571
:10552000206F19D0B5F5306F1ED0B5F5406F20D083
:10553000B5F5506F22D0B5F5606F24D0B5F5706F1A
:1055400026D00AE1057AA75C3D43057205E1457A5C
:10555000A75C3D43457200E1857AA75C3D438572B7
:10556000FBE01AE064E0A6E0C57AA75C3D43C572A3
:10557000F3E0057BA75C3D430573EEE0457BA75C4C
:105580003D434573E9E0857BA75C3D438573E4E0DB
:10559000C57BA75C3D43C573DFE036F81250B5F517
:1055A000006F1DD0B5F5106F1FD0B5F5206F21D05D
:1055B000B5F5306F23D0B5F5406F25D0B5F5506FF8
:1055C00027D0B5F5606F29D0B5F5706F2BD0C4E04A
:1055D000FAE0F6E0F2E0EEE0EAE0E6E0DCE0D8E077
:1055E000057CA75C3D430574B7E0457CA75C3D4363
:1055F0004574B2E0857CA75C3D438574ADE0C57C15
:10560000A75C3D43C574A8E0057DA75C3D430575D7
:10561000A3E0457DA75C3D4345759EE0857DA75C85
:105620003D43857599E0C57DA75C3D43C57594E014
:1056300036F81250B5F5006F15D0B5F5106F17D0CC
:10564000B5F5206F19D0B5F5306F1BD0B5F5406FAB
:105650001DD0B5F5506F1FD0B5F5606F21D0B5F5F1
:10566000706F23D079E0057EA75C3D43057674E03A
:10567000457EA75C3D4345766FE0857EA75C3D4354
:1056800085766AE0C57EA75C3D43C57665E0057F0B
:10569000A75C3D43057760E0457FA75C3D434577C8
:1056A0005BE0857FA75C3D43857756E0C57FA75CBF
:1056B0003D43C57751E036F81250B5F5006F15D06F
:1056C000B5F5106F19D0B5F5206F1DD0B5F5306F59
:1056D00021D0B5F5406F25D0B5F5506F29D0B5F57F
:1056E000606F2DD0B5F5706F31D036E090F8205056
:1056F000A75C3D4380F820502FE090F82150A75C34
:105700003D4380F8215028E090F82250A75C3D43AB
:1057100080F8225021E090F82350A75C3D4380F8A8
:1057200023501AE090F82450A75C3D4380F82450A1
:1057300013E090F82550A75C3D4380F825500CE01D
:1057400090F82650A75C3D4380F8265005E090F87D
:105750002750A75C3D4380F82750521CD2B20C2A38
:10576000FFF485AEF9480922027091F86120903269
:10577000427091F85D1081707F21C1700422910107
:1057800000F010FF012000F053FBBDE8FC5FFEF7C6
:1057900073BE4FF4006001E04FF41060A6F86E0095
:1057A000B07A10F00F0F12D02BE04FF42060F5E725
:1057B0004FF43060F2E74FF44060EFE74FF4506091
:1057C000ECE74FF46060E9E74FF47060E6E7001142
:1057D000082816D2DFE800F004070A0D101224266C
:1057E00086F850500DE086F850900AE086F850A0F8
:1057F00007E086F850B004E0102000E0202086F892
:10580000500096F86300801E0F2819D2DFE800F0E0
:105810000CAE192633414E5C6A788593AEAEA1007A
:105820004020ECE78020EAE786F86780C848C8494E
:1058300007702A39B6F86E00088096F8500020707C
:1058400094E086F86750C248C14947702A39B6F8D3
:105850006E00488096F85000607087E086F8679088
:10586000BB48BB4987702A39B6F86E00888096F825
:105870005000A0707AE0032086F86700B448B4496D
:10588000C7702A39B6F86E00C88096F85000E070EC
:105890006CE086F867A0AE48AD4907712A39B6F8C2
:1058A0006E00088196F8500020715FE0052086F8B0
:1058B0006700A748A64947712A39B6F86E004881A3
:1058C00096F85000607151E0062086F86700A04805
:1058D0009F4987712A39B6F86E00888196F8500082
:1058E000A07143E0072086F8670099489849C7717E
:1058F0002A39B6F86E00C88196F85000E07135E09C
:1059000086F867B09248924907722A39B6F86E0055
:10591000088296F85000207228E0092086F8670077
:105920008B488B4947722A39B6F86E00488296F840
:10593000500060721AE00A2086F8670084488449A3
:1059400087722A39B6F86E00888296F85000A072E5
:105950000CE00B2086F867007D487D49C7722A3924
:10596000B6F86E00C88296F85000E07296F86100B2
:10597000012806D196F85D0018B196F85D00FDF794
:1059800079FE7348002142460E304254491CC9B288
:105990002829FAD36E4B00215A5C012A08D0032A29
:1059A0004BD0052A70D0072A6FD0092A6ED06DE13E
:1059B000674A2A3A32F81120B2F5006F15D0B2F5D5
:1059C000106F17D0B2F5206F19D0B2F5306F1BD021
:1059D000B2F5406F1DD0B2F5506F1FD0B2F5606FB9
:1059E00021D0B2F5706F23D050E10278655C2A4374
:1059F00002704BE14278655C2A43427046E182784E
:105A0000655C2A43827041E1C278655C2A43C270BA
:105A10003CE10279655C2A43027137E14279655CB9
:105A20002A43427132E18279655C2A4382712DE119
:105A3000C279655C2A43C27128E1454A2A3A32F8A4
:105A40001120B2F5006F15D0B2F5106F17D0B2F576
:105A5000206F1CD0B2F5306F1ED0B2F5406F20D051
:105A6000B2F5506F22D0B2F5606F24D0B2F5706FEE
:105A700026D00BE1027A655C2A43027206E1427A83
:105A8000655C2A43427201E11FE068E0ABE0827A84
:105A9000655C2A438272F9E0C27A655C2A43C2726D
:105AA000F4E0027B655C2A430273EFE0427B655CB5
:105AB0002A434273EAE0827B655C2A438273E5E015
:105AC000C27B655C2A43C273E0E0214A2A3A32F87D
:105AD0001120B2F5006F15D0B2F5106F17D0B2F5E6
