:020000040800F2
:10000000B806002001010008574400083D1C000804
:100010005544000821090008155700080000000099
:10002000000000000000000000000000394E000841
:10003000B111000800000000554600083D540008BA
:100040001701000817010008170100081701000830
:100050001701000817010008170100081701000820
:100060001701000817010008170100081701000810
:100070001701000817010008170100081701000800
:1000800017010008170100081701000817010008F0
:10009000F5560008170100081701000817010008AD
:1000A00017010008170100081701000817010008D0
:1000B0008154000817010008170100081701000803
:1000C00017010008170100081701000817010008B0
:1000D00017010008170100081701000817010008A0
:1000E000170100081701000817010008DFF80CD0FD
:1000F00000F014F800480047E95B0008B80600204B
:1001000005480047FEE7FEE7FEE7FEE7FEE7FEE7FD
:10011000FEE7FEE7FEE7FEE7ED000008064C074DB0
:1001200006E0E06840F0010394E8070098471034C7
:10013000AC42F6D3FFF7DEFF6C6100088C6100086B
:1001400070B58C1810F8015B15F0070301D110F899
:10015000013B2A1106D110F8012B03E010F8016BC6
:1001600001F8016B5B1EF9D12B0705D40023521E49
:100170000DD401F8013BFAE710F8013BCB1A921CB1
:1001800003E013F8015B01F8015B521EF9D5A142AF
:10019000D8D3002070BD000030B591B0012140F2ED
:1001A000012004F0B3FA0121084604F097FA4FF455
:1001B000004004F089FA464D284600F0E5FD454828
:1001C000009045480024CDE901042D20CDE9030429
:1001D00080200590800006908000CDE90704800013
:1001E000CDE909046946284600F04AFE0021284668
:1001F00000F0C0FD374D4C3D284600F093FA012039
:100200008DF830008DF831000B944FF46020CDE96B
:100210000D0409208DF83C000BA9284600F0B8FA1F
:10022000052301220021284600F0D6FA05230222E8
:100230000121284600F0D0FA052303220221284696
:1002400000F0CAFA052304220321284600F0C4FA6C
:1002500005231A460421284600F0BEFA052306228B
:100260001946284600F0B8FA052307220621284639
:1002700000F0B2FA052308220721284600F0ACFA64
:10028000052309220821284600F0A6FA01224FF48E
:100290000871284600F072FA0121284600F0A6F8FD
:1002A0000121284600F02AF8284600F0CFFA2C4613
:1002B000204600F05CFA0028FAD1204600F0F3FA5C
:1002C000204600F04DFA0028FAD111B030BD0000F0
:1002D000080002404C2401401003002010B5D0E972
:1002E00000231A44D0E90234234400691A4410441C
:1002F000B0FBF1F010BDC94301607047002981686F
:1003000002D041F0010101E021F00101816070475C
:100310002DE9F05FDFF8CCA04FF020090124304D2B
:100320004F460B264FF0B0080AF1D80B2E495AF869
:10033000240041F824005BF82420D319984202D20B
:10034000C3199A4212D32E7085F8018004F120025D
:10035000AA70B0FBF9F2EA704BF824000422910174
:100360001F4805F0D9F9012004F01AFE641CE4B21C
:10037000092CDBD3DBF80010DAF8000001F11F0CC8
:1003800055241F2752465B46604503D200F11F0CDF
:1003900061450AD3B0FBF7F02E7085F80180AC7090
:1003A000E87005F0A9F910680DE01F2816D21F2982
:1003B00014D92E7085F80180AC700020E87005F02B
:1003C0009BF90F201060042218609101044805F089
:1003D000A3F9BDE8F05F012004F0E2BDBDE8F09FA5
:1003E0000000002014020020780400200029816809
:1003F00002D041F4807101E021F480718160704786
:100400002DE9F04FDFF810A300200AF1B40202F149
:10041000140302F1280402F13C0502F1500902F133
:10042000640602F1780B02F18C0702F1A00E00BF06
:1004300000EBC00C0AEB8C015AF82C8042F82080AB
:10044000D1F804C043F820C0D1F808C044F820C057
:10045000D1F80CC045F820C0D1F8108049F82080B0
:10046000D1F814C046F820C0D1F818C04BF820C00D
:10047000D1F81CC047F820C0D1F820C04EF820C0E9
:10048000401CC0B271460528D2D30020CE46BA46E1
:100490008B46A149C83151F820700A3741F82070C5
:1004A000143151F8208008F10A0841F820801431F5
:1004B00051F820600A3641F820605EF8205028315B
:1004C0000A354EF8205051F820200A3241F82020F9
:1004D0001431914651F820400A3441F820405AF82E
:1004E000203078390A334AF820305BF820200A326D
:1004F0004BF8202051F820C040F6FF718C4505D301
:10050000DFF814C20CF1B40C4CF820108F4203D366
:10051000814FC83747F82010884503D37E4FDC371A
:1005200047F820108E4203D37B4EF03646F8201059
:100530008D4202D3794D45F82010894503D3774D7C
:10054000143545F82010DFF8D4818C4208F12808D2
:1005500001D348F8201054468B4201D344F82010B0
:100560005D468A4201D345F82010401CC0B20528E0
:100570008FD36A480521503800F077F9684F664EEE
:10058000796ED83E01EBC10146F82100052106F540
:10059000D07000F06AF9796E01EBC10106EB8101C0
:1005A0004860052106F5DA7000F05FF9796E01EB1D
:1005B000C10106EB81018860052106F5E47000F0B9
:1005C00054F9796E01EBC10106EB8101C860052188
:1005D000524800F04AF9796E01EBC10106EB810146
:1005E0000861052106F5F87000F03FF9796E01EB1E
:1005F000C10106EB81014861052106F5017000F09B
:1006000034F9796E01EBC10106EB810188610521A6
:1006100006F5067000F029F9796E01EBC10106EBD1
:100620008101C861052106F50B7000F01EF9796E95
:1006300001EBC10206EB8202042910626AD106F5C1
:10064000E471364A002006F5C67B06F5D07A06F539
:10065000DA7901F1280E00BF00EBC00356F823C081
:1006600006EB83034BF820C0D3F804C04AF820C03F
:10067000D3F808C049F820C0DF6841F820701F692E
:1006800042F82070D3F814C04EF820C09F6948F893
:100690002070DF6944F820701B6A45F82030401C48
:1006A000C0B20528D8D31D4805215038FFF716FEE3
:1006B000194C0521FC3C206004F5E270FFF70EFEAA
:1006C0006060052104F5EC70FFF708FEA0600521CD
:1006D00004F5F670FFF702FEE06005210F48FFF712
:1006E000FDFD2061052104F50570FFF7F7FD606150
:1006F000052104F50A70FFF7F1FDA061052104F55D
:100700000F70FFF7EBFDE061052104F51470FFF7B2
:10071000E5FD2062BDE8F08F1003002014040020E6
:10072000080000200D4910B5401811D04FF4806426
:10073000A04210D0B0F5C05F0FD10121CC032046FC
:1007400003F0F0FF2046BDE81040002103F0EABFAF
:1007500001214C02F3E70121F1E710BD00DCFEBFEF
:10076000014600208968490700D5012070470146ED
:1007700000208968090700D501207047002A4268D7
:10078000C9B201D00A4300E08A43426070470000CA
:1007900010B542680E4B0C791A400B6842EA0422ED
:1007A0001343436082680B4B1A40D1E90243234351
:1007B0004C7942EA440213438360C26A097C22F402
:1007C0007002491EC9B242EA0151C16210BD000067
:1007D000FFFEF0FFFDF7F1FF70B5072409290AD9E4
:1007E000C568A1F10A0606EB4606B440A543B3402E
:1007F0001D43C56007E0056901EB4106B440A54310
:10080000B3401D4305611F23072A09D2446B521EC2
:1008100002EB820293409C4391400C43446370BDC1
:100820000D2A09D2046BD21F02EB820293409C4333
:1008300091400C43046370BDC46A0D3A02EB82021E
:1008400093409C4391400C43C46270BD816841F069
:100850000801816070470029816802D041F4A0013D
:1008600001E021F4A00181607047F0B500234C1E27
:1008700015E00022CE1A761E0DE000EB820C50F837
:100880002250DCF80470BD4203D940F82270CCF845
:100890000450521CD2B29642EFDC5B1CDBB2A34286
:1008A000E7DB8068F0BD816841F00401816070473A
:1008B00070B5012005F089F9022000F04FFA164CBE
:1008C0000021204600F056FA144D00212846FFF77B
:1008D00015FD11490839886820F0010088602D2035
:1008E000C860886840F0010088600121204600F05F
:1008F00041FA02212846FFF7FEFC01212846FFF7B6
:10090000FDFC01212846FFF7A6FF022000F0A8FA0F
:100910000028FAD070BD0000080002400024014009
:10092000FEE7C1B2000A40EA012070472DE9F84F06
:10093000DFF834B14BF68F7648F6BF774A4C4B4D13
:1009400040F68F7948F60F780BF1440BDFF820A1C1
:1009500032E000BF47F6FF7010600888454A10F08B
:100960000F00107032D0444901EB8001D1F8002C07
:1009700092B2009212040BD5D1F8002C02EA0902BF
:10098000C1F8002C3D4901EB800050F8040C804771
:100990000098000610D537483749007801EB8001F0
:1009A000D1F8002C02EA0802C1F8002C344901EB0E
:1009B000800050F8040C8047DBF800005A4651468E
:1009C000AAF800000004C5D4BDE8F88F2068C0F381
:1009D0000130000328802068C0F301100001688006
:1009E0002068304080F4005020602068384080F05B
:1009F000200020600888C00603D5206880B2010668
:100A000016D5206800EA0800206001F019F920E0FE
:100A1000890401D580F4005020602068698838403E
:100A2000CA061ED4890601D580F020002060CBE7DD
:100A3000010506D5206800EA0900206004F034FBB7
:100A400007E00004B8D5206800EA0900206003F040
:100A5000D1FD206829883040CA04D9D580F480505F
:100A6000D6E780F01000DDE7005C00408601002042
:100A7000900000207401002000500040B0000020D1
:100A800094000020810008480844D0F8001C490464
:100A900008D5D0F8001C48F68F72114041F480410F
:100AA000C0F8001C7047000000500040810008485A
:100AB0000844D0F8001C490608D5D0F8001C48F6B8
:100AC0008F72114041F04001C0F8001C70470000D7
:100AD00000500040810005480844D0F8001C48F64A
:100AE0008F621140C0F8001C7047000000500040A9
:100AF000124910B50A680628117801F07F0103D168
:100B0000012901D1537913B121290AD013E090783A
:100B1000222802D0212802D00DE0094904E0094929
:100B200002E0032807D1084929B1002091615082D1
:100B30008847002010BD022010BD00007801002071
:100B40008D0B0008650B0008710B0008014904F0CB
:100B50006BBB0000DC000020014904F065BB000015
:100B6000D4000020014904F05FBB0000EC0000202D
:100B700008B1044870470449012009680882002030
:100B800070470000D000002078010020014904F0E7
:100B90004BBB0000E400002005490968C97804291E
:100BA00001D900207047034A02EBC10104F03CBBAD
:100BB000780100202401002009B9002800D002207B
:100BC0007047000006490968097801F07F01212972
:100BD00001D10B2801D00220704700F093B800002B
:100BE0007801002070B53648002100688172C1721A
:100BF0003449C9794172002004F020F94FF400749F
:100C00002146002004F0DCF91021002004F0B2F9A4
:100C10001821002004F03AF95821002004F08CF942
:100C20000020FFF757FF284890F82C10002004F010
:100C30003DF9002004F070F94FF4C0652946012009
:100C400004F0BEF96110012004F076F94FF48271CE
:100C5000012004F01BF90421012004F07DF9042196
:100C6000012004F023F9EE003146012004F03EF9A2
:100C70002021012004F07EF92946022004F0A0F989
:100C80002146022004F058F9211D022004F0FEF84C
:100C90000421022004F060F90421022004F006F986
:100CA0003146022004F022F92021022004F062F9EA
:100CB000064901200860BDE87040002004F0C6B875
:100CC00078010020B0600008F400002068010020D6
:100CD00006480068807A002806D00549052008608B
:100CE00001210448FFF7B7BD7047000078010020DC
:100CF0006801002000240140014904200860704779
:100D000068010020034804490068C078086000209A
:100D10007047000078010020D00000207047704725
:100D200010B500F067FF094800240068847203F0E2
:100D3000B5FC0748046007494FF43F400880044968
:100D4000091F08600448046010BD000078010020FD
:100D5000445C00408401002068010020C10002D5ED
:100D60000249086070470249486070470404024025
:100D7000000002400029016802D041F0010101E0B9
:100D800021F0010101607047016821F0010101605B
:100D90000021016041608160C1602D4B2C49C21A65
:100DA0008039984243D018DC2A4BA0EB03029842CA
:100DB00035D00ADC284A801829D014282BD02828BE
:100DC00024D1486840F4706034E0142A2BD0282ADB
:100DD0001CD1486840F470002CE02048B2F56C7FCC
:100DE0002ED009DCB2F5627F26D0B2F5677F0DD137
:100DF000016841F0F00108E0B2F5717F24D0B2F54E
:100E0000767F03D1016841F4702101607047486822
:100E100040F00F000EE0486840F0F0000AE048683B
:100E200040F4704006E0486840F4702002E04868F2
:100E300040F0706048607047016841F00F01E4E7DE
:100E4000016841F47061E0E7016841F47041DCE75A
:100E50008000024044000240F8FFFDBF040402404D
:100E600001460020CA0001D5034A00E0034A126887
:100E70000A4200D0012070470004024000000240F6
:100E800030B5036847F6F07293430C6A8A682243D0
:100E9000D1E904452C4322438C692243CC69224387
:100EA0004C6A22438C6A22431A430260CA68426039
:100EB0000A6882604968C16030BD00002DE9F047D2
:100EC000DFF89480254F4FF03009D8F8001001F179
:100ED0001005088A0E7A08B9042E04D0AC88A04206
:100EE00015D8042614E01E480178012903D00726EE
:100EF000102038802BE01B4A002112681A4B120484
:100F000003EBD2325160A7F8009001701FE0022677
:100F1000844200D90446A9682046884782460020BA
:100F200000F05AFE01462246504604F0F5FB2146E9
:100F3000002004F011F828880C49001B28806888DC
:100F400020446880A7F800904FF440500880D8F8FB
:100F500000000672BDE8F0877801002088010020BB
:100F600070010020505C00400060004086010020BD
:100F70002DE9F047224EDFF88C803027356835F8B0
:100F8000100FA968A9B100B3AC88844200D9044607
:100F90002046884781462888001B2880688820448E
:100FA0006880002000F008FE01462246484603F013
:100FB00041FB288848B114494FF440500880002173
:100FC000084603F0C9FFA8F800702888A98888425D
:100FD00001D3032001E020B1052031680872BDE88B
:100FE000F087316806200872084900200968084A1D
:100FF000090402EBD1314860A8F80070EFE7000067
:10100000780100208801002086010020505C00400B
:1010100000600040F8B55D4C5D4D09262068002752
:1010200029684278062A05D0AAB1082A4DD00A2A92
:1010300050D06BE00278520668D18078012804D045
:10104000022804D0032804D060E0C96956E0096A88
:1010500054E0496A52E04288B2BBC288022A55D1A4
:1010600002798ABB0278530601D1838833B102F03A
:101070007F02012A04D0022A0CD047E045493DE016
:101080008A69407900219047F0B92068807A002869
:10109000F4D13BE0417901F00F0001F070020B0642
:1010A0003D4901EB8001D1F8001C03D5C1F30111CA
:1010B000090102E0C1F301310903384B1B78834277
:1010C00024D90AB90029D9D120E0007840061DD1E1
:1010D000334913E0027802F07F02012A16D1827AA6
:1010E000A2B1428892B9027982B9C288012A0DD18F
:1010F0008A6940790021904740B92A4931B1206876
:101100004782816100208847002006E02968206826
:10111000096940788847032813D021680A8AA2F514
:101120007F43FF3B0BD002280ED06AB1087800063F
:1011300026D5C888009082420AD9088218E00E722B
:10114000F8BD20680672F8BD4FF008000872F8BDBF
:101150000ED22868144B90F82C00824201D21F70E6
:1011600006E0B2FBF0F400FB142008B9012018706F
:10117000286890F82C008882BDE8F840FFF79EBEF2
:1011800003200872094900030880F8BD7801002097
:101190007C0100206D52000800500040CC0000206F
:1011A000015200084552000870010020860100200D
:1011B000704700002DE9F0413D4CDFF8F880012137
:1011C00014F8110F207460786074A078A074E0782F
:1011D000E0742079207560796075A079A075E07958
:1011E000E075207A2076607A6076A07AA076E07A40
:1011F000E076207B2077607B6077A07BA077E07B28
:10120000E077404600F0CCFC20700221404600F020
:10121000C7FC60701021404600F0C2FCA070202185
:10122000404600F0BDFC244EE0704FF400652946B6
:10123000304600F0B5FC20716F003946304600F0B2
:10124000AFFC60710421404600F0AAFCA0710821A7
:10125000404600F0A5FC194EE071A910304600F0A0
:101260009FFC20726910304600F09AFC6072A90061
:10127000304600F095FCA072E900304600F090FC8A
:10128000E0724021404600F08BFC207380214046F4
:1012900000F086FC60732946304600F081FCA073A4
:1012A0003946304600F07CFCE073BDE8F081000078
:1012B00008000020001401400010014000200140FF
:1012C0002DE9F05F40F601040B21204604F0F4FB09
:1012D0004FF410650B21284604F0EEFB40F6012682
:1012E0000B21304604F0E8FB0B210F02384604F0D6
:1012F000E3FB40F601480B21404604F0DDFB4FF4D0
:1013000050690B21484604F0D7FB40F6016A0B21D7
:10131000504604F0D1FB4FF4706B0B21584604F09B
:10132000CBFB0C21204604F0C7FB0C21284604F01F
:10133000C3FB0C21304604F0BFFB0C21384604F0FF
:10134000BBFB0C21404604F0B7FB0C21484604F0DF
:10135000B3FB0C21504604F0AFFB5846BDE8F05FEC
:101360000C2104F0A9BB00002DE9F05FFFF722FF7C
:10137000FE4C0E200221667C032200230125012E53
:1013800002D0AEB102D016E0A77C1FB1A77C012F1E
:101390001FD010E0667AFEB9657294F83A60761C48
:1013A000F6B284F83A600E2E16D384F83A0013E0B1
:1013B000A77C012F03D0A77C3E430CD00CE0667ABB
:1013C00056B9617294F83A6036B1761E84F83A6084
:1013D00002E0627200E06372E67C012E02D0AEB1E0
:1013E00002D016E0277D1FB1277D012F1FD010E00E
:1013F000A67AFEB9A57294F83B60761CF6B284F822
:101400003B600E2E16D384F83B0013E0277D012F9E
:1014100003D0277D3E430CD00CE0A67A56B9A172CA
:1014200094F83B6036B1761E84F83B6002E0A2720D
:1014300000E0A372667D012E02D0AEB102D016E0AC
:10144000A77D1FB1A77D012F1FD010E0E67AFEB95E
:10145000E57294F83C60761CF6B284F83C600E2E7F
:1014600016D384F83C0013E0A77D012F03D0A77D9D
:101470003E430CD00CE0E67A56B9E17294F83C6039
:1014800036B1761E84F83C6002E0E27200E0E3725E
:10149000E67D012E02D0AEB102D016E0277E1FB14C
:1014A000277E012F1FD010E0267BFEB9257394F80C
:1014B0003D60761CF6B284F83D600E2E16D384F89B
:1014C0003D0013E0277E012F03D0277E3E430CD042
:1014D0000CE0267B56B9217394F83D6036B1761E38
:1014E00084F83D6002E0227300E02373667E012EE3
:1014F00002D0AEB102D016E0A77E1FB1A77E012FA9
:101500001FD010E0667BFEB9657394F83E60761CD0
:10151000F6B284F83E600E2E16D384F83E0013E037
:10152000A77E012F03D0A77E3E430CD00CE0667B44
:1015300056B9617394F83E6036B1761E84F83E6009
:1015400002E0627300E06373E67E012E02D0AEB16A
:1015500002D016E0277F1FB1277F012F1FD010E098
:10156000A67BFEB9A57394F83F60761CF6B284F8AA
:101570003F600E2E16D384F83F0013E0277F012F23
:1015800003D0277F3E430CD00CE0A67B56B9A17355
:1015900094F83F6036B1761E84F83F6002E0A27393
:1015A00000E0A373667F012E02D0AEB102D016E038
:1015B000A77F1FB1A77F012F1FD010E0E67BFEB9E8
:1015C000E57394F84060761CF6B284F840600E2E05
:1015D00016D384F8400013E0A77F012F03D0A77F24
:1015E0003E430CD00CE0E67B56B9E17394F84060C2
:1015F00036B1761E84F8406002E0E27300E0E373E7
:10160000E67F012E02D0C6B103D01AE094F8201074
:1016100021B194F82000012820D012E0217C01BBE8
:10162000257494F84110491CC9B284F841100E2960
:1016300017D300BF84F8410013E094F8200001287C
:1016400004D094F8200006430AD00AE0207C40B978
:10165000217494F8410020B1401EEBE7227400E0B1
:10166000237414F8320F4FF4106920746178617498
:10167000A178A174E178E1742179217561796175AE
:10168000A179A175E179E175217A2170627A6270A0
:10169000A27AA270E27AE270227B2271627B62718E
:1016A000A27BA271E27BE271323C4FF40066884279
:1016B0001ED0312003F096F894F8320008280AD2A0
:1016C00005FA00F0C0B240F400600B2104F0F4F918
:1016D0000B2148460AE0083805FA00F0C0B240F491
:1016E00010600B2104F0E8F90B21304604F0E4F916
:1016F00094F8430094F833104FF4506A4FF4406B61
:1017000088421ED0322003F06DF894F83300082888
:101710000AD205FA00F0C0B240F440600B2104F098
:10172000CBF90B2150460AE0083805FA00F0C0B2A8
:1017300040F450600B2104F0BFF90B21584604F02F
:10174000BBF994F8440094F834104FF430678842A1
:1017500022D0332003F046F894F8340008280DD244
:1017600005FA00F0C0B240F4206001E0080000205B
:101770000B2104F0A1F90B2138460BE0083805FADB
:1017800000F0C0B240F430600B2104F095F90B2159
:101790004FF4206004F090F994F8450094F8351067
:1017A0004FF4706888421FD0342003F01BF894F87F
:1017B000350008280AD205FA00F0C0B240F4606093
:1017C0000B2104F079F90B2140460BE0083805FAAB
:1017D00000F0C0B240F470600B2104F06DF90B21F1
:1017E0004FF4606004F068F994F8460094F83610FD
:1017F00088421ED0352002F0F5FF94F83600082804
:101800000AD205FA00F0C0B240F400600C2104F0E6
:1018100053F90C2148460AE0083805FA00F0C0B236
:1018200040F410600C2104F047F90C21304604F01C
:1018300043F994F8470094F8371088421ED03620B8
:1018400002F0D0FF94F8370008280AD205FA00F019
:10185000C0B240F440600C2104F02EF90C21504637
:101860000AE0083805FA00F0C0B240F450600C21DC
:1018700004F022F90C21584604F01EF994F84800AF
:1018800094F8381088421FD0372002F0ABFF94F84C
:10189000380008280AD205FA00F0C0B240F42060EF
:1018A0000C2104F009F90C2138460BE0083805FA40
:1018B00000F0C0B240F430600C2104F0FDF80C21BF
:1018C0004FF4206004F0F8F894F8490094F83910C7
:1018D00088421FD0382002F085FF94F8390008288C
:1018E00009D28540E8B240F460600C2104F0E4F8CD
:1018F0000C2140460AE008388540E8B240F47060A8
:101900000C2104F0D9F80C214FF46060BDE8F05FC1
:1019100004F0D2B8BDE8F09F10B504224FF48271F4
:10192000044802F087FEBDE810404FF4405101200A
:1019300003F0DCBA0400002001490320086070476E
:10194000680100202DE9F84F012140F2FD1002F05E
:10195000DDFE01214F4800F0FFF8FF27ADF80070D1
:1019600000248DF8034069464B4800F0A3F801209D
:10197000ADF80000494E8DF803406946304600F04E
:1019800099F84FF47040ADF800004FF048098DF819
:1019900003906946304600F08DF87820ADF80000DD
:1019A00002258DF8025010248DF803406946304618
:1019B00000F080F87821304600F0F9F84FF4C0507C
:1019C000ADF80000DFF8D8A004268DF80360694662
:1019D000504600F06FF84FF48068ADF800808DF845
:1019E00003406946504600F065F84146504600F015
:1019F000DEF8ADF800708DF803606946294800F004
:101A000059F8FF01ADF80070DFF89C808DF80250A6
:101A10008DF803406946404600F04CF83946404690
:101A200000F0C5F8A002ADF80000DFF880808DF866
:101A300003906946404600F03DF84FF42047ADF86A
:101A400000708DF802508DF803406946404600F062
:101A500031F83946404600F0AAF84FF4FC40ADF8A2
:101A600000008DF80360124E6946304600F022F8FF
:101A70000320ADF800008DF802508DF80340694650
:101A8000304600F017F80321304600F090F8BDE82A
:101A9000F88F00000002300000080140000C0140F7
:101AA000001001400014014000180140001C0140DA
:101AB00000200140F0B5CA78002502F00F03D206DD
:101AC00001D58A7813430A784FF00F0E12F0FF0FFA
:101AD0004FF001021CD004680F8802FA05F6374067
:101AE000B74211D14FEA850C0EFA0CF724EA07072A
:101AF00003FA0CF43C43CF78282F02D0482F02D0B1
:101B000002E0466100E006616D1C082DE4D304602C
:101B10000C88FF2C1ED944685FF0000606F1080708
:101B200002FA07F50F882F40AF420FD14FEA860C1B
:101B30000EFA0CF7BC4303FA0CF73C43CF78282F7E
:101B400000D14561CF78482F00D10561761C082E61
:101B5000E4D34460F0BD0000F0B5104D6A68440D58
:101B6000260184B2C0F30157B440C0F30343032FEE
:101B700005D0C0020AD503209840824307E0686878
:101B800022F0706320F07060686002E0A24342F0CF
:101B9000706301B123436B60F0BD000000000140A1
:101BA0000246002092680A4200D00120704741613D
:101BB00070470161704700000549096889B201EB6F
:101BC000C000044901EB4000008980B2704700006A
:101BD000505C0040006000400449096889B201EB94
:101BE000C000034931F8100080B27047505C0040DB
:101BF000006000400F4810B50168001D0368001D1B
:101C00000029026815D00C480C0A817004710C0C74
:101C10008471090E01728372190A0173190C8173A0
:101C2000190E01748274110A0175110C8175110E5F
:101C3000017610BDE8F7FF1F74000020FEE70000EA
:101C400010B5134C2068017A022904D0042902D06F
:101C5000062905D015E0FFF731F92068007A11E078
:101C60004178052909D10178490606D1C07803F0E9
:101C7000EDF808480068006A8047074800688068F7
:101C80008047082021680872BDE8104002F0E4BCDB
:101C900078010020800100207C01002070B5224DD9
:101CA000002006466870082E1CD2DFE806F0040704
:101CB0000A0D101316194FF4006413E04FF410646A
:101CC00010E04FF420640DE04FF430640AE04FF46C
:101CD000406407E04FF4506404E04FF4606401E0B6
:101CE0004FF47064697844EA0100022103F0E4FED5
:101CF000697844EA0100042103F0DEFE697844EAD1
:101D00000100062103F0D8FE697844EA01000821A9
:101D100003F0D2FE68780A21204303F0CDFE761C42
:101D2000F6B2082EBFD370BD0800002010B5012008
:101D300003F08CFD2E4CA070032003F087FDE070B3
:101D4000052003F083FD2071072003F07FFD607103
:101D5000092003F07BFDA07194F84B1084F84C101F
:101D6000A2780221AAB1E278F2B122793AB362797B
:101D700082B300283AD1A1710920333403F036FE32
:101D8000E077014620760920A076BDE8104002F0F9
:101D90004DBDA17001202F3403F028FEE0770146ED
:101DA00020770120A077F0E7E1700320303403F0C2
:101DB0001DFEE0770146E07603206077E5E72171BC
:101DC0000520313403F012FEE0770146A0760520AD
:101DD0002077DAE7FFE761710720323403F006FE6F
:101DE000E077014660760720E076CEE710BD000080
:101DF000080000202DE9F04F0026062705250322C4
:101E000002230124FC494FF020094FF01F0A4FF034
:101E10001E0B4FF01D0E4FF0070C402875D2DFE867
:101E200000F020272E353C434A51585F666D75807F
:101E3000878E959CA3AAB1B8BFEFF6FDEBEAE9E85F
:101E4000E7E6E5E4E3E2E1E0DFDEDDDCDBDAD9D89A
:101E5000D7D6D5D4D3D2D1D0CFCECDCCCBCAC9C88A
:101E6000C7C691F8560081F8570081F85640EBE15B
:101E700091F8560081F8570081F85640EFE191F84B
:101E8000560081F8570081F85640F3E191F856006A
:101E900081F8570081F85640F7E191F8560081F833
:101EA000570081F8564037E091F8560081F8570006
:101EB00081F85640FBE191F8560081F8570081F80F
:101EC0005640FFE191F8560081F8570081F85640DE
:101ED00003E291F8560081F8570081F85630B3E1DB
:101EE00091F8560081F8570081F85630B7E191F823
:101EF000560081F8570081F85630BBE191F8560042
:101F000081F8570081F85630BFE13BE191F8560067
:101F100081F8570081F8563011F8540F48700420AA
:101F20002FE191F8560081F8570081F85630BEE154
:101F300091F8560081F8570081F85630C2E191F8C7
:101F4000560081F8570081F85630C6E191F85600E6
:101F500081F8570081F8563097E091F8560081F8E3
:101F6000570081F856309BE091F8560081F85700F1
:101F700081F856309FE091F8560081F8570081F8BB
:101F80005630A3E091F8560081F8570081F856309A
:101F9000A7E091F8560081F8570081F85630ABE081
:101FA00091F8560081F8570081F85630AFE08EE185
:101FB00082E176E16EE162E156E14AE13EE135E13E
:101FC0002CE123E11AE10FE106E1FDE0F4E0EBE0B2
:101FD000E2E0D9E0CBE0C2E0B9E0B0E0A7E09BE00E
:101FE0008FE083E077E06BE05FE053E047E03FE0C5
:101FF00037E02FE027E01FE017E00FE007E0FFE702
:1020000091F8560081F8570081F856308AE091F82F
:10201000560081F8570081F8562015E191F85600D6
:1020200081F8570081F8562019E191F8560081F89F
:10203000570081F856201DE191F8560081F85700AD
:1020400081F8562021E191F8560081F8570081F877
:10205000562061E791F8560081F8570081F8562024
:1020600025E191F8560081F8570081F8562029E1C2
:1020700091F8560081F8570081F856202DE191F82B
:10208000560081F8570081F8562011F8540F487017
:10209000192076E091F8560081F8570081F8562013
:1020A00011F8540F48701A206BE091F8560081F82F
:1020B000570081F8562011F8540F48701B2060E03B
:1020C00091F8560081F8570081F8562011F8540F06
:1020D00048701C2055E091F8560081F8570081F8AF
:1020E000562011F8540F487070464AE091F8560097
:1020F00081F8570081F8562011F8540F487058465F
:102100003FE091F8560081F8570081F8562011F809
:10211000540F4870504634E091F8560081F857004B
:1021200081F8562011F8540F4870484629E091F87C
:10213000560081F85700042081F8560084E091F899
:10214000560081F85700042081F8560087E091F886
:10215000560081F85700042081F856008AE091F873
:10216000560081F85700042081F856008DE091F860
:10217000560081F85700042081F8560011F8542FBA
:102180004A700870BDE8F08F91F8560081F857004A
:10219000042081F856008AE091F8560081F8570033
:1021A000042081F856008DE091F8560081F8570020
:1021B000042081F8560090E091F8560081F857000D
:1021C000042081F8560060E791F8560081F8570026
:1021D000042081F8560063E791F8560081F8570013
:1021E000042081F8560066E791F8560081F8570000
:1021F000042081F8560069E70800002091F8560095
:1022000081F85700042081F856006AE791F85600DB
:1022100081F85700042081F856006DE791F85600C8
:1022200081F85700042081F8560070E791F85600B5
:1022300081F85700042081F8560073E791F85600A2
:1022400081F8570081F8565011F8540F48700E70FD
:1022500098E791F8560081F8570081F8565011F828
:10226000540F48700C708DE791F8560081F85700B4
:1022700081F8565011F8540F48700B7082E791F8AE
:10228000560081F8570081F8565011F8540F4870E5
:102290000A7077E791F8560081F8570081F8565098
:1022A0003AE691F8560081F8570081F8565011F837
:1022B000540F48700D7065E791F8560081F857008B
:1022C00081F8565011F8540F48700F705AE791F882
:1022D000560081F8570081F8565011F8540F487095
:1022E00081F800C04EE700002DE9F04F0B270622D1
:1022F0000523042403264FF0250A4FF0240B4FF04A
:10230000230E4FF00A0902254FF0010CFC4940282A
:1023100077D2DFE800F020272E353C434A55606B2A
:10232000778289949BA8B3BAC1F5FCF2F1F0EFEE85
:10233000EDECEBEAE9E8E7E6E5E4E3E2E1E0DFDE45
:10234000DDDCDBDAD9D8D7D6D5D4D3D2D1D0CFCE35
:10235000CDCCCBCAC9C891F8560081F8570081F896
:1023600056C03EE091F8560081F8570081F856C0FB
:1023700042E091F8560081F8570081F856C047E0D6
:1023800091F8560081F8570081F856C015E291F88F
:10239000560081F8570081F856C04BE091F856007E
:1023A00081F8570081F8563010E091F8560081F816
:1023B000570081F8562011F8540F4870002024E28D
:1023C00091F8560081F8570081F8562011F8540F03
:1023D0004870192019E291F8560081F8570081F8E9
:1023E000565011F8540F487008200EE291F856002C
:1023F00081F8570081F8565011F8540F48700920A1
:1024000003E22EE091F8560081F8570081F856500B
:1024100011F8540F48704846F7E191F8560081F8DA
:10242000570081F85650C8E191F8560081F85700DE
:1024300081F8565011F8540F48700C20E5E191F8DE
:10244000560081F8570081F8563012E091F8560096
:1024500081F8570081F8562011F8540F487081F820
:1024600000C0BDE8F08F91F8560081F8570081F860
:10247000562011F8540F48701A20C6E191F8560002
:1024800081F8570081F85650ABE091F8560081F87A
:10249000570081F85650AFE091F8560081F8570088
:1024A00081F85650B3E0A6E19AE192E18AE17EE13B
:1024B00076E16EE166E15AE14EE146E13EE136E168
:1024C0002EE126E11EE10FE103E1FBE0F3E0EBE0AA
:1024D000E3E0DBE0D3E0C7E0BBE0B3E0A7E09BE0F4
:1024E0008FE083E077E06BE05FE057E04FE047E0AC
:1024F0003FE037E02FE023E017E00FE007E0FFE7E1
:1025000091F8560081F8570081F856508AE091F80A
:10251000560081F8570081F856508EE091F8560029
:1025200081F8570081F8563010E091F8560081F894
:10253000570081F8562011F8540F48700D7090E73D
:1025400091F8560081F8570081F8562011F8540F81
:1025500048701B2059E191F8560081F8570081F826
:1025600056603EE791F8560081F8570081F85660B2
:1025700042E791F8560081F8570081F8566047E726
:1025800091F8560081F8570081F8566015E191F8EE
:10259000560081F8570081F856604BE791F85600D5
:1025A00081F8570081F8563010E091F8560081F814
:1025B000570081F8562011F8540F48700E7050E7FC
:1025C00091F8560081F8570081F8562011F8540F01
:1025D00048701C2019E191F8560081F8570081F8E5
:1025E000566011F8540F487021200EE191F8560002
:1025F00081F8570081F8566011F8540F4870222076
:1026000003E191F8560081F8570081F8566011F8FF
:10261000540F48707046F8E091F8560081F8570062
:1026200081F8566011F8540F48705846EDE091F863
:10263000560081F8570081F8566011F8540F487021
:102640005046E2E091F8560081F8570081F8563084
:1026500010E091F8560081F8570081F8562011F8E3
:10266000540F48700C70FCE691F8560081F8570042
:1026700081F8562011F8540F48701D20C5E091F8DC
:10268000560081F8570081F85640AAE691F85600A6
:1026900081F8570081F85640AEE691F8560081F86F
:1026A000570081F85640B3E691F8560081F857007C
:1026B00081F8564081E091F8560081F8570081F882
:1026C0005640B7E691F8560081F8570081F8563029
:1026D00010E091F8560081F8570081F8562011F863
:1026E000540F48700B70BCE691F8560081F8570003
:1026F00081F8562011F8540F48701E2085E0000024
:102700000800002091F8560081F8570081F85640E3
:1027100067E791F8560081F8570081F856406BE75B
:1027200091F8560081F8570081F856406FE791F80C
:10273000560081F8570081F8564073E791F856002B
:1027400081F8570081F8564077E791F8560081F8F4
:10275000570081F8563010E091F8560081F8570084
:1027600081F8562011F8540F48700A7079E691F8F4
:10277000560081F8570081F8562011F8540F487020
:102780001F2042E091F8560081F8570081F856303A
:1027900027E691F8560081F8570081F856302BE66D
:1027A00091F8560081F8570081F8563030E691F8DC
:1027B000560081F8570081F8563011F8540F4870D0
:1027C0000F704EE691F8560081F8570081F85630A8
:1027D00030E691F8560081F8570081F8563010E045
:1027E00091F8560081F8570081F8562011F8540FDF
:1027F0004870072009E091F8560081F8570081F8E9
:10280000562011F8540F48702020087029E6000067
:102810002DE9F04F11270626052504220323022463
:10282000FF494FF02A0E4FF010094FF00F0A4FF0FA
:102830000E0B4FF0010C40286FD2DFE800F020278C
:10284000323940474E555C636F7A85909BA2ADB498
:10285000BFF2F9EFEEEDECEBEAE9E8E7E6E5E4E3F9
:10286000E2E1E0DFDEDDDCDBDAD9D8D7D6D5D4D3C0
:10287000D2D1D0CFCECDCC6ECBCAC9C8C7C691F805
:10288000560081F8570081F8565092E091F85600B2
:1028900081F8570081F8566011F8540F48700B20EA
:1028A000FFE191F8560081F8570081F856C03BE0EF
:1028B00091F8560081F8570081F856C03FE091F832
:1028C000560081F8570081F856C043E091F8560051
:1028D00081F8570081F856C047E091F8560081F81A
:1028E000570081F856C001E291F8560081F8570070
:1028F00081F856C04BE091F8560081F8570081F8F6
:102900005650BEE091F8560081F8570081F85660A5
:1029100011F8540F48700C20C3E1C3E191F8560040
:1029200081F8570081F8564011F8540F48700D2077
:10293000B7E191F8560081F8570081F8564011F838
:10294000540F48705846ACE191F8560081F8570092
:1029500081F8564011F8540F48705046A1E191F8A3
:10296000560081F8570081F8564011F8540F48700E
:10297000484696E191F8560081F8570081F8564094
:10298000B4E191F8560081F8570081F8564011F8EB
:10299000540F4870122084E191F8560081F85700D6
:1029A00081F85650A9E091F8560081F8570081F857
:1029B000566011F8540F4870212072E191F85600CA
:1029C00081F8570081F85640A2E094E188E180E167
:1029D00078E170E168E15AE152E14AE142E13AE12D
:1029E00032E12AE11EE10FE107E1FFE0F7E0EFE06D
:1029F000E7E0DFE0D3E0C7E0BBE0AFE0A3E097E0D3
:102A00008BE07FE073E06BE063E05BE053E04BE082
:102A100043E03BE02FE027E01FE017E00FE007E096
:102A2000FFE791F8560081F8570081F856407AE0A8
:102A300091F8560081F8570081F856407EE091F8F1
:102A4000560081F8570081F8564082E091F8560010
:102A500081F8570081F8564086E091F8560081F8D9
:102A6000570081F856408AE091F8560081F85700E7
:102A700081F8565099E091F8560081F8570081F896
:102A8000566011F8540F487022200AE191F8560060
:102A900081F8570081F8563046E791F8560081F8E2
:102AA000570081F856304AE791F8560081F85700F0
:102AB00081F856304EE791F8560081F8570081F8BA
:102AC000563052E791F8560081F8570081F8563099
:102AD0000CE191F8560081F8570081F8563056E71E
:102AE00091F8560081F8570081F85650A0E091F80F
:102AF000560081F8570081F8566011F8540F48705D
:102B00002320CEE091F8560081F8570081F8563026
:102B100011F8540F48702620C3E091F8560081F850
:102B2000570081F8563011F8540F48702720B8E04C
:102B300091F8560081F8570081F8563011F8540F7B
:102B400048702820ADE091F8560081F8570081F8D0
:102B5000563011F8540F48702920A2E091F8560021
:102B600081F8570081F8563011F8540F48707046BC
:102B700097E091F8560081F8570081F8563011F827
:102B8000540F48702B208CE091F8560081F85700C4
:102B900081F8566011F8540F4870082081E091F8D0
:102BA000560081F8570081F8566011F8540F4870AC
:102BB000242076E091F8560081F8570081F85620DD
:102BC000B2E691F8560081F8570081F85620B6E633
:102BD00091F8560081F8570081F85620BAE691F82E
:102BE000560081F8570081F85620BEE691F856004D
:102BF00081F8570081F8562078E091F8560081F866
:102C0000570081F85620C2E691F8560081F8570027
:102C100081F8566011F8540F4870092041E0000017
:102C20000800002091F8560081F8570081F856609E
:102C300011F8540F4870252033E091F8560081F8C0
:102C4000570081F8562063E791F8560081F8570045
:102C500081F8562067E791F8560081F8570081F80F
:102C600056206BE791F8560081F8570081F85620FE
:102C70006FE791F8560081F8570081F8562073E706
:102C800091F8560081F8570081F8562077E791F8BF
:102C9000560081F8570081F8566011F8540F4870BB
:102CA0000A200870BDE8F08F91F8560081F85700AF
:102CB00081F8565038E691F8560081F8570081F8AF
:102CC00056503CE691F8560081F8570081F856506E
:102CD00040E691F8560081F8570081F8565044E6D6
:102CE00091F8560081F8570081F8565011F8540FAA
:102CF00048700F70D6E791F8560081F8570081F8B8
:102D0000565044E62DE9F04F1727062605220423E6
:102D100003240225FC494FF016094FF0150A4FF025
:102D2000140B4FF0130E4FF0010C40286FD2DFE868
:102D300000F020272E353C434A5158636F7A858C2A
:102D400097A2ADB4BBEFF6FDEBEAE9E8E7E6E5E410
:102D5000E3E2E1E0DFDEDDDCDBDAD9D8D7D6D5D4BB
:102D6000D3D2D1D0CFCECDCCCBCAC9C8C7C6C5C4AB
:102D7000C3C291F8560081F8570081F856C036E07A
:102D800091F8560081F8570081F856C03AE091F862
:102D9000560081F8570081F856C03FE091F8560080
:102DA00081F8570081F856C043E091F8560081F849
:102DB000570081F856C00BE291F8560081F8570091
:102DC00081F856C047E091F8560081F8570081F825
:102DD0005620B8E091F8560081F8570081F8562047
:102DE000BCE091F8560081F8570081F8565011F870
:102DF000540F487070460DE291F8560081F8570064
:102E000081F8565011F8540F4870584602E2E3E139
:102E100091F8560081F8570081F8565011F8540F78
:102E200048705046F6E191F8560081F8570081F855
:102E3000565011F8540F48704846EBE191F856008F
:102E400081F8570081F85650C2E191F8560081F898
:102E5000570081F8565011F8540F48701820D9E1E6
:102E600091F8560081F8570081F8566011F8540F18
:102E700048700D20CEE191F8560081F8570081F896
:102E8000566011F8540F48700E20C3E191F85600B7
:102E900081F8570081F85650A3E091F8560081F868
:102EA000570081F85650A7E091F8560081F8570076
:102EB00081F85650ABE0A3E197E18FE182E17AE13E
:102EC00072E16AE162E156E14AE142E13AE132E16E
:102ED0002AE122E11AE10BE1FFE0F7E0EFE0E7E0B1
:102EE000DFE0D7E0CFE0C3E0B7E0ABE09FE093E006
:102EF00087E07BE06FE067E05FE057E04FE047E0AE
:102F00003FE037E02FE023E017E00FE007E0FFE7C6
:102F100091F8560081F8570081F8565082E091F8F8
:102F2000560081F8570081F8565086E091F8560017
:102F300081F8570081F856508AE091F8560081F8E0
:102F4000570081F8566011F8540F4870262061E14F
:102F500091F8560081F8570081F8566011F8540F27
:102F60004870272056E191F8560081F8570081F803
:102F700056403CE791F8560081F8570081F85640DA
:102F800040E791F8560081F8570081F8564045E730
:102F900091F8560081F8570081F8564049E791F8BA
:102FA000560081F8570081F8564011E191F856001B
:102FB00081F8570081F856404DE791F8560081F8A6
:102FC000570081F856208EE091F8560081F857009E
:102FD00081F8562092E091F8560081F8570081F868
:102FE000564011F8540F48702C2013E191F8560008
:102FF00081F8570081F8564011F8540F48702D2081
:1030000008E191F8560081F8570081F8564011F810
:10301000540F48702E20FDE091F8560081F85700BB
:1030200081F8564011F8540F48702F20F2E091F8C3
:10303000560081F8570081F8564011F8540F487037
:103040003020E7E091F8560081F8570081F85640AB
:1030500011F8540F48703120DCE091F8560081F8E7
:10306000570081F8566011F8540F48700F20D1E0D6
:1030700091F8560081F8570081F8566011F8540F06
:1030800048701020C6E091F8560081F8570081F88A
:103090005630ACE691F8560081F8570081F856306A
:1030A000B0E691F8560081F8570081F85630B5E641
:1030B00091F8560081F8570081F85630B9E691F83A
:1030C000560081F8570081F8563081E091F856009B
:1030D00081F8570081F85630BDE691F8560081F826
:1030E000570081F8566011F8540F4870282091E07D
:1030F00091F8560081F8570081F8566011F8540F86
:103100004870292086E000000800002091F8560051
:1031100081F8570081F8563063E791F8560081F83E
:10312000570081F8563067E791F8560081F857004C
:1031300081F856306BE791F8560081F8570081F816
:1031400056306FE791F8560081F8570081F85630F5
:1031500073E791F8560081F8570081F8563077E709
:1031600091F8560081F8570081F8562011F8540F55
:1031700048702A204EE091F8560081F8570081F8F7
:10318000562011F8540F48702B2043E091F8560058
:1031900081F8570081F8562029E691F8560081F809
:1031A000570081F856202DE691F8560081F8570017
:1031B00081F8562032E691F8560081F8570081F8E0
:1031C000562036E691F8560081F8570081F85620CF
:1031D00011F8540F48700F70BDE8F08F91F8560049
:1031E00081F8570081F8562035E691F8560081F8AD
:1031F000570081F8566011F8540F4870112009E00B
:1032000091F8560081F8570081F8566011F8540F74
:10321000487012200870DFE72DE9F04F30252D2689
:103220002C2708220524FC4906234FF0310C4FF0CF
:1032300015094FF0140A4FF0130B4FF02E0E3E28D5
:1032400076D2DFE800F01F262D343F4A8080555C9F
:10325000636A768280808D98A3AEB9C48080CFEFF8
:10326000F6FDEBEA8080E9E880E7E6E58080E4E3CC
:1032700080E2E1E08080DFDE80DDDCDB8080DAD9A7
:1032800080D8D7D691F8560081F8570081F856407B
:103290006CE091F8560081F8570081F8564070E0D4
:1032A00091F8560081F8570081F8564074E091F883
:1032B000560081F8570081F8562011F8540F4870D5
:1032C0000020B5E191F8560081F8570081F85620AA
:1032D00011F8540F48700120AAE191F8560081F8C6
:1032E000570081F8562011F8540F487002209FE1D2
:1032F00091F8560081F8570081F856305AE191F85C
:10330000560081F8570081F856300AE191F85600CE
:1033100081F8570081F856300EE191F8560081F897
:10332000570081F8562011F8540F487004207FE1AF
:1033300009E091F8560081F8570081F8562011F8FD
:10334000540F48700C70BDE8F08F91F8560081F86A
:10335000570081F8562011F8540F48700B70F2E7AF
:1033600091F8560081F8570081F8563011F8540F43
:1033700048700F70E7E791F8560081F8570081F820
:10338000563011F8540F48700E70DCE791F8560073
:1033900081F8570081F8563011F8540F4870704684
:1033A00046E191F8560081F8570081F8562011F84F
:1033B000540F48700A70C6E791F8560081F857001C
:1033C00081F8562011F8540F4870092030E191F827
:1033D000560081F8570081F8562011F8540F4870B4
:1033E0000A2025E191F8560081F8570081F85640EF
:1033F000BFE013E104E1F8E0ECE0E0E0D4E0C8E095
:10340000BCE0B0E0A4E09CE090E084E077E06BE01A
:103410005FE053E047E03BE033E027E01BE00FE0F4
:1034200007E0FFE791F8560081F8570081F8564011
:1034300060E091F8560081F8570081F8564064E04A
:1034400091F8560081F8570081F8562011F8540F72
:1034500048700C20ECE091F8560081F8570081F894
:10346000562011F8540F48700D20E1E091F85600F5
:1034700081F8570081F8562011F8540F48700E203B
:10348000D6E091F8560081F8570081F85630CBE02D
:1034900091F8560081F8570081F8563011F8540F12
:1034A00048701820C4E091F8560081F8570081F860
:1034B000562011F8540F48701020B9E091F85600CA
:1034C00081F8570081F8562011F8540F48701120E8
:1034D000AEE091F8560081F8570081F8562011F8B7
:1034E000540F48701220A3E091F8560081F857005D
:1034F00081F8563011F8540F48700D7023E791F899
:10350000560081F8570081F8563011F8540F487072
:1035100081F800C017E791F8560081F8570081F84C
:10352000562011F8540F4870504681E091F856002B
:1035300081F8570081F8562011F8540F487048461A
:1035400076E091F8560081F8570081F8562005E0A2
:1035500091F8560081F8570081F8563011F8540F51
:103560004870162064E091F8560081F8570081F801
:10357000563011F8540F48702F2059E091F856003A
:1035800081F8570081F8562011F8540F4870032035
:103590004EE091F8560081F8570081F8562011F856
:1035A000540F48700B2043E091F8560081F8570003
:1035B00081F8562011F8540F4870584638E091F8B9
:1035C000560081F8570081F8563011F8540F4870B2
:1035D0002A202DE091F8560081F8570081F85630E6
:1035E00011F8540F48702B2022E091F8560081F812
:1035F000570081F8562011F8540F4870072017E043
:1036000091F8560081F8570081F8562011F8540FB0
:1036100048700F200CE000000800002091F85600D0
:1036200081F8570081F8562011F8540F4870172080
:10363000087088E62DE9F04FDFF8FC8B0123A8F134
:103640002A02022404250826102702F11C014FF04B
:10365000200C4FF040094FF0800A4FF0030B002878
:103660007AD0012870D002286FD003286ED00428A9
:103670006DD005286CD006286BD007286AD04FF093
:10368000050E082867D009287DD00A287CD00B2891
:103690007BD00C287AD04FF0070B0D2877D00E285E
:1036A00076D00F2875D0102874D0112873D0122826
:1036B00072D0132871D0142870D015286FD0162816
:1036C0006ED017286DD018286CD1DE4688F800B06F
:1036D0004FF4506BA2F800B00B7088F801E0A2F82C
:1036E00002B04C7088F802E0A2F804B08D7088F83F
:1036F00003E0A2F806B0CE7088F804E0A2F808B0A3
:103700000F7188F805E0A2F80AB081F805C088F8C2
:1037100006E0A2F80CB081F8069088F807E0A2F85D
:103720000EB081F807A0092088F808004FF4206344
:1037300013820E7288F80900030253824F7288F8D0
:103740000A009382DAE207E04DE080E0BDE0F3E0BA
:1037500028E161E19DE1D5E188F800304FF4006097
:1037600010800B7088F8013050804C7088F802305F
:1037700090808D7088F80330D080CE7088F8043047
:1037800010810F710FE0FDE13BE27AE2B9E2F7E26E
:103790002AE366E399E3D1E3FEE3FEE3FEE3FEE31F
:1037A000FEE3FEE373E188F80530508181F805C03F
:1037B00088F80630908181F8069088F80730D0812B
:1037C00081F807A088F808B04FF4506414820B7297
:1037D00088F809B04FF4606454824B7288F80AB0DC
:1037E0004FF470608BE188F800304FF41060108067
:1037F0000B7088F8013050804C7088F8023090804F
:103800008D7088F80330D080CE7088F80430108135
:103810000F7188F80530508181F805C088F80630AE
:10382000908181F8069088F80730D08181F807A050
:1038300088F808B04FF4506313820C7288F809B00E
:103840004FF4606353824C7288F80AB01BE188F829
:1038500000304FF4206EA2F800E00B7088F80130C1
:10386000A2F802E04C7088F80230A2F804E08D70F3
:1038700088F80330A2F806E0CE7088F80430A2F889
:1038800008E00F7188F80530A2F80AE081F805C059
:1038900088F80630A2F80CE081F8069088F8073026
:1038A000A2F80EE081F807A088F808B04FF4506342
:1038B00013820D7288F809B04FF4606353824D7221
:1038C00088F80AB04FF4706059E188F800304FF47E
:1038D000306010800B7088F8013050804C7088F890
:1038E000023090808D7088F80330D080CE7088F8D8
:1038F000043010810F7188F80530508181F805C0BF
:1039000088F80630908181F8069088F80730D081D9
:1039100081F807A088F808B04FF4506313820E7244
:1039200088F809B04FF4606353824E7288F80AB089
:103930004FF47060908262E188F800304FF440608C
:1039400010800B7088F8013050804C7088F802307D
:1039500090808D7088F80330D080CE7088F8043065
:1039600010810F7188F80530508181F805C088F802
:103970000630908181F8069088F80730D08181F870
:1039800007A088F808B04FF4506313820F7288F8CC
:1039900009B04FF4606353824F7288F80AB04FF455
:1039A00070606BE1404688F800304FF45068A2F830
:1039B00000800B704370A2F802804C708370A2F8F4
:1039C00004808D70C370A2F80680CE700371A2F8D7
:1039D00008800F714371A2F80A8081F805C08371D5
:1039E000A2F80C8081F80690C371A2F80E8081F8CD
:1039F00007A080F808B0A2F8108081F808C080F80D
:103A000009B04FF46064548281F809C080F80AB0AC
:103A10004FF47060908271E1404688F800304FF4B6
:103A20006068A2F800800B704370A2F802804C70AE
:103A30008370A2F804808D70C370A2F80680CE70E7
:103A40000371A2F808800F714371A2F80A8081F80F
:103A500005C08371A2F80C8081F80690C371A2F8AA
:103A60000E8081F807A080F808B04FF450651582E9
:103A700081F8089080F809B0A2F8128081F80990C6
:103A80004C4680F80AB04FF4706090828C72BDE8AA
:103A9000F08F88F800304FF4706010800B7088F859
:103AA000013050804C7088F8023090808D7088F81A
:103AB0000330D080CE7088F8043010810F7188F800
:103AC0000530508181F805C088F80630908181F872
:103AD000069088F80730D08181F807A088F808B0F0
:103AE0004FF45065158281F808A088F809B04FF4AA
:103AF0006065558281F809A0534688F80AB0908223
:103B00008B72C4E7032088F800004FF4006BA2F822
:103B100000B00B7088F80100A2F802B04C7088F871
:103B20000200A2F804B08D7088F80300A2F806B075
:103B3000CE7088F80400A2F808B00F7188F805006C
:103B4000A2F80AB081F805C088F80600A2F80CB007
:103B500081F8069088F80700A2F80EB081F807A057
:103B600088F808E0A2F810B00B7288F809E0A2F813
:103B700012B081F809C088F80AE04FF41060908212
:103B80008D7284E7032088F800004FF4106BA2F8D0
:103B900000B00B7088F80100A2F802B04C7088F8F1
:103BA0000200A2F804B08D7088F80300A2F806B0F5
:103BB000CE7088F80400A2F808B00F7188F80500EC
:103BC000A2F80AB081F805C088F80600A2F80CB087
:103BD00081F8069088F80700A2F80EB081F807A0D7
:103BE00088F808E04FF4006515820C7288F809E047
:103BF000558281F8099088F80AE0A2F814B08E7214
:103C000045E7032088F800004FF4206BA2F800B0CD
:103C10000B7088F80100A2F802B04C7088F802001E
:103C2000A2F804B08D7088F80300A2F806B0CE7038
:103C300088F80400A2F808B00F7188F80500A2F80F
:103C40000AB081F805C088F80600A2F80CB081F827
:103C5000069088F80700A2F80EB081F807A088F84F
:103C600008E04FF4006414820D7288F809E0548271
:103C700081F809A088F80AE04FF4106090828F72F2
:103C800005E7032088F800004FF4306BA2F800B07D
:103C90000B7088F80100A2F802B04C7088F802009E
:103CA000A2F804B08D7088F80300A2F806B0CE70B8
:103CB00088F80400A2F808B00F7188F80500A2F88F
:103CC0000AB081F805C088F80600A2F80CB081F8A7
:103CD000069088F80700A2F80EB081F807A088F8CF
:103CE00008E04FF4006414820E7288F809E04FF483
:103CF000106454824B7288F80AE0948281F80AC0FA
:103D0000C5E6032088F800004FF4406BA2F800B02D
:103D10000B7088F80100A2F802B04C7088F802001D
:103D2000A2F804B08D7088F80300A2F806B0CE7037
:103D300088F80400A2F808B00F7188F80500A2F80E
:103D40000AB081F805C088F80600A2F80CB081F826
:103D5000069088F80700A2F80EB081F807A088F84E
:103D600008E04FF4006515820F7288F809E04FF4FF
:103D7000106555824C7288F80AE04B469582BFE682
:103D8000052088F800004FF4206EA2F800E00B70C8
:103D900088F80100A2F802E04C7088F80200A2F84E
:103DA00004E08D7088F80300A2F806E0CE7088F871
:103DB0000400A2F808E00F7188F80500A2F80AE0F4
:103DC00081F805C088F80600A2F80CE081F806909A
:103DD00088F80700A2F80EE081F807A0584688F896
:103DE00008B04FF4606632E0052088F800004FF418
:103DF000306EA2F800E00B7088F80100A2F802E033
:103E00004C7088F80200A2F804E08D7088F8030076
:103E1000A2F806E0CE7088F80400A2F808E00F715E
:103E200088F80500A2F80AE081F805C088F80600C5
:103E3000A2F80CE081F8069088F80700A2F80EE0DE
:103E400081F807A0584688F808B04FF470661682CB
:103E50000B7288F8090056824C7288F80A00968224
:103E60008EE6052088F800004FF4406EA2F800E0CE
:103E70000B7088F80100A2F802E04C7088F802008C
:103E8000A2F804E08D7088F80300A2F806E0CE7076
:103E900088F80400A2F808E00F7188F80500A2F87D
:103EA0000AE081F805C088F80600A2F80CE081F865
:103EB000069088F80700A2F80EE081F807A058469F
:103EC00088F808B04FF4606332E0052088F80000FD
:103ED0004FF4506EA2F800E00B7088F80100A2F8D1
:103EE00002E04C7088F80200A2F804E08D7088F8B7
:103EF0000300A2F806E0CE7088F80400A2F808E0FB
:103F00000F7188F80500A2F80AE081F805C088F86A
:103F10000600A2F80CE081F8069088F80700A2F8E5
:103F20000EE081F807A0584688F808B04FF4706397
:103F300013820E7288F80900FFF7FFBB052088F88E
:103F400000004FF4606EA2F800E00B7088F80100EA
:103F5000A2F802E04C7088F80200A2F804E08D702C
:103F600088F80300A2F806E0CE7088F80400A2F8F2
:103F700008E00F7188F80500A2F80AE081F805C092
:103F800088F80600A2F80CE081F8069088F807008F
:103F9000A2F80EE0504605E018E057E05CE099E03A
:103FA000D1E010E181F807A088F808B0A2F810E08D
:103FB00081F8089088F809B0A2F812E081F809A009
:103FC000092388F80A304FF400633CE0052088F8A4
:103FD00000004FF4706EA2F800E00B7088F801004A
:103FE000A2F802E04C7088F80200A2F804E08D709C
:103FF00088F80300A2F806E0CE7088F80400A2F862
:1040000008E00F7188F80500A2F80AE081F805C001
:1040100088F80600A2F80CE081F8069088F80700FE
:10402000A2F80EE081F807A088F808B0A2F810E026
:1040300081F8089088F809B0A2F812E0504681F89B
:1040400009A00923BAE09382887220E5DE4688F849
:1040500000B04FF4006B04E0DE4688F800B04FF487
:10406000106BA2F800B00B7088F801E0A2F802B063
:104070004C7088F802E0A2F804B08D7088F803E074
:10408000A2F806B0CE7088F804E0A2F808B00F716C
:1040900088F805E0A2F80AB081F805C088F806E0C3
:1040A000A2F80CB081F8069088F807E0A2F80EB0EC
:1040B00081F807A0092088F80800A2F810B00B7258
:1040C00088F80900A2F812B04C7288F80A00A2F829
:1040D00014B055E588F800B04FF42060DE4610803B
:1040E0000B7088F801E050804C7088F802E09080F6
:1040F0008D7088F803E0D080CE7088F804E01081DD
:104100000F7188F805E05081934681F805C088F862
:1041100006E0ABF80C0081F8069088F807E0ABF8F1
:104120000E0081F807A0092288F80820ABF81000DB
:104130000B7288F80920ABF812004C7288F80A203C
:10414000ABF814001CE5DE4688F800B04FF4306B85
:10415000A2F800B00B7088F801E0A2F802B04C7031
:1041600088F802E0A2F804B08D7088F803E0A2F8A5
:1041700006B0CE7088F804E0A2F808B00F7188F895
:1041800005E0A2F80AB081F805C088F806E0A2F8B8
:104190000CB081F8069088F807E0A2F80EB081F81C
:1041A00007A0092388F808304FF4006414820E72C7
:1041B00088F809305482484681F8099088F80A3016
:1041C0004FF410633FE7DE4688F800B04FF4406BD1
:1041D000A2F800B00B7088F801E0A2F802B04C70B1
:1041E00088F802E0A2F804B08D7088F803E0A2F825
:1041F00006B0CE7088F804E0A2F808B00F7188F815
:1042000005E0A2F80AB081F805C088F806E0A2F837
:104210000CB081F8069088F807E0A2F80EB00920EB
:1042200081F807A088F80800030213820E7288F84C
:1042300009004FF400637FE6B601002010B57D4C05
:104240000221207840F4006001F036FC6078022101
:1042500040F4106001F030FCA078022140F42060AE
:1042600001F02AFCE078022140F4306001F024FCE7
:104270002079022140F4406001F01EFC60790221A7
:1042800040F4506001F018FCA079022140F4606015
:1042900001F012FCE079022140F4706001F00CFCA6
:1042A000207A042140F4006001F006FC607A0421C9
:1042B00040F4106001F000FCA07A042140F420607A
:1042C00001F0FAFBE07A042140F4306001F0F4FBE5
:1042D000207B042140F4406001F0EEFB607B042170
:1042E00040F4506001F0E8FBA07B042140F46060E2
:1042F00001F0E2FBE07B042140F4706001F0DCFBA4
:10430000207C062140F4006001F0D6FB607C062191
:1043100040F4106001F0D0FBA07C062140F4206046
:1043200001F0CAFBE07C062140F4306001F0C4FBE0
:10433000207D062140F4406001F0BEFB607D062137
:1043400040F4506001F0B8FBA07D062140F46060AD
:1043500001F0B2FBE07D062140F4706001F0ACFB9F
:10436000207E082140F4006001F0A6FB607E082159
:1043700040F4106001F0A0FBA07E082140F4206012
:1043800001F09AFBE07E082140F4306001F094FBDC
:10439000207F082140F4406001F08EFB607F0821FF
:1043A00040F4506001F088FBA07F082140F4606079
:1043B00001F082FBE07F082140F4706001F07CFB9B
:1043C00094F820000A2140F4006001F075FB94F895
:1043D00021000A2140F4106001F06EFB94F82200E5
:1043E0000A2140F4206001F067FB94F823000A21C1
:1043F00040F4306001F060FB94F824000A2140F49E
:10440000406001F059FB94F825000A2140F4506007
:1044100001F052FB94F826000A2140F4606001F09C
:104420004BFB94F82700BDE8104040F470600A216F
:1044300001F042BBC40100200448817A044809B15C
:10444000052100E001210160704700009C0400206C
:1044500068010020FEE77047704708B500214FF063
:10446000006000F051F84FF4C06000F043F81C20E9
:104470008DF8000000208DF8010003208DF8020067
:1044800001208DF80300684600F002F808BD000026
:1044900070B50F23C47801780122F4B1144C24685C
:1044A000457804F4E064C4F5E064240AC4F1040629
:1044B000E3408478B5401C402C4301F1E021230106
:1044C00081F80034007800F01F018A404009800024
:1044D00000F1E020C0F8002170BD01F01F00824013
:1044E0004809800000F1E020C0F8802170BD000084
:1044F0000CED00E0024908430249086070470000E3
:104500000000FA050CED00E0024A114001430248A8
:104510000160704780FFFF1F08ED00E070B5304D6F
:104520002868017844784A0606D001F07F00012807
:104530002BD002282ED038E0092C06D0052C07D02D
:10454000032C0ED0012C17D02FE000F0D5FE2BE06D
:10455000C1787F2931D8817879BB818869BB807A1D
:104560002AE0C178012920D18188F1B9407A8006FA
:104570001BD500F0DDFE17E0C178012915D1818837
:1045800099B9407A80060AD40FE00B2C0DD100F0C7
:1045900021FF09E0012C02D0032C03D005E000F03C
:1045A000B7FD01E000F0D6FE58B10E49204609687B
:1045B00049698847032802D018B108200DE0092076
:1045C0000BE0094A062000211268084B120403EB95
:1045D000D2325160064A302111802968087270BDBC
:1045E000780100207C010020505C00400060004009
:1045F0008801002010B50D4C2068007A032804D0F3
:10460000052802D0072805D008E0FCF7B1FC206897
:10461000007A04E006480068C068804708202168E6
:104620000872BDE8104000F017B8000078010020C3
:104630007C010020064B521C520803EB410105D0BF
:1046400031F8043B20F8023B521EF9D170470000BC
:1046500000600040704700000C4810B590F82C1026
:10466000002000F023FC0A480068007A082802D0E5
:10467000092809D006E007494FF480500880064910
:1046800010200880002010BD012010BDF400002083
:1046900078010020860100208801002010B501204B
:1046A00000F09AFF0648012101600021054A0160DF
:1046B000031D19604FF4E05111800160002010BD0E
:1046C000405C004084010020034A516821F44041CD
:1046D000014351607047000000100240044A002965
:1046E000516901D0014300E08143516170470000EE
:1046F00000100240044A0029D16901D0014300E0C2
:104700008143D1617047000000100240044A002933
:10471000916901D0014300E081439161704700003D
:1047200000100240044A0029D16801D0014300E092
:104730008143D16070470000001002400149C1F878
:10474000D80070470000424270B51C4C072800D0CA
:104750002070217806260425194806292CD2DFE886
:1047600001F00306090E162000F02CF824E000F0FA
:1047700029F80AE0022060700320207070BD607884
:10478000401E607060780028F8D1257070BD016807
:1047900089B241F010010160052020700A2060708C
:1047A00070BD6178491E617061780029F8D1016897
:1047B00089B221F010010160267070BD6D010020EA
:1047C000405C004010B5064C206880B220F0040028
:1047D0002060FFF731FE4FF43F40206010BD000025
:1047E000405C00400F4B10B5012283F831200E4A87
:1047F0000B2330301370B3235370907001EB8100A2
:104800004006000ED0707F2801D37F20D070042294
:104810009101054800F080FFBDE81040012000F044
:10482000BFBB000008000020000000202DE9F05F61
:1048300006464808012E08D0032E09D0052E0AD0BE
:10484000072E0BD0092E0CD00DE0FDF7D3FA0AE0AD
:10485000FDF74AFD07E0FDF7DBFF04E0FEF752FA43
:1048600001E0FEF7D9FCDFF8148498F85400192110
:10487000B0FBF1F198F8560098F85620104408441F
:1048800088F8580098F85700FD494FF0010AA1F147
:104890002809022817D198F85500A0B998F85600B1
:1048A000022810D198F8540018280CD198F8530019
:1048B00048B988F853A000204A46135C0B54401CAA
:1048C000C0B22828F9D398F857004FF0020B0628F9
:1048D0000DD198F85500192809D198F856000628E6
:1048E00005D198F85400312801D188F853B098F8D0
:1048F000530002281AD098F85300002878D198F86D
:104900004B0000F0F00188F80810C0F3420088F86E
:104910000700052001F059F998F8070008281AD275
:10492000DFE800F012152326292C2F32002088F80A
:1049300053004A460B5C1354401CC0B22828F9D3DC
:10494000BDE8F05FFFF77ABC4FF4006001E04FF480
:104950001060A8F85C0098F808204FF0040012F0EE
:104960000F0F4FF0080112D02BE04FF42060F0E75A
:104970004FF43060EDE74FF44060EAE74FF45060E9
:10498000E7E74FF46060E4E74FF47060E1E712118D
:10499000082A16D2DFE802F004070A0D10122A2DA9
:1049A00088F84AA00DE088F84AB00AE088F84A0082
:1049B00007E088F84A1004E0102200E0202288F87E
:1049C0004A2098F85820AE4F921E363FA7F12A058C
:1049D00005F11C040F2A18D2DFE802F00D8C182212
:1049E0002C37414C57626C778C8C82004022E6E772
:1049F0001EE28022E3E7002088F859003E70B8F8F4
:104A00005C00288098F84A00207073E088F859A06C
:104A10007E70B8F85C00688098F84A00607069E0C1
:104A200088F859B0BE70B8F85C00A88098F84A00C1
:104A3000A0705FE0032088F85900FE70B8F85C00B1
:104A4000E88098F84A00E07054E088F859003E7118
:104A5000B8F85C00288198F84A0020714AE00520E7
:104A600088F859007E71B8F85C00688198F84A00AF
:104A700060713FE0062088F85900BE71B8F85C000C
:104A8000A88198F84A00A07134E0072088F85900FE
:104A9000FE71B8F85C00E88198F84A00E07129E0FE
:104AA00088F859103E72B8F85C00288298F84A00DD
:104AB00020721FE0092088F859007E72B8F85C0067
:104AC000688298F84A00607214E00A2088F8590059
:104AD000BE72B8F85C00A88298F84A00A07209E09B
:104AE0000B2088F85900FE72B8F85C00E88298F84C
:104AF0004A00E07298F85600012806D198F8540050
:104B000018B198F85400FEF795FD00210A46484672
:104B10004254491CC9B22829FAD300217A5C012ADF
:104B200008D0032A49D0052A71D0072A70D0092A53
:104B30006FD064E135F81120B2F5006F15D0B2F5F1
:104B4000106F17D0B2F5206F19D0B2F5306F1BD0AF
:104B5000B2F5406F1DD0B2F5506F1FD0B2F5606F47
:104B600021D0B2F5706F23D049E10278635C1A431B
:104B7000027044E14278635C1A4342703FE18278FC
:104B8000635C1A4382703AE1C278635C1A43C27074
:104B900035E10279635C1A43027130E14279635C6A
:104BA0001A4342712BE18279635C1A43827126E1D8
:104BB000C279635C1A43C27121E135F81120B2F564
:104BC000006F15D0B2F5106F17D0B2F5206F19D065
:104BD000B2F5306F1ED0B2F5406F20D0B2F5506FF5
:104BE00022D0B2F5606F24D0B2F5706F26D006E106
:104BF000027A635C1A43027201E1427A635C1A43EF
:104C00004272FCE0827A635C1A438272F7E01AE037
:104C100060E0A2E0C27A635C1A43C272EFE0027BFA
:104C2000635C1A430273EAE0427B635C1A4342739B
:104C3000E5E0827B635C1A438273E0E0C27B635CE5
:104C40001A43C273DBE035F81120B2F5006F19D0BA
:104C5000B2F5106F1BD0B2F5206F1DD0B2F5306FDA
:104C60001FD0B2F5406F21D0B2F5506F23D0B2F50E
:104C7000606F25D0B2F5706F27D0C0E0080000202B
:104C8000EC010020027C635C1A430274B7E0427CB2
:104C9000635C1A434274B2E0827C635C1A438274A0
:104CA000ADE0C27C635C1A43C274A8E0027D635C21
:104CB0001A430275A3E0427D635C1A4342759EE08D
:104CC000827D635C1A43827599E0C27D635C1A43FE
:104CD000C27594E035F81120B2F5006F15D0B2F529
:104CE000106F17D0B2F5206F19D0B2F5306F1BD00E
:104CF000B2F5406F1DD0B2F5506F1FD0B2F5606FA6
:104D000021D0B2F5706F23D079E0027E635C1A4344
:104D1000027674E0427E635C1A4342766FE0827EE4
:104D2000635C1A4382766AE0C27E635C1A43C27691
:104D300065E0027F635C1A43027760E0427F635C58
:104D40001A4342775BE0827F635C1A43827756E0C6
:104D5000C27F635C1A43C27751E035F81120B2F587
:104D6000006F15D0B2F5106F19D0B2F5206F1DD0BD
:104D7000B2F5306F21D0B2F5406F25D0B2F5506F4B
:104D800029D0B2F5606F2DD0B2F5706F31D036E01A
:104D900090F82020635C1A4380F820202FE090F8E0
:104DA0002120635C1A4380F8212028E090F822201B
:104DB000635C1A4380F8222021E090F82320635C92
:104DC0001A4380F823201AE090F82420635C1A43E9
:104DD00080F8242013E090F82520635C1A4380F8C3
:104DE00025200CE090F82620635C1A4380F82620EA
:104DF00005E090F82720635C1A4380F82720491CBF
:104E0000C9B20C29FFF48AAE0A480921017098F84A
:104E100056109031417098F8541081707F21C17004
:104E20000422910100F078FC012000F0B9F887E538
:104E3000BDE8F09F0000002070470000024920F00C
:104E40000700086070470000505C0040F0B50C4956
:104E50000C4D48F68F770A78002109E0CEB205EBB9
:104E60008603D3F8004C3C403443C3F8004C491C43
:104E70009142F3D3044940F080000860F0BD000087
:104E8000CC000020005000404C5C0040054A21F05E
:104E90000101126892B202EBC000034A02EB40002B
:104EA00081607047505C0040006000400D4A12680D
:104EB0003E2992B202EBC0000B4A02EB400209D934
:104EC0004809C90601D1401E80B24FF4004141EAB1
:104ED000802004E04808C90700D0401C8002106010
:104EE00070470000505C00400C60004082000948A0
:104EF0000244D2F8000C4BF68F731840CB0401D556
:104F000080F48050890401D580F40050C2F8000C70
:104F10007047000000500040810006480144D1F86D
:104F2000000C4BF68F72104080F44050C1F8000C1A
:104F30007047000000500040054A21F0010112684E
:104F400092B202EBC000034A42F810107047000012
:104F5000505C004000600040044A126892B202EBCC
:104F6000C000034A02EB400041607047505C0040C3
:104F700000600040820009480244D2F8000C48F664
:104F8000BF731840CB0601D580F01000890601D50B
:104F900080F02000C2F8000C704700000050004074
:104FA000810006480144D1F8000C48F6BF72104059
:104FB00080F03000C1F8000C704700000050004045
:104FC000820005480244D2F8000C48F68F131840BE
:104FD0000843C2F8000C7047005000400CB5002197
:104FE000264801910091026842F4803202604FF439
:104FF000A063026802F400320092019A521C0192EE
:10500000009A12B9019A9A42F3D10268920333D5F9
:10501000012100911A490A6842F010020A600A68E8
:1050200022F003020A600A6842F002020A60416844
:10503000416041684160416841F48061416041687C
:1050400021F47C114160416841F4E811416001683C
:1050500041F08071016001688901FCD5416821F04F
:1050600003014160416841F0020141604168C1F3C0
:1050700081010229FAD10CBD0091FEE70010024027
:105080000020024010B500F0DBF9BDE81040FCF74D
:1050900059BC10B50020FFF751FB0121BDE81040BD
:1050A000C805FFF727BB000070B516480068174D0C
:1050B0000004C10B14480144098989B200EB410482
:1050C0002868017A09290FD0217801706178417030
:1050D000A088FBF726FC296848802089FBF721FC83
:1050E00029688880A089C880286801210172C08849
:1050F00028B1FBF78FFFBDE87040FFF7ADBAFFF7AF
:105100000DFAF8E7505C0040006000407801002094
:105110002DE9F04135480068017811F07F0102D097
:10512000022905D05FE0417A01F0DF01417249E0D8
:105130004188E9BB0179D9BB41792E4D21F080042A
:105140000A0605EB84022A4BD2F8002C03D5C2F3E1
:105150000112120102E0C2F3013212031E7823464B
:10516000A64240D922B3807A10B308064FEA8400E1
:105170000ED52844D0F8000CC0F3011001281DD131
:105180001846FBF793FC20463021FFF7F3FE15E0AD
:105190004619D6F8000CC0F3013001280ED14BF6A9
:1051A0008F7794B11846FBF76DFCD6F8000C00E041
:1051B00019E0384080F44050C6F8000C0E480068F2
:1051C000406980470020BDE8F0810C4890F82C1021
:1051D0000020FFF76BFED5F8000C384080F44050FB
:1051E000C5F8000CEAE70220EDE700007801002096
:1051F000CC0000200050004080010020F40000207E
:1052000010B5074C30B10748006800688047206837
:105210000A3010BD216801200882002010BD000066
:105220007801002080010020054A13685A8A10B1D5
:105230000868104470478888801A188200207047D8
:105240007801002010B5074C30B10748006880682D
:10525000804720680C3010BD2168012008820020A2
:1052600010BD000078010020800100201E4910B50B
:10527000096860B11D48002202800A7853060AD0EE
:1052800002F07F02012A18D0022A18D001E0022081
:105290000882002010BD497A8A0603D5027842F0C0
:1052A00002020270490603D5017801F0FE0102E016
:1052B000017841F00101017011E00C4810BD4A79FC
:1052C000110713060A4A02EB9161D1F8001C02D5BE
:1052D000C1F3011101E0C1F301310129E8D0054812
:1052E000006800698047E8E778010020720100202B
:1052F00000500040800100200A4810B500680A4AAA
:10530000C1785278914203D882780AB982880AB16A
:10531000022010BD81720548006840688047002067
:1053200010BD000078010020CC000020800100208A
:10533000064810B50068417A41F0200141720448E6
:105340000068C0698047002010BD0000780100207F
:105350008001002070B51B481B4D0368597921F06E
:10536000800005EB80000C06D0F8004C21F0800294
:1053700003D5C4F30114240102E0C4F3013424036F
:10538000124D2D7895420ED95A8862B95CB19A7A3D
:105390004AB10906D0F8001C07D548F6BF72114083
:1053A00081F0100106E0022070BD4BF68F721140B3
:1053B00081F48051C0F8001C05480068806980476E
:1053C000002070BD7801002000500040CC0000207B
:1053D0008001002010B50E4C0E4A20681268C1787A
:1053E00092694079904721688A7A22B118B9087980
:1053F00008B9887808B1022010BD07480068C06865
:10540000804720684179C172C1780173002010BDC6
:10541000780100207C0100208001002006480168FE
:1054200089B241F008010160016889B241F00401CC
:105430000160FCF781BA0000405C0040704700004A
:105440000C48016841F00101016041680A4A1140BD
:1054500041600168094A11400160016821F480211E
:105460000160416821F4FE01416000218160FFF785
:10547000B5BD0000001002400000FFF8FFFFF6FE7F
:1054800070B501218C07204600F02CF8002814D0BC
:105490000121204600F019F8084B094A4CF250341B
:1054A00019680025491C19601068401C1060A14251
:1054B00000D31D60A04200D3156070BD68000020BD
:1054C00070000020C94301827047C94301827047C0
:1054D0000029018802D041F0010101E021F0010121
:1054E0000180704702460020138A92890B4202EA2B
:1054F000010202D0002A00D001207047002A8289D0
:1055000001D00A4300E08A438281704730B50288A7
:10551000164B174C98420DD0A0420BD0B0F1804FE3
:1055200008D0144DA84205D0134DA84202D0134D07
:10553000A84203D122F070054A882A43104DA842A0
:1055400006D0104DA84203D022F44075CA882A43E1
:1055500002808A8882850A880285984201D0A0420A
:1055600001D1097A01860121818230BD002C0140E0
:10557000003401400004004000080040000C0040DE
:1055800000100040001400403EB501210846FFF71E
:10559000B1F840F2E730ADF804004720ADF8000064
:1055A0000020ADF80600ADF802008DF808004FF0BD
:1055B000804469462046FFF7A9FF01212046FFF7F6
:1055C00081FF012211462046FFF798FF0121204666
:1055D000FFF77EFF3EBD0000044A00284FF0800127
:1055E000104601D0FCF7E3BAFCF7E3BA0010014023
:1055F00006480549022201600A72064A0449C0E9C8
:1056000001120868004700009C0400207801002077
:10561000F40000204401002008B514208DF800009B
:1056200001208DF8010000218DF802108DF8030093
:105630006846FEF72DFF08BD70B5294E3068294C2D
:1056400060806088284D29880840400505D54FF6C0
:10565000FF303060254840688047618828880140D5
:10566000890402D54DF6FF71316061880140C8049C
:1056700005D54EF6FF7030600020FFF765F86088B2
:105680002988084000050BD51948007810B1FFF7AC
:10569000C5FE02E00220FFF757F84FF2FF703060BE
:1056A000618828880140890505D54FF6FF51316092
:1056B0002178491C217061880140C80505D54FF645
:1056C000FF6030600720FFF73FF8608829880840B6
:1056D000000403D5BDE87040FBF728B970BD000099
:1056E000445C00408E00002084010020F400002073
:1056F0006C010020FFF7A0BF0548C178002906D043
:10570000491EC9B2C1707F2901D37F21C170704782
:1057100000000020FEE70000094B10B5521C5208A3
:1057200003EB41010AD000BF10F8013B521E10F8F4
:10573000014B43EA042321F8043BF5D110BD0000DE
:105740000060004002E008C8121F08C1002AFAD118
:1057500070477047002001E001C1121F002AFBD1F1
:105760007047000070B502461848194B4114194C97
:105770000D2A0CD2DFE802F00B0709101316191CD2
:105780001F21232527004FF48041FCF710FABDE8C4
:105790007040322000F00CBA4FF48051F5E74FF41E
:1057A0000061F2E74FF48061EFE74FF40071ECE73E
:1057B0004FF48071E9E78021E7E74FF40041184694
:1057C000E3E7402100E008212046DEE70018014021
:1057D000001C0140000C014070B502461848194BEE
:1057E0004114194C0D2A0CD2DFE802F00B07091006
:1057F0001316191C1F21232527004FF48041FCF7A5
:10580000D8F9BDE870400A2000F0D2B94FF48051B9
:10581000F5E74FF40061F2E74FF48061EFE74FF4F2
:105820000071ECE74FF48071E9E78021E7E74FF47E
:1058300000411846E3E7402100E008212046DEE76A
:1058400000180140001C0140000C01402DE9F14FFF
:10585000304C4FF4004684B031462046FCF7A0F9A6
:105860007710019039462046FCF79AF965140390A9
:1058700029462046FCF794F94FF48058029041469F
:105880002046FCF78DF9DFF890908346394648466C
:10589000FCF786F982460A2000F08AF93146204654
:1058A000FCF77EF9009039462046FCF779F9064668
:1058B00029462046FCF774F9054641462046FCF788
:1058C0006FF9044639464846FCF76AF9049A1349C9
:1058D0000A2A19D2DFE802F018051809180E181163
:1058E0001814DDE90020104301E00398304381F8EB
:1058F0005B0009E002982843F9E74BEA0400F6E769
:105900004AEA000281F85B2091F85B0005B0BDE82F
:10591000F08F0000000C0140001C01400800002036
:1059200070B50A2000F051F9012140F2012000F089
:10593000C3F84FF4967000F048F940F201440A2190
:10594000204600F0B9F8642000F03FF9A51C0121C1
:10595000284600F0B1F8642000F037F90221204613
:1059600000F0AAF8642000F030F90321284600F086
:10597000A3F8642000F029F90421204600F09CF8E7
:10598000642000F022F90521284600F095F86420F3
:1059900000F01BF90621204600F08EF8642000F08C
:1059A00014F90721284600F087F8642000F00DF96B
:1059B0000821204600F080F8642000F006F9092153
:1059C000284600F079F8642000F0FFF80B2120460B
:1059D00000F072F8642000F0F8F80C21204600F086
:1059E0006BF8BDE87040642000F0EFB82DE9F0419D
:1059F00007460726FFF7F0FE2E4C01212046FCF754
:105A0000D6F8022000F0D4F801212046FCF7D1F8A6
:105A1000022000F0CDF8002516F0010F4FF0010133
:105A2000204602D0FCF7C5F801E0FCF7C0F80221DF
:105A30002046FCF7BCF8022000F0BAF8022120460C
:105A4000FCF7B7F8022000F0B3F86D1C7608EDB251
:105A5000042DE1D302212046FCF7ABF8322000F000
:105A6000A7F83846FFF77EFE022000F0A1F838467E
:105A7000FFF7B2FE022000F09BF800252E4602211F
:105A80002046FCF794F8022000F092F86806050E14
:105A90003846FFF7DBFE054302212046FCF789F874
:105AA000022000F085F8761CF6B2072EE7D32846D0
:105AB000BDE8F081002001402DE9F04104460E468A
:105AC0000846FFF789FE0A2000F072F80B2E2ED34D
:105AD000354F10213846FCF76AF8022000F068F8CC
