:020000040000FA
:1000000068400020A1020000A9020000AB0200002D
:10001000AD020000AF020000B102000000000000CD
:10002000000000000000000000000000B30200001B
:10003000B502000000000000B7020000B902000095
:10004000BB020000BB020000BB020000BB020000BC
:10005000BB020000BB020000BB020000BB020000AC
:10006000BB020000BB020000BB020000BB0200009C
:10007000BB020000BB020000BB020000BB0200008C
:10008000BB020000BB020000BB020000BB0200007C
:10009000BB020000BB020000BB020000BB0200006C
:1000A000BB020000BB020000BB020000BB0200005C
:1000B000BB020000BB0200000000000000000000C6
:1000C000BB020000BB020000BB020000BB0200003C
:1000D000BB020000BB020000BB020000BB0200002C
:1000E000BB020000BB020000BB02000000000000D9
:1000F00000000000BB02000000000000BB02000086
:1001000000000000000000000000000000000000EF
:1001100000000000000000000000000000000000DF
:1001200000000000000000000000000000000000CF
:1001300000000000000000000000000000000000BF
:1001400000000000000000000000000000000000AF
:10015000000000000000000000000000000000009F
:10016000000000000000000000000000000000008F
:10017000000000000000000000000000000000007F
:10018000000000000000000000000000000000006F
:10019000000000000000000000000000000000005F
:1001A000000000000000000000000000000000004F
:1001B000000000000000000000000000000000003F
:1001C000000000000000000000000000000000002F
:1001D000000000000000000000000000000000001F
:1001E000000000000000000000000000000000000F
:1001F00000000000000000000000000000000000FF
:1002000000F002F800F03CF80AA090E8000C8244EC
:100210008344AAF10107DA4501D100F031F8AFF2C9
:10022000090EBAE80F0013F0010F18BFFB1A43F0D4
:10023000010318472405000044050000103A24BFBC
:1002400078C878C1FAD8520724BF30C830C144BF3B
:1002500004680C607047000000230024002500267D
:10026000103A28BF78C1FBD8520728BF30C148BF19
:100270000B6070471FB500F062FA1FBD10B510BDCE
:1002800000F031F81146FFF7F5FF00F0D5F900F066
:100290004FF803B4FFF7F2FF03BC00F053F800007F
:1002A0000948804709480047FEE7FEE7FEE7FEE70A
:1002B000FEE7FEE7FEE7FEE7FEE7FEE70448054946
:1002C000054A064B70470000B5030000010200001C
:1002D000680000206840002068200020682000207E
:1002E000704770477047754600F028F8AE46050025
:1002F0006946534620F00700854618B020B5FFF741
:10030000DDFFBDE820404FF000064FF000074FF042
:1003100000084FF0000B21F00701AC46ACE8C00923
:10032000ACE8C009ACE8C009ACE8C0098D4670472C
:100330000446AFF300802046FFF7ABFF004870474C
:100340000400002001491820ABBEFEE72600020091
:10035000704710B50D2000F0E5F910BD10B50D2067
:1003600000F0C2F910BD10B50E2000F0DBF910BD91
:1003700010B50E2000F0B8F910BD10B50F2000F038
:10038000D1F910BD10B50F2000F0AEF910BD10B5B9
:100390000D2000F08BF90E2000F088F90F2000F0FE
:1003A00085F910BD01480249086070470090D003EC
:1003B0000000002010B500F0F9F840B100204C49D1
:1003C00008604FF08041C1F810014A49086000F010
:1003D00009F9002855D0484800684849086046484F
:1003E000001D0068091D0860434808300068091DA9
:1003F000086041480C300068091D08603E48103014
:100400000068091D08603C4814300068091D086038
:1004100039481830006839492031086036481C30A6
:100420000068091D0860344820300068091D086014
:10043000314824300068091D08602F4828300068C2
:10044000091D08602C482C300068091D08602A48E6
:10045000303000682949403108602748343000684E
:10046000091D0860244838300068091D08602248CA
:100470003C300068091D08601F4840300068091DB5
:10048000086000F0CBF810B11D481E49086000F06C
:1004900047F810B1FB201C49086000F04FF838B154
:1004A0001A4801781A48006861F303001849086087
:1004B00000F052F818B14FF400701649086000F0CF
:1004C00059F840B11448006800F0010018B16FF00D
:1004D0000100114908601148006840F470000F499C
:1004E0000860BFF34F8FBFF36F8FFFF75BFF10BD47
:1004F0000C010040380500400404001020C50040F5
:10050000488103008C56004018F500405802001046
:10051000E40E0040409602400004004088ED00E0F8
:1005200005480068082805D10348001D006808B97F
:10053000012070470020FCE73001001005480068EA
:10054000082805D10348001D006808B9012070473C
:100550000020FCE73001001005480068082805D19C
:100560000348001D006808B9012070470020FCE71F
:10057000300100100C480068082812D10A48001DFC
:10058000006808B9012070470748001D006801286D
:1005900000D1F8E70448001D0068022801D10120BD
:1005A000F1E70120EFE70000300100100C4800687F
:1005B000082812D10A48001D006808B901207047B8
:1005C0000748001D0068012800D1F8E70448001D15
:1005D0000068022801D10120F1E70120EFE70000C7
:1005E000300100100C480068082812D10A48001D8C
:1005F000006808B9012070470748001D00680128FD
:1006000000D1F8E70448001D0068022801D101204C
:10061000F1E70120EFE70000300100100548006815
:10062000082805D10348001D006808B9012070475B
:100630000020FCE730010010FFF7A9FE1DE0FFF7E6
:100640008DFEFFF790FEFFF798FE4FF47A7000F0F2
:1006500015F8FFF78DFEFFF77CFEFFF78EFE4FF4D7
:100660007A7000F00BF8FFF78DFEFFF772FEFFF7D0
:100670007AFE4FF47A7000F001F8E0E72DE9F041DE
:1006800004460CB9BDE8F08100BF4FF47A7505B996
:1006900004E0054FAE013046B84700BF601E0400BD
:1006A000F3D100BFEEE70000510700002DE9F84F3D
:1006B000044601252E464FF00008C14647460094E7
:1006C000684600F01FF8824645EA460040EA880086
:1006D00040EA092040EA07410AF5E060009A40F844
:1006E000221000BFBDE8F88F31B5684600F00AF867
:1006F00004460121009A01FA02F0C4F80C0500BF7B
:1007000038BD000001460868202802D24FF0A04002
:100710007047087800F01F0008600148F8E7000003
:100720000003005031B56846FFF7ECFF0446012195
:10073000009A01FA02F0C4F8080500BF38BD4FF076
:100740004070E1EE100A7047000000000000000059
:100750000338FDD870470000780700000000002033
:10076000040000003C0200007C07000004000020A0
:0C07700064400000580200000090D0031C
:0400000500000201F4
:00000001FF
